{
  "_format": "hh-sol-artifact-1",
  "contractName": "ConfigurationManager",
  "sourceName": "@pods/contracts/contracts/configuration/ConfigurationManager.sol",
  "abi": [
    {
      "inputs": [],
      "stateMutability": "nonpayable",
      "type": "constructor"
    },
    {
      "anonymous": false,
      "inputs": [
        {
          "indexed": true,
          "internalType": "bytes32",
          "name": "name",
          "type": "bytes32"
        },
        {
          "indexed": true,
          "internalType": "address",
          "name": "newAddress",
          "type": "address"
        }
      ],
      "name": "ModuleSet",
      "type": "event"
    },
    {
      "anonymous": false,
      "inputs": [
        {
          "indexed": true,
          "internalType": "address",
          "name": "previousOwner",
          "type": "address"
        },
        {
          "indexed": true,
          "internalType": "address",
          "name": "newOwner",
          "type": "address"
        }
      ],
      "name": "OwnershipTransferred",
      "type": "event"
    },
    {
      "anonymous": false,
      "inputs": [
        {
          "indexed": false,
          "internalType": "bytes32",
          "name": "name",
          "type": "bytes32"
        },
        {
          "indexed": false,
          "internalType": "uint256",
          "name": "value",
          "type": "uint256"
        }
      ],
      "name": "ParameterSet",
      "type": "event"
    },
    {
      "inputs": [],
      "name": "getAMMFactory",
      "outputs": [
        {
          "internalType": "address",
          "name": "",
          "type": "address"
        }
      ],
      "stateMutability": "view",
      "type": "function"
    },
    {
      "inputs": [],
      "name": "getCapProvider",
      "outputs": [
        {
          "internalType": "address",
          "name": "",
          "type": "address"
        }
      ],
      "stateMutability": "view",
      "type": "function"
    },
    {
      "inputs": [],
      "name": "getEmergencyStop",
      "outputs": [
        {
          "internalType": "address",
          "name": "",
          "type": "address"
        }
      ],
      "stateMutability": "view",
      "type": "function"
    },
    {
      "inputs": [],
      "name": "getIVGuesser",
      "outputs": [
        {
          "internalType": "address",
          "name": "",
          "type": "address"
        }
      ],
      "stateMutability": "view",
      "type": "function"
    },
    {
      "inputs": [],
      "name": "getIVProvider",
      "outputs": [
        {
          "internalType": "address",
          "name": "",
          "type": "address"
        }
      ],
      "stateMutability": "view",
      "type": "function"
    },
    {
      "inputs": [
        {
          "internalType": "bytes32",
          "name": "name",
          "type": "bytes32"
        }
      ],
      "name": "getModule",
      "outputs": [
        {
          "internalType": "address",
          "name": "",
          "type": "address"
        }
      ],
      "stateMutability": "view",
      "type": "function"
    },
    {
      "inputs": [],
      "name": "getOptionFactory",
      "outputs": [
        {
          "internalType": "address",
          "name": "",
          "type": "address"
        }
      ],
      "stateMutability": "view",
      "type": "function"
    },
    {
      "inputs": [],
      "name": "getOptionHelper",
      "outputs": [
        {
          "internalType": "address",
          "name": "",
          "type": "address"
        }
      ],
      "stateMutability": "view",
      "type": "function"
    },
    {
      "inputs": [],
      "name": "getOptionPoolRegistry",
      "outputs": [
        {
          "internalType": "address",
          "name": "",
          "type": "address"
        }
      ],
      "stateMutability": "view",
      "type": "function"
    },
    {
      "inputs": [
        {
          "internalType": "bytes32",
          "name": "name",
          "type": "bytes32"
        }
      ],
      "name": "getParameter",
      "outputs": [
        {
          "internalType": "uint256",
          "name": "",
          "type": "uint256"
        }
      ],
      "stateMutability": "view",
      "type": "function"
    },
    {
      "inputs": [],
      "name": "getPriceProvider",
      "outputs": [
        {
          "internalType": "address",
          "name": "",
          "type": "address"
        }
      ],
      "stateMutability": "view",
      "type": "function"
    },
    {
      "inputs": [],
      "name": "getPricingMethod",
      "outputs": [
        {
          "internalType": "address",
          "name": "",
          "type": "address"
        }
      ],
      "stateMutability": "view",
      "type": "function"
    },
    {
      "inputs": [],
      "name": "owner",
      "outputs": [
        {
          "internalType": "address",
          "name": "",
          "type": "address"
        }
      ],
      "stateMutability": "view",
      "type": "function"
    },
    {
      "inputs": [],
      "name": "renounceOwnership",
      "outputs": [],
      "stateMutability": "nonpayable",
      "type": "function"
    },
    {
      "inputs": [
        {
          "internalType": "address",
          "name": "ammFactory",
          "type": "address"
        }
      ],
      "name": "setAMMFactory",
      "outputs": [],
      "stateMutability": "nonpayable",
      "type": "function"
    },
    {
      "inputs": [
        {
          "internalType": "address",
          "name": "capProvider",
          "type": "address"
        }
      ],
      "name": "setCapProvider",
      "outputs": [],
      "stateMutability": "nonpayable",
      "type": "function"
    },
    {
      "inputs": [
        {
          "internalType": "address",
          "name": "emergencyStop",
          "type": "address"
        }
      ],
      "name": "setEmergencyStop",
      "outputs": [],
      "stateMutability": "nonpayable",
      "type": "function"
    },
    {
      "inputs": [
        {
          "internalType": "address",
          "name": "ivGuesser",
          "type": "address"
        }
      ],
      "name": "setIVGuesser",
      "outputs": [],
      "stateMutability": "nonpayable",
      "type": "function"
    },
    {
      "inputs": [
        {
          "internalType": "address",
          "name": "ivProvider",
          "type": "address"
        }
      ],
      "name": "setIVProvider",
      "outputs": [],
      "stateMutability": "nonpayable",
      "type": "function"
    },
    {
      "inputs": [
        {
          "internalType": "address",
          "name": "optionFactory",
          "type": "address"
        }
      ],
      "name": "setOptionFactory",
      "outputs": [],
      "stateMutability": "nonpayable",
      "type": "function"
    },
    {
      "inputs": [
        {
          "internalType": "address",
          "name": "optionHelper",
          "type": "address"
        }
      ],
      "name": "setOptionHelper",
      "outputs": [],
      "stateMutability": "nonpayable",
      "type": "function"
    },
    {
      "inputs": [
        {
          "internalType": "address",
          "name": "optionPoolRegistry",
          "type": "address"
        }
      ],
      "name": "setOptionPoolRegistry",
      "outputs": [],
      "stateMutability": "nonpayable",
      "type": "function"
    },
    {
      "inputs": [
        {
          "internalType": "bytes32",
          "name": "name",
          "type": "bytes32"
        },
        {
          "internalType": "uint256",
          "name": "value",
          "type": "uint256"
        }
      ],
      "name": "setParameter",
      "outputs": [],
      "stateMutability": "nonpayable",
      "type": "function"
    },
    {
      "inputs": [
        {
          "internalType": "address",
          "name": "priceProvider",
          "type": "address"
        }
      ],
      "name": "setPriceProvider",
      "outputs": [],
      "stateMutability": "nonpayable",
      "type": "function"
    },
    {
      "inputs": [
        {
          "internalType": "address",
          "name": "pricingMethod",
          "type": "address"
        }
      ],
      "name": "setPricingMethod",
      "outputs": [],
      "stateMutability": "nonpayable",
      "type": "function"
    },
    {
      "inputs": [
        {
          "internalType": "address",
          "name": "newOwner",
          "type": "address"
        }
      ],
      "name": "transferOwnership",
      "outputs": [],
      "stateMutability": "nonpayable",
      "type": "function"
    }
  ],
  "bytecode": "0x608060405234801561001057600080fd5b50600061002161013860201b60201c565b905080600160006101000a81548173ffffffffffffffffffffffffffffffffffffffff021916908373ffffffffffffffffffffffffffffffffffffffff1602179055508073ffffffffffffffffffffffffffffffffffffffff16600073ffffffffffffffffffffffffffffffffffffffff167f8be0079c531659141344cd1fd0a4f28419497f9722a3daafe3b4186f6b6457e060405160405180910390a350612b5c600260007f4d494e5f5550444154455f494e54455256414c00000000000000000000000000815260200190815260200160002081905550600a600260007f475545535345525f41434345505441424c455f52414e47450000000000000000815260200190815260200160002081905550610140565b600033905090565b6118b08061014f6000396000f3fe608060405234801561001057600080fd5b506004361061018e5760003560e01c806385acd641116100de578063e34dc6c411610097578063f2fde38b11610071578063f2fde38b146106a7578063f30e2b70146106eb578063fbbeab4d1461071f578063fed2122d146107535761018e565b8063e34dc6c4146105fb578063ebf229591461063f578063ef6f1495146106735761018e565b806385acd6411461046f5780638da5cb5b146104c7578063aaf15bb5146104fb578063af964e191461053f578063ba48a6f214610583578063c5a19f2b146105b75761018e565b80633fdc99591161014b57806367b50eaa1161012557806367b50eaa146103b55780636b45a556146103f9578063715018a61461042d578063723507be146104375761018e565b80633fdc9959146102fb57806359dbaa541461033d5780635fa5c8ce146103815761018e565b80630502f1a1146101935780630a065fb6146101c75780631c2236f1146101fb5780631f27e8921461023f5780632be6214014610283578063372aa224146102b7575b600080fd5b61019b610797565b604051808273ffffffffffffffffffffffffffffffffffffffff16815260200191505060405180910390f35b6101cf6107c7565b604051808273ffffffffffffffffffffffffffffffffffffffff16815260200191505060405180910390f35b61023d6004803603602081101561021157600080fd5b81019080803573ffffffffffffffffffffffffffffffffffffffff1690602001909291905050506107f7565b005b6102816004803603602081101561025557600080fd5b81019080803573ffffffffffffffffffffffffffffffffffffffff1690602001909291905050506108d3565b005b61028b6109af565b604051808273ffffffffffffffffffffffffffffffffffffffff16815260200191505060405180910390f35b6102f9600480360360208110156102cd57600080fd5b81019080803573ffffffffffffffffffffffffffffffffffffffff1690602001909291905050506109df565b005b6103276004803603602081101561031157600080fd5b8101908080359060200190929190505050610abb565b6040518082815260200191505060405180910390f35b61037f6004803603602081101561035357600080fd5b81019080803573ffffffffffffffffffffffffffffffffffffffff169060200190929190505050610ad8565b005b610389610bb4565b604051808273ffffffffffffffffffffffffffffffffffffffff16815260200191505060405180910390f35b6103f7600480360360208110156103cb57600080fd5b81019080803573ffffffffffffffffffffffffffffffffffffffff169060200190929190505050610be4565b005b610401610cc0565b604051808273ffffffffffffffffffffffffffffffffffffffff16815260200191505060405180910390f35b610435610cf0565b005b61046d6004803603604081101561044d57600080fd5b810190808035906020019092919080359060200190929190505050610e60565b005b61049b6004803603602081101561048557600080fd5b8101908080359060200190929190505050610f6a565b604051808273ffffffffffffffffffffffffffffffffffffffff16815260200191505060405180910390f35b6104cf610fa6565b604051808273ffffffffffffffffffffffffffffffffffffffff16815260200191505060405180910390f35b61053d6004803603602081101561051157600080fd5b81019080803573ffffffffffffffffffffffffffffffffffffffff169060200190929190505050610fb5565b005b6105816004803603602081101561055557600080fd5b81019080803573ffffffffffffffffffffffffffffffffffffffff169060200190929190505050611091565b005b61058b61116d565b604051808273ffffffffffffffffffffffffffffffffffffffff16815260200191505060405180910390f35b6105f9600480360360208110156105cd57600080fd5b81019080803573ffffffffffffffffffffffffffffffffffffffff16906020019092919050505061119d565b005b61063d6004803603602081101561061157600080fd5b81019080803573ffffffffffffffffffffffffffffffffffffffff169060200190929190505050611279565b005b610647611355565b604051808273ffffffffffffffffffffffffffffffffffffffff16815260200191505060405180910390f35b61067b611385565b604051808273ffffffffffffffffffffffffffffffffffffffff16815260200191505060405180910390f35b6106e9600480360360208110156106bd57600080fd5b81019080803573ffffffffffffffffffffffffffffffffffffffff1690602001909291905050506113b5565b005b6106f36115aa565b604051808273ffffffffffffffffffffffffffffffffffffffff16815260200191505060405180910390f35b6107276115da565b604051808273ffffffffffffffffffffffffffffffffffffffff16815260200191505060405180910390f35b6107956004803603602081101561076957600080fd5b81019080803573ffffffffffffffffffffffffffffffffffffffff16906020019092919050505061160a565b005b60006107c27f454d455247454e43595f53544f50000000000000000000000000000000000000610f6a565b905090565b60006107f27f50524943455f50524f5649444552000000000000000000000000000000000000610f6a565b905090565b6107ff6116e6565b73ffffffffffffffffffffffffffffffffffffffff1661081d610fa6565b73ffffffffffffffffffffffffffffffffffffffff16146108a6576040517f08c379a00000000000000000000000000000000000000000000000000000000081526004018080602001828103825260208152602001807f4f776e61626c653a2063616c6c6572206973206e6f7420746865206f776e657281525060200191505060405180910390fd5b6108d07f414d4d5f464143544f5259000000000000000000000000000000000000000000826116ee565b50565b6108db6116e6565b73ffffffffffffffffffffffffffffffffffffffff166108f9610fa6565b73ffffffffffffffffffffffffffffffffffffffff1614610982576040517f08c379a00000000000000000000000000000000000000000000000000000000081526004018080602001828103825260208152602001807f4f776e61626c653a2063616c6c6572206973206e6f7420746865206f776e657281525060200191505060405180910390fd5b6109ac7f49565f4755455353455200000000000000000000000000000000000000000000826116ee565b50565b60006109da7f49565f4755455353455200000000000000000000000000000000000000000000610f6a565b905090565b6109e76116e6565b73ffffffffffffffffffffffffffffffffffffffff16610a05610fa6565b73ffffffffffffffffffffffffffffffffffffffff1614610a8e576040517f08c379a00000000000000000000000000000000000000000000000000000000081526004018080602001828103825260208152602001807f4f776e61626c653a2063616c6c6572206973206e6f7420746865206f776e657281525060200191505060405180910390fd5b610ab87f50524943455f50524f5649444552000000000000000000000000000000000000826116ee565b50565b600060026000838152602001908152602001600020549050919050565b610ae06116e6565b73ffffffffffffffffffffffffffffffffffffffff16610afe610fa6565b73ffffffffffffffffffffffffffffffffffffffff1614610b87576040517f08c379a00000000000000000000000000000000000000000000000000000000081526004018080602001828103825260208152602001807f4f776e61626c653a2063616c6c6572206973206e6f7420746865206f776e657281525060200191505060405180910390fd5b610bb17f4f5054494f4e5f48454c50455200000000000000000000000000000000000000826116ee565b50565b6000610bdf7f4341505f50524f56494445520000000000000000000000000000000000000000610f6a565b905090565b610bec6116e6565b73ffffffffffffffffffffffffffffffffffffffff16610c0a610fa6565b73ffffffffffffffffffffffffffffffffffffffff1614610c93576040517f08c379a00000000000000000000000000000000000000000000000000000000081526004018080602001828103825260208152602001807f4f776e61626c653a2063616c6c6572206973206e6f7420746865206f776e657281525060200191505060405180910390fd5b610cbd7f49565f50524f5649444552000000000000000000000000000000000000000000826116ee565b50565b6000610ceb7f49565f50524f5649444552000000000000000000000000000000000000000000610f6a565b905090565b610cf86116e6565b73ffffffffffffffffffffffffffffffffffffffff16610d16610fa6565b73ffffffffffffffffffffffffffffffffffffffff1614610d9f576040517f08c379a00000000000000000000000000000000000000000000000000000000081526004018080602001828103825260208152602001807f4f776e61626c653a2063616c6c6572206973206e6f7420746865206f776e657281525060200191505060405180910390fd5b600073ffffffffffffffffffffffffffffffffffffffff16600160009054906101000a900473ffffffffffffffffffffffffffffffffffffffff1673ffffffffffffffffffffffffffffffffffffffff167f8be0079c531659141344cd1fd0a4f28419497f9722a3daafe3b4186f6b6457e060405160405180910390a36000600160006101000a81548173ffffffffffffffffffffffffffffffffffffffff021916908373ffffffffffffffffffffffffffffffffffffffff160217905550565b610e686116e6565b73ffffffffffffffffffffffffffffffffffffffff16610e86610fa6565b73ffffffffffffffffffffffffffffffffffffffff1614610f0f576040517f08c379a00000000000000000000000000000000000000000000000000000000081526004018080602001828103825260208152602001807f4f776e61626c653a2063616c6c6572206973206e6f7420746865206f776e657281525060200191505060405180910390fd5b8060026000848152602001908152602001600020819055507ff93fd9b81abd6664e36978db24904a722ea8d841c0cc3563aec5e28ce6165a418282604051808381526020018281526020019250505060405180910390a15050565b600080600083815260200190815260200160002060009054906101000a900473ffffffffffffffffffffffffffffffffffffffff169050919050565b6000610fb061182a565b905090565b610fbd6116e6565b73ffffffffffffffffffffffffffffffffffffffff16610fdb610fa6565b73ffffffffffffffffffffffffffffffffffffffff1614611064576040517f08c379a00000000000000000000000000000000000000000000000000000000081526004018080602001828103825260208152602001807f4f776e61626c653a2063616c6c6572206973206e6f7420746865206f776e657281525060200191505060405180910390fd5b61108e7f4f5054494f4e5f464143544f5259000000000000000000000000000000000000826116ee565b50565b6110996116e6565b73ffffffffffffffffffffffffffffffffffffffff166110b7610fa6565b73ffffffffffffffffffffffffffffffffffffffff1614611140576040517f08c379a00000000000000000000000000000000000000000000000000000000081526004018080602001828103825260208152602001807f4f776e61626c653a2063616c6c6572206973206e6f7420746865206f776e657281525060200191505060405180910390fd5b61116a7f454d455247454e43595f53544f50000000000000000000000000000000000000826116ee565b50565b60006111987f414d4d5f464143544f5259000000000000000000000000000000000000000000610f6a565b905090565b6111a56116e6565b73ffffffffffffffffffffffffffffffffffffffff166111c3610fa6565b73ffffffffffffffffffffffffffffffffffffffff161461124c576040517f08c379a00000000000000000000000000000000000000000000000000000000081526004018080602001828103825260208152602001807f4f776e61626c653a2063616c6c6572206973206e6f7420746865206f776e657281525060200191505060405180910390fd5b6112767f50524943494e475f4d4554484f44000000000000000000000000000000000000826116ee565b50565b6112816116e6565b73ffffffffffffffffffffffffffffffffffffffff1661129f610fa6565b73ffffffffffffffffffffffffffffffffffffffff1614611328576040517f08c379a00000000000000000000000000000000000000000000000000000000081526004018080602001828103825260208152602001807f4f776e61626c653a2063616c6c6572206973206e6f7420746865206f776e657281525060200191505060405180910390fd5b6113527f4341505f50524f56494445520000000000000000000000000000000000000000826116ee565b50565b60006113807f50524943494e475f4d4554484f44000000000000000000000000000000000000610f6a565b905090565b60006113b07f4f5054494f4e5f464143544f5259000000000000000000000000000000000000610f6a565b905090565b6113bd6116e6565b73ffffffffffffffffffffffffffffffffffffffff166113db610fa6565b73ffffffffffffffffffffffffffffffffffffffff1614611464576040517f08c379a00000000000000000000000000000000000000000000000000000000081526004018080602001828103825260208152602001807f4f776e61626c653a2063616c6c6572206973206e6f7420746865206f776e657281525060200191505060405180910390fd5b600073ffffffffffffffffffffffffffffffffffffffff168173ffffffffffffffffffffffffffffffffffffffff1614156114ea576040517f08c379a00000000000000000000000000000000000000000000000000000000081526004018080602001828103825260268152602001806118556026913960400191505060405180910390fd5b8073ffffffffffffffffffffffffffffffffffffffff16600160009054906101000a900473ffffffffffffffffffffffffffffffffffffffff1673ffffffffffffffffffffffffffffffffffffffff167f8be0079c531659141344cd1fd0a4f28419497f9722a3daafe3b4186f6b6457e060405160405180910390a380600160006101000a81548173ffffffffffffffffffffffffffffffffffffffff021916908373ffffffffffffffffffffffffffffffffffffffff16021790555050565b60006115d57f4f5054494f4e5f48454c50455200000000000000000000000000000000000000610f6a565b905090565b60006116057f4f5054494f4e5f504f4f4c5f5245474953545259000000000000000000000000610f6a565b905090565b6116126116e6565b73ffffffffffffffffffffffffffffffffffffffff16611630610fa6565b73ffffffffffffffffffffffffffffffffffffffff16146116b9576040517f08c379a00000000000000000000000000000000000000000000000000000000081526004018080602001828103825260208152602001807f4f776e61626c653a2063616c6c6572206973206e6f7420746865206f776e657281525060200191505060405180910390fd5b6116e37f4f5054494f4e5f504f4f4c5f5245474953545259000000000000000000000000826116ee565b50565b600033905090565b600073ffffffffffffffffffffffffffffffffffffffff168173ffffffffffffffffffffffffffffffffffffffff161415611791576040517f08c379a000000000000000000000000000000000000000000000000000000000815260040180806020018281038252601d8152602001807f4d6f64756c6553746f726167653a20496e76616c6964206d6f64756c6500000081525060200191505060405180910390fd5b8060008084815260200190815260200160002060006101000a81548173ffffffffffffffffffffffffffffffffffffffff021916908373ffffffffffffffffffffffffffffffffffffffff1602179055508073ffffffffffffffffffffffffffffffffffffffff16827f0669329f751b07de4aa82f60514a409d0dfaef266e791a4a65a95b07b1c4c32460405160405180910390a35050565b6000600160009054906101000a900473ffffffffffffffffffffffffffffffffffffffff1690509056fe4f776e61626c653a206e6577206f776e657220697320746865207a65726f2061646472657373a2646970667358221220450fc3ce473dba5cffb8c3e28f83480d74b82498a0beb272236812a5d5bb0f1464736f6c634300060c0033",
  "linkReferences": {},
  "deployedLinkReferences": {}
}