{
  "_format": "hh-sol-artifact-1",
  "contractName": "PodsFlashExercise",
  "sourceName": "contracts/PodsFlashExercise.sol",
  "abi": [
    {
      "inputs": [
        {
          "internalType": "bytes32",
          "name": "c__0x66608463",
          "type": "bytes32"
        }
      ],
      "name": "c_0x66608463",
      "outputs": [],
      "stateMutability": "pure",
      "type": "function"
    },
    {
      "inputs": [
        {
          "internalType": "address",
          "name": "_uniswapV2Factory",
          "type": "address"
        },
        {
          "internalType": "address",
          "name": "_option",
          "type": "address"
        },
        {
          "internalType": "uint256",
          "name": "_amount",
          "type": "uint256"
        },
        {
          "internalType": "uint256",
          "name": "_min",
          "type": "uint256"
        }
      ],
      "name": "flashExercise",
      "outputs": [],
      "stateMutability": "nonpayable",
      "type": "function"
    },
    {
      "inputs": [
        {
          "internalType": "address",
          "name": "_uniswapV2Factory",
          "type": "address"
        },
        {
          "internalType": "address",
          "name": "_option",
          "type": "address"
        },
        {
          "internalType": "uint256",
          "name": "_amount",
          "type": "uint256"
        }
      ],
      "name": "getEstimatedProfits",
      "outputs": [
        {
          "internalType": "uint256",
          "name": "",
          "type": "uint256"
        },
        {
          "internalType": "uint256",
          "name": "",
          "type": "uint256"
        }
      ],
      "stateMutability": "view",
      "type": "function"
    },
    {
      "inputs": [
        {
          "internalType": "address",
          "name": "_option",
          "type": "address"
        }
      ],
      "name": "getProfitsAsset",
      "outputs": [
        {
          "internalType": "address",
          "name": "",
          "type": "address"
        }
      ],
      "stateMutability": "view",
      "type": "function"
    },
    {
      "inputs": [
        {
          "internalType": "address",
          "name": "_caller",
          "type": "address"
        },
        {
          "internalType": "uint256",
          "name": "",
          "type": "uint256"
        },
        {
          "internalType": "uint256",
          "name": "",
          "type": "uint256"
        },
        {
          "internalType": "bytes",
          "name": "_data",
          "type": "bytes"
        }
      ],
      "name": "uniswapV2Call",
      "outputs": [],
      "stateMutability": "nonpayable",
      "type": "function"
    },
    {
      "stateMutability": "payable",
      "type": "receive"
    }
  ],
  "bytecode": "0x608060405234801561001057600080fd5b50615f4380620000216000396000f3fe60806040526004361061004e5760003560e01c806310d1e85c146101a15780637fbf67f41461025b578063b630fc1814610296578063ba3beaaa1461031b578063f9c36ced146103b15761019c565b3661019c5761007f7f84d2b250130f386512e7e9622c2561cfa754a1629cc5f2e778f4b3a50be5160860001b61042c565b6100ab7f5b999b9238e826157111d899bf43105294b147858089d2bf75da7eefc7faf35960001b61042c565b600073ffffffffffffffffffffffffffffffffffffffff1660008054906101000a900473ffffffffffffffffffffffffffffffffffffffff1673ffffffffffffffffffffffffffffffffffffffff16141561016e576040517f08c379a000000000000000000000000000000000000000000000000000000000815260040180806020018281038252601a8152602001807f5046452f70617961626c652d6f6e6c792d647572696e672d667300000000000081525060200191505060405180910390fd5b61019a7f52a93d80b572c7ca6abf76f7b29e9febed68227c45574f778b0dd8d4b84f926760001b61042c565b005b600080fd5b3480156101ad57600080fd5b50610259600480360360808110156101c457600080fd5b81019080803573ffffffffffffffffffffffffffffffffffffffff16906020019092919080359060200190929190803590602001909291908035906020019064010000000081111561021557600080fd5b82018360208201111561022757600080fd5b8035906020019184600183028401116401000000008311171561024957600080fd5b909192939192939050505061042f565b005b34801561026757600080fd5b506102946004803603602081101561027e57600080fd5b810190808035906020019092919050505061042c565b005b3480156102a257600080fd5b50610319600480360360808110156102b957600080fd5b81019080803573ffffffffffffffffffffffffffffffffffffffff169060200190929190803573ffffffffffffffffffffffffffffffffffffffff1690602001909291908035906020019092919080359060200190929190505050611448565b005b34801561032757600080fd5b506103946004803603606081101561033e57600080fd5b81019080803573ffffffffffffffffffffffffffffffffffffffff169060200190929190803573ffffffffffffffffffffffffffffffffffffffff1690602001909291908035906020019092919050505061193e565b604051808381526020018281526020019250505060405180910390f35b3480156103bd57600080fd5b50610400600480360360208110156103d457600080fd5b81019080803573ffffffffffffffffffffffffffffffffffffffff169060200190929190505050611c9f565b604051808273ffffffffffffffffffffffffffffffffffffffff16815260200191505060405180910390f35b50565b61045b7fade6895024048c0ac099d34fe66c84e1ce7446810f5a7cd992c229ccfadbe51660001b61042c565b6104877fe1f46bc857c8c92420f89103536360ef0320c10fbc9364a44526fe64cfbec71360001b61042c565b6104b37f943bb8d24518fefc6a0ef20e844d8f2bc891221955884d52b834a5db7307d80a60001b61042c565b6104df7f75387eb2520575baf5493d3258a01d5ba63c037a7859cd1d294a9fcd7b7b970860001b61042c565b3073ffffffffffffffffffffffffffffffffffffffff168573ffffffffffffffffffffffffffffffffffffffff1614610580576040517f08c379a00000000000000000000000000000000000000000000000000000000081526004018080602001828103825260178152602001807f5046452f696e76616c69642d737761702d63616c6c657200000000000000000081525060200191505060405180910390fd5b6105ac7f7f5b6a13ec95c3a52789df36cc1bc43ceb3c0a36cfb905cf76b859599bfa0ee960001b61042c565b6105d87f14c919b4111ab7e1f360abd339513e0772c3d0f45af6aec585947168de105fdb60001b61042c565b6106047fed77251e5e02b87f348e8fa138a35274b3be2fe98c9bac4106f236cc89fcc2b260001b61042c565b6106307f850135754cdf0bc4abfc79f3b8344e47033e61f965bec918bc6f15cb3ca0c78e60001b61042c565b60008054906101000a900473ffffffffffffffffffffffffffffffffffffffff1673ffffffffffffffffffffffffffffffffffffffff163373ffffffffffffffffffffffffffffffffffffffff16146106f1576040517f08c379a000000000000000000000000000000000000000000000000000000000815260040180806020018281038252601b8152602001807f5046452f696e76616c69642d63616c6c6261636b2d63616c6c6572000000000081525060200191505060405180910390fd5b61071d7fd80e5bb18cef4eeccb8993325980e73037495b04a80085085f9c7852418f679060001b61042c565b6107497f13144a8fc08a7293240d5ecfc191f456818abf29f46709a2a69156db60354ea460001b61042c565b6107757f5eedebc49de168267aafba6012963d9508c984a745f1f6dd3f25d380a1f8654260001b61042c565b600080600080600080878760c081101561078e57600080fd5b81019080803573ffffffffffffffffffffffffffffffffffffffff169060200190929190803573ffffffffffffffffffffffffffffffffffffffff169060200190929190803590602001909291908035906020019092919080359060200190929190803590602001909291905050509550955095509550955095506108357f4dc602faea04f61a8d7ea8cbe886a1ea6493704a8174ead54144a1384e724a4d60001b61042c565b6108617fe4961ca507709581dc547f354854e3b1d00a07e422fc801388a384ed78266df360001b61042c565b6000600185146108f1578573ffffffffffffffffffffffffffffffffffffffff166317d69bc86040518163ffffffff1660e01b815260040160206040518083038186803b1580156108b157600080fd5b505afa1580156108c5573d6000803e3d6000fd5b505050506040513d60208110156108db57600080fd5b8101908080519060200190929190505050610973565b8573ffffffffffffffffffffffffffffffffffffffff16637158da7c6040518163ffffffff1660e01b815260040160206040518083038186803b15801561093757600080fd5b505afa15801561094b573d6000803e3d6000fd5b505050506040513d602081101561096157600080fd5b81019080805190602001909291905050505b90506109a17f35f3b07cc4212691765627185a7a101a19f587936dd7e6acdde5943cecb430df60001b61042c565b6109cd7fa71c74a07986d79e60ad9e39aedde918c0b3f1dffc412b9362a8deca762a99c860001b61042c565b6000808614610a5c578673ffffffffffffffffffffffffffffffffffffffff166317d69bc86040518163ffffffff1660e01b815260040160206040518083038186803b158015610a1c57600080fd5b505afa158015610a30573d6000803e3d6000fd5b505050506040513d6020811015610a4657600080fd5b8101908080519060200190929190505050610ade565b8673ffffffffffffffffffffffffffffffffffffffff16637158da7c6040518163ffffffff1660e01b815260040160206040518083038186803b158015610aa257600080fd5b505afa158015610ab6573d6000803e3d6000fd5b505050506040513d6020811015610acc57600080fd5b81019080805190602001909291905050505b9050610b0c7f3509bb9d790a6a6a0ccc4beb1aff3d65ca2de6222c1be233eae7e71ac1fac42e60001b61042c565b610b387f29f03cecddbb481962fe0352d295b2aaeb1bfa5a3f494e6b6b758c0320ca6a9860001b61042c565b8673ffffffffffffffffffffffffffffffffffffffff166323b872dd8930886040518463ffffffff1660e01b8152600401808473ffffffffffffffffffffffffffffffffffffffff1681526020018373ffffffffffffffffffffffffffffffffffffffff1681526020018281526020019350505050602060405180830381600087803b158015610bc757600080fd5b505af1158015610bdb573d6000803e3d6000fd5b505050506040513d6020811015610bf157600080fd5b810190808051906020019092919050505050610c2f7f0f49f1cd057a9f67dde06e21615d0cececeab94d83267d6c4681b238fe63c91460001b61042c565b610c5b7f86ca9256b66ad7b3cd6415baf9d5fb4eabb1b388fb74d4ac6df463dd6e08b10260001b61042c565b8073ffffffffffffffffffffffffffffffffffffffff1663095ea7b388866040518363ffffffff1660e01b8152600401808373ffffffffffffffffffffffffffffffffffffffff16815260200182815260200192505050602060405180830381600087803b158015610ccc57600080fd5b505af1158015610ce0573d6000803e3d6000fd5b505050506040513d6020811015610cf657600080fd5b810190808051906020019092919050505050610d347f5edefa88ff1d5140b09de5d4ce2f0b16232e0cacf5c4f57095af0d8e36b30ccf60001b61042c565b610d5f7ecb374294c8641d924074499a2027c59d60988efa31145be9a8ed37093af1f460001b61042c565b6000479050610d907f60a9fe8e24467afdaf10814170bd3c7ccea3daaa3de120498c43e604889c1f5560001b61042c565b610dbc7f9c2a0246d582bfbf65961d9297108c8aa949d95ed0e204c0767c8073b21aa73660001b61042c565b8773ffffffffffffffffffffffffffffffffffffffff1663b07f0a41876040518263ffffffff1660e01b815260040180828152602001915050600060405180830381600087803b158015610e0f57600080fd5b505af1158015610e23573d6000803e3d6000fd5b50505050610e537f718d00280edbc34f97c49a1467bb88391a5b022e4f2e850459c6e0e95069438760001b61042c565b610e7f7fe15a420160611b9e561b4afd14673a48efb05fc357d0a7913829be433cb4566860001b61042c565b8047111561116057610eb37f55f079f83329470942e78f45e840acd111255cb20695bc40024f365f63f62c2e60001b61042c565b610edf7ff15107a7c7beb1fd8e05ec5e7af969b8dc50eaa5d88041298062e9a9790d8e5d60001b61042c565b610f0b7fa0abbc80eb8b9b44838ba53755085f3012d1c8f22a878ca49a74c334ea9fe3a260001b61042c565b60008873ffffffffffffffffffffffffffffffffffffffff1663c9c667e36040518163ffffffff1660e01b815260040160206040518083038186803b158015610f5357600080fd5b505afa158015610f67573d6000803e3d6000fd5b505050506040513d6020811015610f7d57600080fd5b81019080805190602001909291905050509050610fbc7f9acad17d409cc37b58e194004491c5fcda6245009ad8f7f0065c8ac5526f52b960001b61042c565b610fe87f58e41f6bf38814e5d4d0b3f53a81ec51e83ab55b2c7d5f1035f2e60a25ae9b0d60001b61042c565b600061109e8273ffffffffffffffffffffffffffffffffffffffff16633fdc99596040518163ffffffff1660e01b815260040180807f575241505045445f4e4554574f524b5f544f4b454e0000000000000000000000815250602001905060206040518083038186803b15801561105e57600080fd5b505afa158015611072573d6000803e3d6000fd5b505050506040513d602081101561108857600080fd5b8101908080519060200190929190505050612085565b90506110cc7ffd27ca04b197fd0a03e1a2dfff4e8093d7cb69270271c45203ce45e13e9b9ffa60001b61042c565b6110f87f307a75e28573a99a5d9faf286ff2179bc430e86744428b2064909edcde6d94f960001b61042c565b8073ffffffffffffffffffffffffffffffffffffffff1663d0e30db0476040518263ffffffff1660e01b81526004016000604051808303818588803b15801561114057600080fd5b505af1158015611154573d6000803e3d6000fd5b5050505050505061118d565b61118c7f0d42956a136b4faef08a50a9933a294759b21e6b6856243c561e7642235af36760001b61042c565b5b6111b97fe8efa509550b0c35cec754787729a38ac3fdd38cb6118c4704a6fce94dab07ab60001b61042c565b6111e57f1ead43a838a869ca1dd584782fc7079e3f26da03cad20e63426f13c252be3afe60001b61042c565b8273ffffffffffffffffffffffffffffffffffffffff1663a9059cbb33866040518363ffffffff1660e01b8152600401808373ffffffffffffffffffffffffffffffffffffffff16815260200182815260200192505050602060405180830381600087803b15801561125657600080fd5b505af115801561126a573d6000803e3d6000fd5b505050506040513d602081101561128057600080fd5b8101908080519060200190929190505050506112be7f3df85d05f43f43876ff908a6cdaf14d0a55fa766a5182eed32f41d5e916801a460001b61042c565b6112ea7fc610dcd001d024750f3300a384369e9dcdadd4e9f1388376f6e44d0b9818cac160001b61042c565b8173ffffffffffffffffffffffffffffffffffffffff1663a9059cbb8a8473ffffffffffffffffffffffffffffffffffffffff166370a08231306040518263ffffffff1660e01b8152600401808273ffffffffffffffffffffffffffffffffffffffff16815260200191505060206040518083038186803b15801561136e57600080fd5b505afa158015611382573d6000803e3d6000fd5b505050506040513d602081101561139857600080fd5b81019080805190602001909291905050506040518363ffffffff1660e01b8152600401808373ffffffffffffffffffffffffffffffffffffffff16815260200182815260200192505050602060405180830381600087803b1580156113fc57600080fd5b505af1158015611410573d6000803e3d6000fd5b505050506040513d602081101561142657600080fd5b8101908080519060200190929190505050505050505050505050505050505050565b6114747f021d5b379b48a77a9b90bb71bd4d2868163f7cb3a2aec490cbfa8e93f7133bd960001b61042c565b6114a07f5b8657e09d30b0bf4a5babf9c1aedef9213621dd53222e543cb490fafc4b2bda60001b61042c565b6114cc7fa9df94ed7385dba1e99a407441fbb600ae8bb09008e455ede651628ff136ad1960001b61042c565b60008390506114fd7f2cfd269cb1b52380cf47cf6ee7479cd307aa8caac56a7420369b05b7a2adc3d860001b61042c565b6115297f9735ee11f212b5669caaae6f349101f8b002809835aa2df809aa46fd461a190e60001b61042c565b6115557fc26cd245a486ce84da7d095600b46a2eefc2dd6f8fe6addf2c8de5c5e2d7cbad60001b61042c565b8073ffffffffffffffffffffffffffffffffffffffff16630d6cd8aa6040518163ffffffff1660e01b815260040160206040518083038186803b15801561159b57600080fd5b505afa1580156115af573d6000803e3d6000fd5b505050506040513d60208110156115c557600080fd5b8101908080519060200190929190505050611648576040517f08c379a00000000000000000000000000000000000000000000000000000000081526004018080602001828103825260178152602001807f5046452f6e6f742d65786572636973652d77696e646f7700000000000000000081525060200191505060405180910390fd5b6116747f28e669ecedc690f2c01b8ed65a10065941f03ec87f17eab0b60308819bd7a71c60001b61042c565b6116a07f2a4ac5d805c29bd4959b879d7b70bdffd6a6a4af7e04b3f34d00b9452fe633df60001b61042c565b6116cc7f0b87bbe44968795511ddbc3ea77a8d6b2914b791a2146117c1f856a021195f1660001b61042c565b60008173ffffffffffffffffffffffffffffffffffffffff1663ffd9eedb6040518163ffffffff1660e01b815260040160206040518083038186803b15801561171457600080fd5b505afa158015611728573d6000803e3d6000fd5b505050506040513d602081101561173e57600080fd5b8101908080519060200190929190505050905061177d7f3e4625c905451339afef8e95771383074e2d0728a350a98ba99bc20a99dd4cb360001b61042c565b6117a97fae59bfc62b3630a2e963e64c57fa8e0b12a7565c8461954675c22f84adbdfdfa60001b61042c565b60008690506117da7fddcb63f0b7c5e23203cc22051b8996264e73445adf8800865cc99f76e9aaf7ff60001b61042c565b6118067ff4f62be91b2db5d92075482d62cc3c7040cab3e298e0ab6b275f4d2be456bedc60001b61042c565b60008214156118a45761183b7f2390ec58ee50e2f8694f5b51d53c7d364a7dc2c09170d9d02bb9177bb554f2f260001b61042c565b6118677fb6e7f795cce787341951d72080570d1a7082673e7668cb3d628e808ce35460d060001b61042c565b6118937fad6a0f992ea2632c477433fe5ab4df161099a01a5515d5f477be639864ea6cda60001b61042c565b61189f81848787612213565b611935565b6118d07f692feb6e305425a0df7d1e99ee90ccefa60c0f2544c08161faf68fbf6def64b960001b61042c565b6118fc7ffe9010118caaa2b644b6763dd7bbd0d70f4b114c00a3f8f2cb04ccffcd78732e60001b61042c565b6119287f9c68cc53d7f5120d8dad99ac024fc67e17386f0018f17fdf360e0b099071c8da60001b61042c565b611934818487876132d0565b5b50505050505050565b60008061196d7f38018f05d6bc5bdd78e22ef6c683d30cf7dc59b5376ef12de302addf67869c9a60001b61042c565b6119997fb6f59435eb0f99efb10866e6b0b084f4f673fd3ab5a33d9a40d87c718d50ce9060001b61042c565b6119c57f2203edab7c93aa5deeba32d92bfcac83b174121c4779b572fd22bc44b37a534260001b61042c565b60008490506119f67f92d905ac551a6538fa315cf385705ddf30662d1ea2baac452041674cf96b2d1260001b61042c565b611a227f9fea20c5b10e32fc878231f093e274ff1548d0e7c1db4bc3a7c9ea856e9c5a8260001b61042c565b6000869050611a537f3ff0923a274c8bd00ecd19c46707d58d0edd9dd48d98fa3320016789ef496c5160001b61042c565b611a7f7f0e4eb76f4d1ba351872279f1f07f38967b2de30f18ce52b566192530f2c5da9e60001b61042c565b60008273ffffffffffffffffffffffffffffffffffffffff1663ffd9eedb6040518163ffffffff1660e01b815260040160206040518083038186803b158015611ac757600080fd5b505afa158015611adb573d6000803e3d6000fd5b505050506040513d6020811015611af157600080fd5b81019080805190602001909291905050509050611b307f1d9aaf4ebf64bb768b88351b153a68f3fc0f27e53e462873bbc65f40843d67cc60001b61042c565b611b5c7f5c6e2f4e24a05a97ac28705d43f801840970482792e0f5ea628ead8a4fe1e7e660001b61042c565b6000811415611c0057611b917fe54f3634354aa21f2179b656b66fc1a91095290373e7f16a5e90408de5519c5f60001b61042c565b611bbd7ff7973778673088fe10f0c64990c68740045728d47e373aa8bf17e2521a38277260001b61042c565b611be97fd6b9afbe9cf8627faa59c801cff639c23f842b2d5e1d52c38131f7d1247663d760001b61042c565b611bf482848861438d565b94509450505050611c97565b611c2c7f88be013dce69550a4a1769c1a4b4657339d9323ddff7c893f4d8982f85fe409a60001b61042c565b611c587fa1cf8a4f59d699020a0641e36e0a26dedceb38eea17806e44ac319f59c1ac76960001b61042c565b611c847fee1ee008d226608849ce7da1594abc544fd9cffd05bfe2b168485afc22bfc9d960001b61042c565b611c8f828488614db6565b945094505050505b935093915050565b6000611ccd7f0e16ed3ea498dfa240f55a54bffaaa618d170bb46815b2571008e46703e8f3da60001b61042c565b611cf97fa560ca5b46f3d89a9e880bc7158d98a19f34e7d27835db3d2b48003c591985c560001b61042c565b611d257f68796fc599ff37e773a4be87a790ffe743b7776fb393b834e167daa85611cd9660001b61042c565b6000829050611d567f29b3931692a302ffdbf142fd8bf65014d625a1acd1ae4905de3da667b618772860001b61042c565b611d827fd15d60366e390e6836927a605a35d642c79cd73979bedf51ed71a2064e4c11ea60001b61042c565b60008173ffffffffffffffffffffffffffffffffffffffff1663ffd9eedb6040518163ffffffff1660e01b815260040160206040518083038186803b158015611dca57600080fd5b505afa158015611dde573d6000803e3d6000fd5b505050506040513d6020811015611df457600080fd5b81019080805190602001909291905050509050611e337f8033c0ea7121dbaf636399b65beed972855dac72e17633b7d3ea3425dbcb029a60001b61042c565b611e5f7f33e7b4cce45238f38c3a0dfae10b4e0a866b4f43f4b3b951b0ca42369668f2e360001b61042c565b6000811415611f7657611e947f52e614e0dfe4196a064bb939c2e1b49c51af1742fb7c19425514a6b25e7b69ea60001b61042c565b611ec07fe12c287d4333677306ade799230d3f1e4917f69bcdb7e59d8075a57b649e9a7660001b61042c565b611eec7f9566314638e60a4426b6ef9931e26c530f1ed83609f955d110480c4f509899bf60001b61042c565b8173ffffffffffffffffffffffffffffffffffffffff16637158da7c6040518163ffffffff1660e01b815260040160206040518083038186803b158015611f3257600080fd5b505afa158015611f46573d6000803e3d6000fd5b505050506040513d6020811015611f5c57600080fd5b810190808051906020019092919050505092505050612080565b611fa27ff2aaa59b145570a5cb17ba668ca51c82083e91481f25957c73339010bb21bbd960001b61042c565b611fce7f05eb8b945043c371f22b10e35bcc14b98c4c47be2534216fbd95315b3fe0b6ef60001b61042c565b611ffa7fff60a1623cc0d5c12e303387ea33952657313acdb5e229d5f644936d6db1bc5e60001b61042c565b8173ffffffffffffffffffffffffffffffffffffffff166317d69bc86040518163ffffffff1660e01b815260040160206040518083038186803b15801561204057600080fd5b505afa158015612054573d6000803e3d6000fd5b505050506040513d602081101561206a57600080fd5b8101908080519060200190929190505050925050505b919050565b60006120b37fe63bafb2df4c2cda9c24a1c04a653767d0dafa16e6b01e8558199771825df49060001b61042c565b6120df7fd107966b542b0e95225db1a4a3c40503d562eca7d931607326ef4ab97930333b60001b61042c565b61210b7f7224ab56c1eb68d7a553d8d99f27c50aa82669c3bb900f9931e6cd3909aa106f60001b61042c565b6060602067ffffffffffffffff8111801561212557600080fd5b506040519080825280601f01601f1916602001820160405280156121585781602001600182028036833780820191505090505b5090506121877f5e01ee90971fafa4e7df470bdb9610cf763ff6d3fa8e2c041affe3b1d774a17160001b61042c565b8260208201526121b97fa01f12b995bb0710ee09efef95f805b54a1b675fff7797a4144980329061b82b60001b61042c565b6121e57faf10e77f1c7ac44feb820b58c0ddae6a5c2fb69e7e4ac9893b7d92eab14dbc6560001b61042c565b8080602001905160208110156121fa57600080fd5b8101908080519060200190929190505050915050919050565b61223f7fa70abfda60393ac4160478dffb155a4edfde34e14ba3f15d19af03813d4bd07c60001b61042c565b61226b7f015d55e5eab813d146848f9da1dee1ed8e567829504ea9def74ef0c14a2b909a60001b61042c565b6122977fdcf4c6a1c2513524aa7083ef6edda3a0cf3ddcec5441d7a0158270097cdc212360001b61042c565b60008473ffffffffffffffffffffffffffffffffffffffff1663e6a439058573ffffffffffffffffffffffffffffffffffffffff16637158da7c6040518163ffffffff1660e01b815260040160206040518083038186803b1580156122fb57600080fd5b505afa15801561230f573d6000803e3d6000fd5b505050506040513d602081101561232557600080fd5b81019080805190602001909291905050508673ffffffffffffffffffffffffffffffffffffffff166317d69bc86040518163ffffffff1660e01b815260040160206040518083038186803b15801561237c57600080fd5b505afa158015612390573d6000803e3d6000fd5b505050506040513d60208110156123a657600080fd5b81019080805190602001909291905050506040518363ffffffff1660e01b8152600401808373ffffffffffffffffffffffffffffffffffffffff1681526020018273ffffffffffffffffffffffffffffffffffffffff1681526020019250505060206040518083038186803b15801561241e57600080fd5b505afa158015612432573d6000803e3d6000fd5b505050506040513d602081101561244857600080fd5b810190808051906020019092919050505090506124877f645bb0954234bbb6a1ff710bd81f519b31a925018a60adeafaf09614c737669d60001b61042c565b6124b37fac78ec87b91f1d5ee9ffe61ce91266d6001e305ea598e0836a187696994b732060001b61042c565b6124df7fe5c00be8b862524e9c47d368549121fe002d4d049a353e5acd50c4f85c63ad6660001b61042c565b600073ffffffffffffffffffffffffffffffffffffffff168173ffffffffffffffffffffffffffffffffffffffff161415612582576040517f08c379a00000000000000000000000000000000000000000000000000000000081526004018080602001828103825260158152602001807f5046452f6e6f2d706f6f6c2d617661696c61626c65000000000000000000000081525060200191505060405180910390fd5b6125ae7fed0f969253f127f2411482180e701cc527b908506528824c14d240e32b72f32b60001b61042c565b6125da7fa7862a9a7b237b918c2d822228fc163fba1500639598d96146f05d61ea8da2ec60001b61042c565b6126067f8d7ae7b50a15119f416e641c8422238975c64476924672f1bb88df21c680332560001b61042c565b6000808273ffffffffffffffffffffffffffffffffffffffff16630902f1ac6040518163ffffffff1660e01b815260040160606040518083038186803b15801561264f57600080fd5b505afa158015612663573d6000803e3d6000fd5b505050506040513d606081101561267957600080fd5b81019080805190602001909291908051906020019092919080519060200190929190505050506dffffffffffffffffffffffffffff1691506dffffffffffffffffffffffffffff1691506126ef7f37f657eb101adb62c5ed9b2dbd4887eda5d3d418c7ca84dc0e8d033875f78dd260001b61042c565b61271b7fbf7c0eccc781d01ed89d2dee368641226aea167eef23c80d69b355c7b389057a60001b61042c565b60008673ffffffffffffffffffffffffffffffffffffffff1663a09263c2876040518263ffffffff1660e01b81526004018082815260200191505060206040518083038186803b15801561276e57600080fd5b505afa158015612782573d6000803e3d6000fd5b505050506040513d602081101561279857600080fd5b810190808051906020019092919050505090506127d77fa4f7d25914e8b66f400286cd207bb7f7d989042286b3f5fe1422371a7070ca0d60001b61042c565b6128037f11a0ba42c6e008ef1bb6d201ce71535aba61a752002c640b808d111764b486c960001b61042c565b836000806101000a81548173ffffffffffffffffffffffffffffffffffffffff021916908373ffffffffffffffffffffffffffffffffffffffff16021790555061286f7f725dc16314cc89a77e2669a7879868fb2b9508522d65cea5ebfbcfa97d92040960001b61042c565b61289b7f3f19297b02280c1aa07f3a6c64256c69c95ccbf562f43481ef2e89d55ce2685660001b61042c565b6000612b40828973ffffffffffffffffffffffffffffffffffffffff166317d69bc86040518163ffffffff1660e01b815260040160206040518083038186803b1580156128e757600080fd5b505afa1580156128fb573d6000803e3d6000fd5b505050506040513d602081101561291157600080fd5b810190808051906020019092919050505073ffffffffffffffffffffffffffffffffffffffff168773ffffffffffffffffffffffffffffffffffffffff16630dfe16816040518163ffffffff1660e01b815260040160206040518083038186803b15801561297e57600080fd5b505afa158015612992573d6000803e3d6000fd5b505050506040513d60208110156129a857600080fd5b810190808051906020019092919050505073ffffffffffffffffffffffffffffffffffffffff16146129da57846129dc565b855b6fffffffffffffffffffffffffffffffff168a73ffffffffffffffffffffffffffffffffffffffff166317d69bc86040518163ffffffff1660e01b815260040160206040518083038186803b158015612a3457600080fd5b505afa158015612a48573d6000803e3d6000fd5b505050506040513d6020811015612a5e57600080fd5b810190808051906020019092919050505073ffffffffffffffffffffffffffffffffffffffff168873ffffffffffffffffffffffffffffffffffffffff16630dfe16816040518163ffffffff1660e01b815260040160206040518083038186803b158015612acb57600080fd5b505afa158015612adf573d6000803e3d6000fd5b505050506040513d6020811015612af557600080fd5b810190808051906020019092919050505073ffffffffffffffffffffffffffffffffffffffff1614612b275786612b29565b855b6fffffffffffffffffffffffffffffffff166157df565b9050612b6e7fe291bc4a66b994bcf062bb42094758cc54d26b4e20715dc9272324a182ab0fe560001b61042c565b612b9a7f59b895884c481dc55c9fc9f2a0c23de4fab5b733563ce802a66f13eb9927a40560001b61042c565b6060338960008a8b87604051602001808773ffffffffffffffffffffffffffffffffffffffff1681526020018673ffffffffffffffffffffffffffffffffffffffff16815260200185815260200184815260200183815260200182815260200196505050505050506040516020818303038152906040529050612c3f7f9880b49c0d3e7952a84676498b1480b44fe324b927a041524df23217abd6664560001b61042c565b612c6b7f2bf2cb115e4512987c4baa51cb3995d7b71a497723eb47e40223026fc2853f9e60001b61042c565b612c977ffe6a286efbc491000e08ce7224c5ebbc072a9a0f246c789f89636cd408171b8a60001b61042c565b86821015612d0d576040517f08c379a00000000000000000000000000000000000000000000000000000000081526004018080602001828103825260158152602001807f5046452f736c6970706167652d746f6f2d68696768000000000000000000000081525060200191505060405180910390fd5b612d397f31f5d10d95a4ad93ca0337a2a29e98cf0aaae5aaf2c0794bc6326e67da99485460001b61042c565b612d657fb61910239a5f223062ee067ab790c27f70a73fbdce6c60cd0c74cab3cb9be58160001b61042c565b612d917fc8975bff5b31462b0376f299ef19cc2be468daa96582592231f7b620ca7ea67960001b61042c565b612dbd7f2e327816cae131750b285b72b6d0bf7faa0ff313742cc6d92662aa5aa657398f60001b61042c565b87821015612e33576040517f08c379a00000000000000000000000000000000000000000000000000000000081526004018080602001828103825260128152602001807f5046452f626f72726f772d746f6f2d6c6f77000000000000000000000000000081525060200191505060405180910390fd5b612e5f7fe409669628812f4506794159b074a23e422d4e48cc75c1a521f0e5c8fa865c5f60001b61042c565b612e8b7fb8583589ca881e09fa8c6fabb9ac76dee4b3ce155ccc6200f7c596cd2efec05760001b61042c565b612eb77f855e93ac8ede814cb550a91ee6ceab687929e561659f4f5bc1b03e40de964dca60001b61042c565b8573ffffffffffffffffffffffffffffffffffffffff1663022c0d9f8a73ffffffffffffffffffffffffffffffffffffffff166317d69bc86040518163ffffffff1660e01b815260040160206040518083038186803b158015612f1957600080fd5b505afa158015612f2d573d6000803e3d6000fd5b505050506040513d6020811015612f4357600080fd5b810190808051906020019092919050505073ffffffffffffffffffffffffffffffffffffffff168873ffffffffffffffffffffffffffffffffffffffff16630dfe16816040518163ffffffff1660e01b815260040160206040518083038186803b158015612fb057600080fd5b505afa158015612fc4573d6000803e3d6000fd5b505050506040513d6020811015612fda57600080fd5b810190808051906020019092919050505073ffffffffffffffffffffffffffffffffffffffff161461300c578361300f565b60005b8b73ffffffffffffffffffffffffffffffffffffffff166317d69bc86040518163ffffffff1660e01b815260040160206040518083038186803b15801561305557600080fd5b505afa158015613069573d6000803e3d6000fd5b505050506040513d602081101561307f57600080fd5b810190808051906020019092919050505073ffffffffffffffffffffffffffffffffffffffff168973ffffffffffffffffffffffffffffffffffffffff16630dfe16816040518163ffffffff1660e01b815260040160206040518083038186803b1580156130ec57600080fd5b505afa158015613100573d6000803e3d6000fd5b505050506040513d602081101561311657600080fd5b810190808051906020019092919050505073ffffffffffffffffffffffffffffffffffffffff161461314957600061314b565b845b30856040518563ffffffff1660e01b8152600401808581526020018481526020018373ffffffffffffffffffffffffffffffffffffffff16815260200180602001828103825283818151815260200191508051906020019080838360005b838110156131c45780820151818401526020810190506131a9565b50505050905090810190601f1680156131f15780820380516001836020036101000a031916815260200191505b5095505050505050600060405180830381600087803b15801561321357600080fd5b505af1158015613227573d6000803e3d6000fd5b505050506132577f3f26097ae786c1d296c17fe5bb044fd6f5a982c656043959a11cbedf61edfdb860001b61042c565b6132837f6a12394000ab045c15a3a37d14ff35e783c180ea0f4e2beaadfa919594104f9760001b61042c565b60008060006101000a81548173ffffffffffffffffffffffffffffffffffffffff021916908373ffffffffffffffffffffffffffffffffffffffff16021790555050505050505050505050565b6132fc7f79e4a0947fa6717be5258fa688d35fa95380ab7ee9211c54941956e19e052ea560001b61042c565b6133287f3111f685d92759a9dc38169f4af95bb53cadc7cd0794e4e9ec0aca78117fa8f160001b61042c565b6133547f582902b1bea530de14db4b916e00a01e9d1f1d4d0779d1d50edcb1839e3955e560001b61042c565b60008473ffffffffffffffffffffffffffffffffffffffff1663e6a439058573ffffffffffffffffffffffffffffffffffffffff16637158da7c6040518163ffffffff1660e01b815260040160206040518083038186803b1580156133b857600080fd5b505afa1580156133cc573d6000803e3d6000fd5b505050506040513d60208110156133e257600080fd5b81019080805190602001909291905050508673ffffffffffffffffffffffffffffffffffffffff166317d69bc86040518163ffffffff1660e01b815260040160206040518083038186803b15801561343957600080fd5b505afa15801561344d573d6000803e3d6000fd5b505050506040513d602081101561346357600080fd5b81019080805190602001909291905050506040518363ffffffff1660e01b8152600401808373ffffffffffffffffffffffffffffffffffffffff1681526020018273ffffffffffffffffffffffffffffffffffffffff1681526020019250505060206040518083038186803b1580156134db57600080fd5b505afa1580156134ef573d6000803e3d6000fd5b505050506040513d602081101561350557600080fd5b810190808051906020019092919050505090506135447f746ea92b405f256c6593797c0f5110216a641b374b7235a0b56d82062638531860001b61042c565b6135707f9ff9aa4b7efa0afc8852e060dbb2fc88c27212e446da45533cd8a94d464fbb1960001b61042c565b61359c7f85c6e1bf3408f9abdaa1bafb022d06d86b757c90c4dab426cbdee5ff2757d84460001b61042c565b600073ffffffffffffffffffffffffffffffffffffffff168173ffffffffffffffffffffffffffffffffffffffff16141561363f576040517f08c379a00000000000000000000000000000000000000000000000000000000081526004018080602001828103825260158152602001807f5046452f6e6f2d706f6f6c2d617661696c61626c65000000000000000000000081525060200191505060405180910390fd5b61366b7f1b94ffecab7ea592a7122da18c0edb8c6b3ff1c5f11cca466dcde7c8271af53260001b61042c565b6136977faf61e193f9bfe0b54cb1245dc5c93be8d2af4889d9b9ab5a69fcac0f2af2411e60001b61042c565b6136c37f139505bfa97b948fd92c480b3c5b9a79a20737cfd940016707b8a8247f21094460001b61042c565b6000808273ffffffffffffffffffffffffffffffffffffffff16630902f1ac6040518163ffffffff1660e01b815260040160606040518083038186803b15801561370c57600080fd5b505afa158015613720573d6000803e3d6000fd5b505050506040513d606081101561373657600080fd5b81019080805190602001909291908051906020019092919080519060200190929190505050506dffffffffffffffffffffffffffff1691506dffffffffffffffffffffffffffff1691506137ac7f9fe30a400aefe21a389b666169d621f2bc28456dd614ccd8b62d2a1c80d5d81b60001b61042c565b6137d87fbb7d486dd2d8dac6df22530ef795f0981e1e692b551535fee800b0582269825a60001b61042c565b60008673ffffffffffffffffffffffffffffffffffffffff1663a09263c2876040518263ffffffff1660e01b81526004018082815260200191505060206040518083038186803b15801561382b57600080fd5b505afa15801561383f573d6000803e3d6000fd5b505050506040513d602081101561385557600080fd5b810190808051906020019092919050505090506138947f2f58ac17075a271fa1b4629be6cab87bd5302d3a2e60a2095503cfc484f6c48f60001b61042c565b6138c07f6d02642d3bc40668c9555c9831fa4b36b864db5056333298e4dce98521fab1c260001b61042c565b836000806101000a81548173ffffffffffffffffffffffffffffffffffffffff021916908373ffffffffffffffffffffffffffffffffffffffff16021790555061392c7f57c3398db0d2c61f080d24f0273d0492782589bf47c8ae1317177174d834dc2d60001b61042c565b6139587f7e7ee1a63c6204994b7b582c5e3ba56c4626218bcb0643c86af33bafb621124960001b61042c565b6000613bfd878973ffffffffffffffffffffffffffffffffffffffff166317d69bc86040518163ffffffff1660e01b815260040160206040518083038186803b1580156139a457600080fd5b505afa1580156139b8573d6000803e3d6000fd5b505050506040513d60208110156139ce57600080fd5b810190808051906020019092919050505073ffffffffffffffffffffffffffffffffffffffff168773ffffffffffffffffffffffffffffffffffffffff16630dfe16816040518163ffffffff1660e01b815260040160206040518083038186803b158015613a3b57600080fd5b505afa158015613a4f573d6000803e3d6000fd5b505050506040513d6020811015613a6557600080fd5b810190808051906020019092919050505073ffffffffffffffffffffffffffffffffffffffff1614613a975785613a99565b845b6fffffffffffffffffffffffffffffffff168a73ffffffffffffffffffffffffffffffffffffffff166317d69bc86040518163ffffffff1660e01b815260040160206040518083038186803b158015613af157600080fd5b505afa158015613b05573d6000803e3d6000fd5b505050506040513d6020811015613b1b57600080fd5b810190808051906020019092919050505073ffffffffffffffffffffffffffffffffffffffff168873ffffffffffffffffffffffffffffffffffffffff16630dfe16816040518163ffffffff1660e01b815260040160206040518083038186803b158015613b8857600080fd5b505afa158015613b9c573d6000803e3d6000fd5b505050506040513d6020811015613bb257600080fd5b810190808051906020019092919050505073ffffffffffffffffffffffffffffffffffffffff1614613be45785613be6565b865b6fffffffffffffffffffffffffffffffff166157df565b9050613c2b7ffa4b4a1a536c171daaad1058b6f602556192b070a6babd60a0aa3a0a82910d4760001b61042c565b613c577ffb253ace9bd22e25338c2ce906537f162c605ef9a3a6f5de0b8c481540a7774460001b61042c565b6060338960018a868c604051602001808773ffffffffffffffffffffffffffffffffffffffff1681526020018673ffffffffffffffffffffffffffffffffffffffff16815260200185815260200184815260200183815260200182815260200196505050505050506040516020818303038152906040529050613cfc7fc1d660e82b6bc62682399c20eabeee2fa34d6e63eebf367b36d1877d098aea7760001b61042c565b613d287f0d2829850f7f3c248027334f302b25a277af899afa44fdeecf8d52c0801715d360001b61042c565b613d547f2bba66b48e38467f7bba5c55f73d47dde6860995860faa2f7db8610170bc110960001b61042c565b86821015613dca576040517f08c379a00000000000000000000000000000000000000000000000000000000081526004018080602001828103825260158152602001807f5046452f736c6970706167652d746f6f2d68696768000000000000000000000081525060200191505060405180910390fd5b613df67f89123fdd030e611e5020c11f6fb2573fc32130bc0c6a920737948d4ef26ca9b160001b61042c565b613e227fbaedf371d1df4e93d729083c6786774edf203cbb997410a627f4fb8de823307860001b61042c565b613e4e7f14ce5f0856e4be6ffd2cd34a701bf1845731d8a9065f36259f1baa70622ad0a260001b61042c565b613e7a7f8ebc98e536e5073356579a2e20ee6951291b8e4cce0856dead5de5d0e2ffc55360001b61042c565b82821015613ef0576040517f08c379a00000000000000000000000000000000000000000000000000000000081526004018080602001828103825260128152602001807f5046452f626f72726f772d746f6f2d6c6f77000000000000000000000000000081525060200191505060405180910390fd5b613f1c7fb4b1b95874cf570b0f2912cd20f57ada59cd1db1e78be78fd6af1cd56e627b3260001b61042c565b613f487fa12cf79db5a5ffe227c8890d7360eb7903a1a81e3d38c6b75c4562ebac59c80e60001b61042c565b613f747f0398b59a2848c537f04ffd8d802301615803c9e3c4b11d8a953d3397d4e3c2a260001b61042c565b8573ffffffffffffffffffffffffffffffffffffffff1663022c0d9f8a73ffffffffffffffffffffffffffffffffffffffff166317d69bc86040518163ffffffff1660e01b815260040160206040518083038186803b158015613fd657600080fd5b505afa158015613fea573d6000803e3d6000fd5b505050506040513d602081101561400057600080fd5b810190808051906020019092919050505073ffffffffffffffffffffffffffffffffffffffff168873ffffffffffffffffffffffffffffffffffffffff16630dfe16816040518163ffffffff1660e01b815260040160206040518083038186803b15801561406d57600080fd5b505afa158015614081573d6000803e3d6000fd5b505050506040513d602081101561409757600080fd5b810190808051906020019092919050505073ffffffffffffffffffffffffffffffffffffffff16146140ca5760006140cc565b835b8b73ffffffffffffffffffffffffffffffffffffffff166317d69bc86040518163ffffffff1660e01b815260040160206040518083038186803b15801561411257600080fd5b505afa158015614126573d6000803e3d6000fd5b505050506040513d602081101561413c57600080fd5b810190808051906020019092919050505073ffffffffffffffffffffffffffffffffffffffff168973ffffffffffffffffffffffffffffffffffffffff16630dfe16816040518163ffffffff1660e01b815260040160206040518083038186803b1580156141a957600080fd5b505afa1580156141bd573d6000803e3d6000fd5b505050506040513d60208110156141d357600080fd5b810190808051906020019092919050505073ffffffffffffffffffffffffffffffffffffffff16146142055784614208565b60005b30856040518563ffffffff1660e01b8152600401808581526020018481526020018373ffffffffffffffffffffffffffffffffffffffff16815260200180602001828103825283818151815260200191508051906020019080838360005b83811015614281578082015181840152602081019050614266565b50505050905090810190601f1680156142ae5780820380516001836020036101000a031916815260200191505b5095505050505050600060405180830381600087803b1580156142d057600080fd5b505af11580156142e4573d6000803e3d6000fd5b505050506143147fb6a121145e4890928292e2060223df90c5c87c712fc0803e099bd50d1e9bd99e60001b61042c565b6143407fceb154bdd3d3c3e1aee604a5bf3985d223e5f6ec1db286ee11ae5c82fb54318c60001b61042c565b60008060006101000a81548173ffffffffffffffffffffffffffffffffffffffff021916908373ffffffffffffffffffffffffffffffffffffffff16021790555050505050505050505050565b6000806143bc7fe4133763bac4d8be0f14631680199490b151c49dec666071b3d51d4a3b34c54060001b61042c565b6143e87fcf73b7bd920001ea68accf6e80a718368a8867f7c0488b98c332e9ab2ce63c2560001b61042c565b6144147f601b3e078d46c9562bce8b6c6790705583de15dfd5d61ffbc6e3562aac6c3eb560001b61042c565b60008573ffffffffffffffffffffffffffffffffffffffff1663e6a439058673ffffffffffffffffffffffffffffffffffffffff16637158da7c6040518163ffffffff1660e01b815260040160206040518083038186803b15801561447857600080fd5b505afa15801561448c573d6000803e3d6000fd5b505050506040513d60208110156144a257600080fd5b81019080805190602001909291905050508773ffffffffffffffffffffffffffffffffffffffff166317d69bc86040518163ffffffff1660e01b815260040160206040518083038186803b1580156144f957600080fd5b505afa15801561450d573d6000803e3d6000fd5b505050506040513d602081101561452357600080fd5b81019080805190602001909291905050506040518363ffffffff1660e01b8152600401808373ffffffffffffffffffffffffffffffffffffffff1681526020018273ffffffffffffffffffffffffffffffffffffffff1681526020019250505060206040518083038186803b15801561459b57600080fd5b505afa1580156145af573d6000803e3d6000fd5b505050506040513d60208110156145c557600080fd5b810190808051906020019092919050505090506146047f19dfc1823b8c11dc5b05b80b2a559d0f24c4338b000b96efb33d2d6c981f04d960001b61042c565b6146307fda76371926547621a7485d062cdf9325145f2d97836458f9975249526544d2cc60001b61042c565b61465c7ff4ce318f74b84b05f234aac8a08e4eb9a600a15063ba36e3f96f6288f604e87c60001b61042c565b600073ffffffffffffffffffffffffffffffffffffffff168173ffffffffffffffffffffffffffffffffffffffff1614156146ff576040517f08c379a00000000000000000000000000000000000000000000000000000000081526004018080602001828103825260158152602001807f5046452f6e6f2d706f6f6c2d617661696c61626c65000000000000000000000081525060200191505060405180910390fd5b61472b7fe18288156ff59fb3704cbd8186c51be2ba6f356737d7f755904cf9b08b69750260001b61042c565b6147577f3b0cf2c5131594b2ea21287a13c2be8e78149020fe3556fb7cf5a33b40be52d760001b61042c565b6147837f01dd8ae8c751830a7c49908375d6b49b88c5a661fce227948aa900ba85b7af4560001b61042c565b6000808273ffffffffffffffffffffffffffffffffffffffff16630902f1ac6040518163ffffffff1660e01b815260040160606040518083038186803b1580156147cc57600080fd5b505afa1580156147e0573d6000803e3d6000fd5b505050506040513d60608110156147f657600080fd5b81019080805190602001909291908051906020019092919080519060200190929190505050506dffffffffffffffffffffffffffff1691506dffffffffffffffffffffffffffff16915061486c7f2d6e7eece33d7245546081f2facb52fd5ab2a1e05b0c022dd6dcd7602fbeed5e60001b61042c565b6148987f549146bc8ab8b2f2e75d5365d43385906689e2808d4ad5a50e4b783903a5fa7260001b61042c565b60008773ffffffffffffffffffffffffffffffffffffffff1663a09263c2886040518263ffffffff1660e01b81526004018082815260200191505060206040518083038186803b1580156148eb57600080fd5b505afa1580156148ff573d6000803e3d6000fd5b505050506040513d602081101561491557600080fd5b810190808051906020019092919050505090506149547f208fbf1e329f31026ef2d1fcc811e2956d4ba0255fed45a1f45c003a8841316f60001b61042c565b6149807f08b573c83b17b2b467d76370e76490ae44e7d71352812da10efac6a16362223060001b61042c565b6000614c25828a73ffffffffffffffffffffffffffffffffffffffff166317d69bc86040518163ffffffff1660e01b815260040160206040518083038186803b1580156149cc57600080fd5b505afa1580156149e0573d6000803e3d6000fd5b505050506040513d60208110156149f657600080fd5b810190808051906020019092919050505073ffffffffffffffffffffffffffffffffffffffff168773ffffffffffffffffffffffffffffffffffffffff16630dfe16816040518163ffffffff1660e01b815260040160206040518083038186803b158015614a6357600080fd5b505afa158015614a77573d6000803e3d6000fd5b505050506040513d6020811015614a8d57600080fd5b810190808051906020019092919050505073ffffffffffffffffffffffffffffffffffffffff1614614abf5784614ac1565b855b6fffffffffffffffffffffffffffffffff168b73ffffffffffffffffffffffffffffffffffffffff166317d69bc86040518163ffffffff1660e01b815260040160206040518083038186803b158015614b1957600080fd5b505afa158015614b2d573d6000803e3d6000fd5b505050506040513d6020811015614b4357600080fd5b810190808051906020019092919050505073ffffffffffffffffffffffffffffffffffffffff168873ffffffffffffffffffffffffffffffffffffffff16630dfe16816040518163ffffffff1660e01b815260040160206040518083038186803b158015614bb057600080fd5b505afa158015614bc4573d6000803e3d6000fd5b505050506040513d6020811015614bda57600080fd5b810190808051906020019092919050505073ffffffffffffffffffffffffffffffffffffffff1614614c0c5786614c0e565b855b6fffffffffffffffffffffffffffffffff166157df565b9050614c537f4a06d30f05b8bbf8dca2f1167a61831ca780ce9ea06f8f9573e18bca1179048760001b61042c565b614c7f7f80f8f854b729a0f233479a99ac543f4d872e471b3e4909a191b956a82479519560001b61042c565b87811115614d1d57614cb37f355a3812dadabe398caa6f853e82e41d44b734612755e9d9da0cfb51ad13da8660001b61042c565b614cdf7ff8b3375ae7e5c526a9373c607b2715c29db0b88f8b33de36983f7ae4a750b9ab60001b61042c565b614d0b7f49f4fe17c356534c38b8860c61920793417fa50d701778b15e03b8358a1b0eb660001b61042c565b80888203965096505050505050614dae565b614d497f04dfe23c40c9d6e27996d7270fbd1e03da70959bf81c0284becfce5a628e6e1560001b61042c565b614d757f6291b85268d0f33fcbcc7d6cb623b5ee3bf61e9f05e6a32aca51179a5756161c60001b61042c565b614da17f733511078219f8ebc7a349e6f3d5891be9b4b6f8d71ed58fa6c40ff78ce96c3760001b61042c565b8060009650965050505050505b935093915050565b600080614de57f1c6c065ad0fa17b5951eba932c61706277692ead1809b79e2a90183fc457ca6360001b61042c565b614e117f2fb0da353958900cfa60f4b7dd352ea85e7f9e806634ab1405704c37f671767960001b61042c565b614e3d7fc052d61b8e11eb26b2a19d04a83df717aaf23a2088a742e9662d75679c676e8360001b61042c565b60008573ffffffffffffffffffffffffffffffffffffffff1663e6a439058673ffffffffffffffffffffffffffffffffffffffff16637158da7c6040518163ffffffff1660e01b815260040160206040518083038186803b158015614ea157600080fd5b505afa158015614eb5573d6000803e3d6000fd5b505050506040513d6020811015614ecb57600080fd5b81019080805190602001909291905050508773ffffffffffffffffffffffffffffffffffffffff166317d69bc86040518163ffffffff1660e01b815260040160206040518083038186803b158015614f2257600080fd5b505afa158015614f36573d6000803e3d6000fd5b505050506040513d6020811015614f4c57600080fd5b81019080805190602001909291905050506040518363ffffffff1660e01b8152600401808373ffffffffffffffffffffffffffffffffffffffff1681526020018273ffffffffffffffffffffffffffffffffffffffff1681526020019250505060206040518083038186803b158015614fc457600080fd5b505afa158015614fd8573d6000803e3d6000fd5b505050506040513d6020811015614fee57600080fd5b8101908080519060200190929190505050905061502d7f926c47449b057746dd98974c94d8a72d2194a515c65ebaf8d90908a605b8f14260001b61042c565b6150597fa14618b8ee98d67b024a6d66cc90ba9718eb5406f77945ee9b9376b5d8a4d1bd60001b61042c565b6150857f41831cf192a06334d788d23776934102555e93eff6bb81e3601bf2fcd3fd1aaa60001b61042c565b600073ffffffffffffffffffffffffffffffffffffffff168173ffffffffffffffffffffffffffffffffffffffff161415615128576040517f08c379a00000000000000000000000000000000000000000000000000000000081526004018080602001828103825260158152602001807f5046452f6e6f2d706f6f6c2d617661696c61626c65000000000000000000000081525060200191505060405180910390fd5b6151547f5f95d423ec533e2513ee00b3b241aeebe45bfe0dacd5166d55644d80d8c4d78660001b61042c565b6151807f3535eb17bdd70f830c3b72c9317881eb7d5575d6c06f37565408bee75ce42ae660001b61042c565b6151ac7f2c51286ad410475b08ca3e5c88161caf75083dcb1b17ef244e76d66b3f25fe3560001b61042c565b6000808273ffffffffffffffffffffffffffffffffffffffff16630902f1ac6040518163ffffffff1660e01b815260040160606040518083038186803b1580156151f557600080fd5b505afa158015615209573d6000803e3d6000fd5b505050506040513d606081101561521f57600080fd5b81019080805190602001909291908051906020019092919080519060200190929190505050506dffffffffffffffffffffffffffff1691506dffffffffffffffffffffffffffff1691506152957f85d5275f724c74dc9d4252cf83b8327b0261b40801864dbb29e42406c94002c460001b61042c565b6152c17fc6c068649f179c4c4d9699199791f7cae8f4f6e03f177aeaf7ce148ad4812bfb60001b61042c565b60008773ffffffffffffffffffffffffffffffffffffffff1663a09263c2886040518263ffffffff1660e01b81526004018082815260200191505060206040518083038186803b15801561531457600080fd5b505afa158015615328573d6000803e3d6000fd5b505050506040513d602081101561533e57600080fd5b8101908080519060200190929190505050905061537d7ffea0587d45d378d526dc8a8d247c3b9b0c9b36b8f773731954e70b21883b244e60001b61042c565b6153a97f695c716c40fe3f4f48ea240acb870ea96702e44ef4ede384c171ba357178b25260001b61042c565b600061564e888a73ffffffffffffffffffffffffffffffffffffffff166317d69bc86040518163ffffffff1660e01b815260040160206040518083038186803b1580156153f557600080fd5b505afa158015615409573d6000803e3d6000fd5b505050506040513d602081101561541f57600080fd5b810190808051906020019092919050505073ffffffffffffffffffffffffffffffffffffffff168773ffffffffffffffffffffffffffffffffffffffff16630dfe16816040518163ffffffff1660e01b815260040160206040518083038186803b15801561548c57600080fd5b505afa1580156154a0573d6000803e3d6000fd5b505050506040513d60208110156154b657600080fd5b810190808051906020019092919050505073ffffffffffffffffffffffffffffffffffffffff16146154e857856154ea565b845b6fffffffffffffffffffffffffffffffff168b73ffffffffffffffffffffffffffffffffffffffff166317d69bc86040518163ffffffff1660e01b815260040160206040518083038186803b15801561554257600080fd5b505afa158015615556573d6000803e3d6000fd5b505050506040513d602081101561556c57600080fd5b810190808051906020019092919050505073ffffffffffffffffffffffffffffffffffffffff168873ffffffffffffffffffffffffffffffffffffffff16630dfe16816040518163ffffffff1660e01b815260040160206040518083038186803b1580156155d957600080fd5b505afa1580156155ed573d6000803e3d6000fd5b505050506040513d602081101561560357600080fd5b810190808051906020019092919050505073ffffffffffffffffffffffffffffffffffffffff16146156355785615637565b865b6fffffffffffffffffffffffffffffffff166157df565b905061567c7ff232253511c3ce630ed44710a07c3d7c2dbedaa3a9ce9cf28bab40fc7cbbc72b60001b61042c565b6156a87f0f4ddad3c7959926e9358c9762aa5a493fc3509cad9951e6296dc5b8564263f760001b61042c565b81811115615746576156dc7f9f99a9f60a89484366320428b7c6d9df7e0615624c7f20d74e6efcccc55b27f960001b61042c565b6157087facea952e2944b61f11de7d7c745ec51695adcea2255a8977b21c89fa2cacbbd460001b61042c565b6157347fc811ff49bda78552597a33399e46588b67db3c67d43bda9664724eea8a19dde660001b61042c565b808282039650965050505050506157d7565b6157727f3cd1dba2ce36bdf16f380ede4163644521f2721313c62621f09032867c26ae9a60001b61042c565b61579e7fc032b31363b5f8a8a0551cd17871894bcbd27239232e167fc8729d10062faadd60001b61042c565b6157ca7f78f85b8922938783399c0637059e520ad19c3c86157e80da5a6a4f470b7aa06c60001b61042c565b8060009650965050505050505b935093915050565b600061580d7f4fafc7e67137d68dee415c52e30b575328dc9208c409c01b1b392eddd8bc5f2360001b615c36565b6158397fd1f76e99087dc6ed0e3a0da365d93058fe65c53c62fa29dd24174fffee42d07560001b615c36565b6158657f12490becd2e7db3b236e2ceefe19e0029d07fdbb3f89e25bb5a12264d6ff25cf60001b615c36565b6158917f42d6b16e149a5b1266edb07ef64ebba3adf08e02b3d158ce63c519ca27905a0760001b615c36565b60008411615907576040517f08c379a00000000000000000000000000000000000000000000000000000000081526004018080602001828103825260198152602001807f494e53554646494349454e545f494e5055545f414d4f554e540000000000000081525060200191505060405180910390fd5b6159337f214cf7568f81fc837bbe9f912abfc5b906b56f4f649a3a653d1fea38c76e441660001b615c36565b61595f7f29187f2566a67bacd58d9a2d92c9362eaedc1c60827ef8ffb977e9cacf2ecbf260001b615c36565b61598b7fd6fe52247437d59931cb4919dd9c260a31b3b42b5f14f5df992d51287166aaeb60001b615c36565b6159b77f3106780c9c1dcde9169fae19394afadc64227fd0e4cdc648cf813547bae0253260001b615c36565b6000831180156159c75750600082115b615a39576040517f08c379a00000000000000000000000000000000000000000000000000000000081526004018080602001828103825260168152602001807f494e53554646494349454e545f4c49515549444954590000000000000000000081525060200191505060405180910390fd5b615a657ff4161b0c1b56a78975caa99db9a10bcee731ef88da2777fafd310930cd76970f60001b615c36565b615a917f51c7fc9784307920d4d1ba3343210fc5fac988baf76b2c89fc07103dfb0f6bb260001b615c36565b615abd7f653b56d33048564fe6fbddf06ddc031a03ee0359f52aad1c7418982799acb49960001b615c36565b6000615ad46103e586615c3990919063ffffffff16565b9050615b027fcfe5e41096f5b2788bc9cc40f9b8e2f0f584ced4a4c47cd8c718e69372b5c55860001b615c36565b615b2e7f2215ec956db188fa9ae5a32dc9b2565c4b28605c8d9007b12f5416a8c50c7cea60001b615c36565b6000615b438483615c3990919063ffffffff16565b9050615b717fcaea2a0565522e54bfd22b7b44ff0159ea01ced010b56b193ae4bbc6284df40460001b615c36565b615b9d7fed235dc220e8e96fa80add9553c4ea55ece690b81312114d769382f6f716f71f60001b615c36565b6000615bc683615bb86103e889615c3990919063ffffffff16565b615dab90919063ffffffff16565b9050615bf47f999f96c92560be0ff218179561669f3b484384ff5e25f407591c088b48b2d31360001b615c36565b615c207f3e1d7c7561ef54121b9bfeeeae1d2862dd5f4bc6f959bc7ee5ef65e02a34352660001b615c36565b808281615c2957fe5b0493505050509392505050565b50565b6000615c677f2e7dc860e599d569f609ecc7907c272ad54dbfe1646b767304688ff058ec30af60001b615f0a565b615c937f6f3acba9fab8c47a06fdd39798eae1bd8ced45ade8c05b07384032e1d6ac0fc860001b615f0a565b615cbf7f659c50a264d2b8497e4d963d78daad5638db750e4cd98e3b408cbe5b1df80beb60001b615f0a565b615ceb7fe00218b45743ca7308a6ccac9617e3897b25aa47bf670e74b882f37d6158846060001b615f0a565b6000821480615d075750828283850292508281615d0457fe5b04145b615d79576040517f08c379a00000000000000000000000000000000000000000000000000000000081526004018080602001828103825260148152602001807f64732d6d6174682d6d756c2d6f766572666c6f7700000000000000000000000081525060200191505060405180910390fd5b615da57f565b5e7d6ec29eed2a0add933f46d7fd2fd0f23c9ae7e9874fa75e032795b99660001b615f0a565b92915050565b6000615dd97f0571dda5e5fe93507ebbaff27761fb0b7b3e1559a5c51f7c4ea6e23b929b066560001b615f0a565b615e057fb4093f8777b7f97735eb75fa1e1b84548c98193ba0953af5c5ee634d6977f77960001b615f0a565b615e317f8ff085d9082a7353c04380100ccc053a44425e054fdb1ee7cc4d71bf7ebac44860001b615f0a565b615e5d7f5af0c3b7882424a30a45cd0380e90bad06e51ae5cca6d4b1f645328556b47b8960001b615f0a565b828284019150811015615ed8576040517f08c379a00000000000000000000000000000000000000000000000000000000081526004018080602001828103825260148152602001807f64732d6d6174682d6164642d6f766572666c6f7700000000000000000000000081525060200191505060405180910390fd5b615f047f5745b5e5188c70d311a9f1a6c010f68f415604726e2ca408eb3fbb064e2cb56060001b615f0a565b92915050565b5056fea2646970667358221220f5ba100d1f3859d0920fea62b43471944940af6dc1bfca8aa765d0ca5140847d64736f6c634300060c0033",
  "linkReferences": {},
  "deployedLinkReferences": {}
}