{
  "_format": "hh-sol-artifact-1",
  "contractName": "WPodPutMock",
  "sourceName": "contracts/mocks/WPodPutMock.sol",
  "abi": [
    {
      "inputs": [
        {
          "internalType": "string",
          "name": "name",
          "type": "string"
        },
        {
          "internalType": "string",
          "name": "symbol",
          "type": "string"
        },
        {
          "internalType": "enum IPodOption.ExerciseType",
          "name": "exerciseType",
          "type": "uint8"
        },
        {
          "internalType": "address",
          "name": "strikeAsset",
          "type": "address"
        },
        {
          "internalType": "uint256",
          "name": "strikePrice",
          "type": "uint256"
        },
        {
          "internalType": "uint256",
          "name": "expiration",
          "type": "uint256"
        },
        {
          "internalType": "uint256",
          "name": "exerciseWindowSize",
          "type": "uint256"
        },
        {
          "internalType": "contract IConfigurationManager",
          "name": "configurationManager",
          "type": "address"
        }
      ],
      "stateMutability": "nonpayable",
      "type": "constructor"
    },
    {
      "anonymous": false,
      "inputs": [
        {
          "indexed": true,
          "internalType": "address",
          "name": "owner",
          "type": "address"
        },
        {
          "indexed": true,
          "internalType": "address",
          "name": "spender",
          "type": "address"
        },
        {
          "indexed": false,
          "internalType": "uint256",
          "name": "value",
          "type": "uint256"
        }
      ],
      "name": "Approval",
      "type": "event"
    },
    {
      "anonymous": false,
      "inputs": [
        {
          "indexed": true,
          "internalType": "address",
          "name": "exerciser",
          "type": "address"
        },
        {
          "indexed": false,
          "internalType": "uint256",
          "name": "amount",
          "type": "uint256"
        }
      ],
      "name": "Exercise",
      "type": "event"
    },
    {
      "anonymous": false,
      "inputs": [
        {
          "indexed": true,
          "internalType": "address",
          "name": "minter",
          "type": "address"
        },
        {
          "indexed": false,
          "internalType": "uint256",
          "name": "amount",
          "type": "uint256"
        }
      ],
      "name": "Mint",
      "type": "event"
    },
    {
      "anonymous": false,
      "inputs": [
        {
          "indexed": true,
          "internalType": "address",
          "name": "sender",
          "type": "address"
        },
        {
          "indexed": false,
          "internalType": "uint256",
          "name": "value",
          "type": "uint256"
        }
      ],
      "name": "Received",
      "type": "event"
    },
    {
      "anonymous": false,
      "inputs": [
        {
          "indexed": true,
          "internalType": "address",
          "name": "from",
          "type": "address"
        },
        {
          "indexed": true,
          "internalType": "address",
          "name": "to",
          "type": "address"
        },
        {
          "indexed": false,
          "internalType": "uint256",
          "name": "value",
          "type": "uint256"
        }
      ],
      "name": "Transfer",
      "type": "event"
    },
    {
      "anonymous": false,
      "inputs": [
        {
          "indexed": true,
          "internalType": "address",
          "name": "minter",
          "type": "address"
        },
        {
          "indexed": false,
          "internalType": "uint256",
          "name": "optionAmount",
          "type": "uint256"
        },
        {
          "indexed": false,
          "internalType": "uint256",
          "name": "strikeAmount",
          "type": "uint256"
        },
        {
          "indexed": false,
          "internalType": "uint256",
          "name": "underlyingAmount",
          "type": "uint256"
        }
      ],
      "name": "Unmint",
      "type": "event"
    },
    {
      "anonymous": false,
      "inputs": [
        {
          "indexed": true,
          "internalType": "address",
          "name": "minter",
          "type": "address"
        },
        {
          "indexed": false,
          "internalType": "uint256",
          "name": "strikeAmount",
          "type": "uint256"
        },
        {
          "indexed": false,
          "internalType": "uint256",
          "name": "underlyingAmount",
          "type": "uint256"
        }
      ],
      "name": "Withdraw",
      "type": "event"
    },
    {
      "inputs": [],
      "name": "MIN_EXERCISE_WINDOW_SIZE",
      "outputs": [
        {
          "internalType": "uint256",
          "name": "",
          "type": "uint256"
        }
      ],
      "stateMutability": "view",
      "type": "function"
    },
    {
      "inputs": [
        {
          "internalType": "address",
          "name": "owner",
          "type": "address"
        },
        {
          "internalType": "address",
          "name": "spender",
          "type": "address"
        }
      ],
      "name": "allowance",
      "outputs": [
        {
          "internalType": "uint256",
          "name": "",
          "type": "uint256"
        }
      ],
      "stateMutability": "view",
      "type": "function"
    },
    {
      "inputs": [
        {
          "internalType": "address",
          "name": "spender",
          "type": "address"
        },
        {
          "internalType": "uint256",
          "name": "amount",
          "type": "uint256"
        }
      ],
      "name": "approve",
      "outputs": [
        {
          "internalType": "bool",
          "name": "",
          "type": "bool"
        }
      ],
      "stateMutability": "nonpayable",
      "type": "function"
    },
    {
      "inputs": [
        {
          "internalType": "address",
          "name": "account",
          "type": "address"
        }
      ],
      "name": "balanceOf",
      "outputs": [
        {
          "internalType": "uint256",
          "name": "",
          "type": "uint256"
        }
      ],
      "stateMutability": "view",
      "type": "function"
    },
    {
      "inputs": [
        {
          "internalType": "bytes32",
          "name": "c__0x22fafd0a",
          "type": "bytes32"
        }
      ],
      "name": "c_0x22fafd0a",
      "outputs": [],
      "stateMutability": "pure",
      "type": "function"
    },
    {
      "inputs": [],
      "name": "capSize",
      "outputs": [
        {
          "internalType": "uint256",
          "name": "",
          "type": "uint256"
        }
      ],
      "stateMutability": "view",
      "type": "function"
    },
    {
      "inputs": [],
      "name": "configurationManager",
      "outputs": [
        {
          "internalType": "contract IConfigurationManager",
          "name": "",
          "type": "address"
        }
      ],
      "stateMutability": "view",
      "type": "function"
    },
    {
      "inputs": [],
      "name": "decimals",
      "outputs": [
        {
          "internalType": "uint8",
          "name": "",
          "type": "uint8"
        }
      ],
      "stateMutability": "view",
      "type": "function"
    },
    {
      "inputs": [
        {
          "internalType": "address",
          "name": "spender",
          "type": "address"
        },
        {
          "internalType": "uint256",
          "name": "subtractedValue",
          "type": "uint256"
        }
      ],
      "name": "decreaseAllowance",
      "outputs": [
        {
          "internalType": "bool",
          "name": "",
          "type": "bool"
        }
      ],
      "stateMutability": "nonpayable",
      "type": "function"
    },
    {
      "inputs": [
        {
          "internalType": "uint256",
          "name": "amountOfOptions",
          "type": "uint256"
        }
      ],
      "name": "exercise",
      "outputs": [],
      "stateMutability": "nonpayable",
      "type": "function"
    },
    {
      "inputs": [],
      "name": "exerciseEth",
      "outputs": [],
      "stateMutability": "payable",
      "type": "function"
    },
    {
      "inputs": [],
      "name": "exerciseType",
      "outputs": [
        {
          "internalType": "enum IPodOption.ExerciseType",
          "name": "",
          "type": "uint8"
        }
      ],
      "stateMutability": "view",
      "type": "function"
    },
    {
      "inputs": [],
      "name": "expiration",
      "outputs": [
        {
          "internalType": "uint256",
          "name": "",
          "type": "uint256"
        }
      ],
      "stateMutability": "view",
      "type": "function"
    },
    {
      "inputs": [
        {
          "internalType": "address",
          "name": "owner",
          "type": "address"
        }
      ],
      "name": "getSellerWithdrawAmounts",
      "outputs": [
        {
          "internalType": "uint256",
          "name": "strikeAmount",
          "type": "uint256"
        },
        {
          "internalType": "uint256",
          "name": "underlyingAmount",
          "type": "uint256"
        }
      ],
      "stateMutability": "view",
      "type": "function"
    },
    {
      "inputs": [],
      "name": "hasExpired",
      "outputs": [
        {
          "internalType": "bool",
          "name": "",
          "type": "bool"
        }
      ],
      "stateMutability": "view",
      "type": "function"
    },
    {
      "inputs": [
        {
          "internalType": "address",
          "name": "spender",
          "type": "address"
        },
        {
          "internalType": "uint256",
          "name": "addedValue",
          "type": "uint256"
        }
      ],
      "name": "increaseAllowance",
      "outputs": [
        {
          "internalType": "bool",
          "name": "",
          "type": "bool"
        }
      ],
      "stateMutability": "nonpayable",
      "type": "function"
    },
    {
      "inputs": [],
      "name": "isExerciseWindow",
      "outputs": [
        {
          "internalType": "bool",
          "name": "",
          "type": "bool"
        }
      ],
      "stateMutability": "view",
      "type": "function"
    },
    {
      "inputs": [],
      "name": "isTradeWindow",
      "outputs": [
        {
          "internalType": "bool",
          "name": "",
          "type": "bool"
        }
      ],
      "stateMutability": "view",
      "type": "function"
    },
    {
      "inputs": [],
      "name": "isWithdrawWindow",
      "outputs": [
        {
          "internalType": "bool",
          "name": "",
          "type": "bool"
        }
      ],
      "stateMutability": "view",
      "type": "function"
    },
    {
      "inputs": [
        {
          "internalType": "uint256",
          "name": "amountOfOptions",
          "type": "uint256"
        },
        {
          "internalType": "address",
          "name": "owner",
          "type": "address"
        }
      ],
      "name": "mint",
      "outputs": [],
      "stateMutability": "nonpayable",
      "type": "function"
    },
    {
      "inputs": [
        {
          "internalType": "address",
          "name": "",
          "type": "address"
        }
      ],
      "name": "mintedOptions",
      "outputs": [
        {
          "internalType": "uint256",
          "name": "",
          "type": "uint256"
        }
      ],
      "stateMutability": "view",
      "type": "function"
    },
    {
      "inputs": [],
      "name": "name",
      "outputs": [
        {
          "internalType": "string",
          "name": "",
          "type": "string"
        }
      ],
      "stateMutability": "view",
      "type": "function"
    },
    {
      "inputs": [],
      "name": "optionType",
      "outputs": [
        {
          "internalType": "enum IPodOption.OptionType",
          "name": "",
          "type": "uint8"
        }
      ],
      "stateMutability": "view",
      "type": "function"
    },
    {
      "inputs": [
        {
          "internalType": "address",
          "name": "",
          "type": "address"
        }
      ],
      "name": "shares",
      "outputs": [
        {
          "internalType": "uint256",
          "name": "",
          "type": "uint256"
        }
      ],
      "stateMutability": "view",
      "type": "function"
    },
    {
      "inputs": [],
      "name": "startOfExerciseWindow",
      "outputs": [
        {
          "internalType": "uint256",
          "name": "",
          "type": "uint256"
        }
      ],
      "stateMutability": "view",
      "type": "function"
    },
    {
      "inputs": [],
      "name": "strikeAsset",
      "outputs": [
        {
          "internalType": "address",
          "name": "",
          "type": "address"
        }
      ],
      "stateMutability": "view",
      "type": "function"
    },
    {
      "inputs": [],
      "name": "strikeAssetDecimals",
      "outputs": [
        {
          "internalType": "uint8",
          "name": "",
          "type": "uint8"
        }
      ],
      "stateMutability": "view",
      "type": "function"
    },
    {
      "inputs": [],
      "name": "strikePrice",
      "outputs": [
        {
          "internalType": "uint256",
          "name": "",
          "type": "uint256"
        }
      ],
      "stateMutability": "view",
      "type": "function"
    },
    {
      "inputs": [],
      "name": "strikePriceDecimals",
      "outputs": [
        {
          "internalType": "uint8",
          "name": "",
          "type": "uint8"
        }
      ],
      "stateMutability": "view",
      "type": "function"
    },
    {
      "inputs": [],
      "name": "strikeReserves",
      "outputs": [
        {
          "internalType": "uint256",
          "name": "",
          "type": "uint256"
        }
      ],
      "stateMutability": "view",
      "type": "function"
    },
    {
      "inputs": [
        {
          "internalType": "uint256",
          "name": "amountOfOptions",
          "type": "uint256"
        }
      ],
      "name": "strikeToTransfer",
      "outputs": [
        {
          "internalType": "uint256",
          "name": "",
          "type": "uint256"
        }
      ],
      "stateMutability": "view",
      "type": "function"
    },
    {
      "inputs": [],
      "name": "symbol",
      "outputs": [
        {
          "internalType": "string",
          "name": "",
          "type": "string"
        }
      ],
      "stateMutability": "view",
      "type": "function"
    },
    {
      "inputs": [],
      "name": "totalShares",
      "outputs": [
        {
          "internalType": "uint256",
          "name": "",
          "type": "uint256"
        }
      ],
      "stateMutability": "view",
      "type": "function"
    },
    {
      "inputs": [],
      "name": "totalSupply",
      "outputs": [
        {
          "internalType": "uint256",
          "name": "",
          "type": "uint256"
        }
      ],
      "stateMutability": "view",
      "type": "function"
    },
    {
      "inputs": [
        {
          "internalType": "address",
          "name": "recipient",
          "type": "address"
        },
        {
          "internalType": "uint256",
          "name": "amount",
          "type": "uint256"
        }
      ],
      "name": "transfer",
      "outputs": [
        {
          "internalType": "bool",
          "name": "",
          "type": "bool"
        }
      ],
      "stateMutability": "nonpayable",
      "type": "function"
    },
    {
      "inputs": [
        {
          "internalType": "address",
          "name": "sender",
          "type": "address"
        },
        {
          "internalType": "address",
          "name": "recipient",
          "type": "address"
        },
        {
          "internalType": "uint256",
          "name": "amount",
          "type": "uint256"
        }
      ],
      "name": "transferFrom",
      "outputs": [
        {
          "internalType": "bool",
          "name": "",
          "type": "bool"
        }
      ],
      "stateMutability": "nonpayable",
      "type": "function"
    },
    {
      "inputs": [],
      "name": "underlyingAsset",
      "outputs": [
        {
          "internalType": "address",
          "name": "",
          "type": "address"
        }
      ],
      "stateMutability": "view",
      "type": "function"
    },
    {
      "inputs": [],
      "name": "underlyingAssetDecimals",
      "outputs": [
        {
          "internalType": "uint8",
          "name": "",
          "type": "uint8"
        }
      ],
      "stateMutability": "view",
      "type": "function"
    },
    {
      "inputs": [],
      "name": "underlyingReserves",
      "outputs": [
        {
          "internalType": "uint256",
          "name": "",
          "type": "uint256"
        }
      ],
      "stateMutability": "view",
      "type": "function"
    },
    {
      "inputs": [
        {
          "internalType": "uint256",
          "name": "amountOfOptions",
          "type": "uint256"
        }
      ],
      "name": "unmint",
      "outputs": [],
      "stateMutability": "nonpayable",
      "type": "function"
    },
    {
      "inputs": [],
      "name": "withdraw",
      "outputs": [],
      "stateMutability": "nonpayable",
      "type": "function"
    },
    {
      "stateMutability": "payable",
      "type": "receive"
    }
  ],
  "bytecode": "0x6101c060405260006009553480156200001757600080fd5b50604051620052263803806200522683398181016040526101008110156200003e57600080fd5b81019080805160405193929190846401000000008211156200005f57600080fd5b838201915060208201858111156200007657600080fd5b82518660018202830111640100000000821117156200009457600080fd5b8083526020830192505050908051906020019080838360005b83811015620000ca578082015181840152602081019050620000ad565b50505050905090810190601f168015620000f85780820380516001836020036101000a031916815260200191505b50604052602001805160405193929190846401000000008211156200011c57600080fd5b838201915060208201858111156200013357600080fd5b82518660018202830111640100000000821117156200015157600080fd5b8083526020830192505050908051906020019080838360005b83811015620001875780820151818401526020810190506200016a565b50505050905090810190601f168015620001b55780820380516001836020036101000a031916815260200191505b506040526020018051906020019092919080519060200190929190805190602001909291908051906020019092919080519060200190929190805190602001909291905050508787878787878787878787620002c58473ffffffffffffffffffffffffffffffffffffffff16633fdc99596040518163ffffffff1660e01b815260040180807f575241505045445f4e4554574f524b5f544f4b454e0000000000000000000000815250602001905060206040518083038186803b1580156200027c57600080fd5b505afa15801562000291573d6000803e3d6000fd5b505050506040513d6020811015620002a857600080fd5b81019080805190602001909291905050506200086a60201b60201c565b88888888888888600089898989898989808a8a8160039080519060200190620002f092919062000bde565b5080600490805190602001906200030992919062000bde565b506012600560006101000a81548160ff021916908360ff16021790555050508073ffffffffffffffffffffffffffffffffffffffff1660808173ffffffffffffffffffffffffffffffffffffffff1660601b81525050506200037686620008f360201b620020ee1760201c565b620003cd576040517f08c379a000000000000000000000000000000000000000000000000000000000815260040180806020018281038252602d815260200180620051ad602d913960400191505060405180910390fd5b620003e385620008f360201b620020ee1760201c565b6200043a576040517f08c379a0000000000000000000000000000000000000000000000000000000008152600401808060200182810382526029815260200180620051da6029913960400191505060405180910390fd5b8473ffffffffffffffffffffffffffffffffffffffff168673ffffffffffffffffffffffffffffffffffffffff161415620004c1576040517f08c379a00000000000000000000000000000000000000000000000000000000081526004018080602001828103825260388152602001806200506c6038913960400191505060405180910390fd5b4283116200051b576040517f08c379a000000000000000000000000000000000000000000000000000000000815260040180806020018281038252602d81526020018062005148602d913960400191505060405180910390fd5b6000841162000576576040517f08c379a0000000000000000000000000000000000000000000000000000000008152600401808060200182810382526031815260200180620050d96031913960400191505060405180910390fd5b600060018111156200058457fe5b8760018111156200059157fe5b14156200061c5762015180821015620005f6576040517f08c379a000000000000000000000000000000000000000000000000000000000815260040180806020018281038252603e8152602001806200510a603e913960400191505060405180910390fd5b6200061082846200090660201b620021011790919060201c565b6006819055506200067f565b6000821462000677576040517f08c379a0000000000000000000000000000000000000000000000000000000008152600401808060200182810382526035815260200180620050a46035913960400191505060405180910390fd5b426006819055505b8073ffffffffffffffffffffffffffffffffffffffff1660e08173ffffffffffffffffffffffffffffffffffffffff1660601b81525050876001811115620006c357fe5b60a0816001811115620006d257fe5b60f81b81525050866001811115620006e657fe5b60c0816001811115620006f557fe5b60f81b81525050826101a081815250508573ffffffffffffffffffffffffffffffffffffffff166101008173ffffffffffffffffffffffffffffffffffffffff1660601b815250508473ffffffffffffffffffffffffffffffffffffffff166101408173ffffffffffffffffffffffffffffffffffffffff1660601b81525050600062000788876200098a60201b60201c565b90508060ff166101208160ff1660f81b81525050620007ad866200098a60201b60201c565b60ff166101608160ff1660f81b81525050846101808181525050620007d88162000bbd60201b60201c565b50505050505050505050505050505050505050505050505050505050620008287fb5abc369a3ea1a9e540f07bd23281eeefaa21d9071c43680ab0bd03a2bdd35d860001b62000bdb60201b60201c565b6200085c7fc2aacbda2ad988c9e9edb7fd7f48cb2c5032defb309290340d83541232ef0d5960001b62000bdb60201b60201c565b505050505050505062000c84565b60006060602067ffffffffffffffff811180156200088757600080fd5b506040519080825280601f01601f191660200182016040528015620008bb5781602001600182028036833780820191505090505b509050826020820152808060200190516020811015620008da57600080fd5b8101908080519060200190929190505050915050919050565b600080823b905060008111915050919050565b6000828211156200097f576040517f08c379a000000000000000000000000000000000000000000000000000000000815260040180806020018281038252601e8152602001807f536166654d6174683a207375627472616374696f6e206f766572666c6f77000081525060200191505060405180910390fd5b818303905092915050565b600060606040516024016040516020818303038152906040527f313ce567000000000000000000000000000000000000000000000000000000007bffffffffffffffffffffffffffffffffffffffffffffffffffffffff19166020820180517bffffffffffffffffffffffffffffffffffffffffffffffffffffffff83818316178352505050509050600060608473ffffffffffffffffffffffffffffffffffffffff16836040518082805190602001908083835b6020831062000a64578051825260208201915060208101905060208303925062000a3f565b6001836020036101000a038019825116818451168082178552505050505050905001915050600060405180830381855afa9150503d806000811462000ac6576040519150601f19603f3d011682016040523d82523d6000602084013e62000acb565b606091505b50915091508162000b28576040517f08c379a0000000000000000000000000000000000000000000000000000000008152600401808060200182810382526023815260200180620052036023913960400191505060405180910390fd5b600081806020019051602081101562000b4057600080fd5b8101908080519060200190929190505050905060268160ff161062000bb1576040517f08c379a0000000000000000000000000000000000000000000000000000000008152600401808060200182810382526038815260200180620051756038913960400191505060405180910390fd5b80945050505050919050565b80600560006101000a81548160ff021916908360ff16021790555050565b50565b828054600181600116156101000203166002900490600052602060002090601f016020900481019282601f1062000c2157805160ff191683800117855562000c52565b8280016001018555821562000c52579182015b8281111562000c5157825182559160200191906001019062000c34565b5b50905062000c61919062000c65565b5090565b5b8082111562000c8057600081600090555060010162000c66565b5090565b60805160601c60a05160f81c60c05160f81c60e05160601c6101005160601c6101205160f81c6101405160601c6101605160f81c610180516101a05161432262000d4a6000398061166852806132f9525080611e4152806121bb528061300752806130ba52806139d45280613a2e5250806112955280611e1952508061118a5280611888525080611b6f5250806118605280611fd9525080611e675250806120a25280612d8e5250806120ca5280612fbf528061398b5250806112d552506143226000f3fe6080604052600436106102495760003560e01c806370a0823111610139578063a9059cbb116100b6578063ce7c2ac21161007a578063ce7c2ac214610ce9578063dd62ed3e14610d4e578063e1aef23f14610dd3578063f18a6b7814610e3f578063f3eb8cab14610e6a578063ffd9eedb14610ea0576103a2565b8063a9059cbb14610ba3578063b07f0a4114610c14578063c132566114610c4f578063c52987cf14610c7d578063c9c667e314610ca8576103a2565b806394fe157c116100fd57806394fe157c146109c057806395d89b4114610a255780639a32c20714610ab5578063a09263c214610ae3578063a457c2d714610b32576103a2565b806370a08231146108675780637158da7c146108cc57806381af43d21461090d57806390e64d131461093857806394bf804d14610965576103a2565b806323b872dd116101c75780633a98ef391161018b5780633a98ef39146107925780633ccfd60b146107bd578063430cf9f7146107d45780634665096d1461080157806364e779b11461082c576103a2565b806323b872dd146106095780632ad568631461069a578063313ce567146106c857806333afff92146106f65780633950935114610721576103a2565b8063134d4fbc1161020e578063134d4fbc1461050a57806313af89801461054557806313e80f101461057257806317d69bc81461059d57806318160ddd146105de576103a2565b80626226e7146103a757806306fdde03146103b1578063095ea7b3146104415780630d6cd8aa146104b257806311e03073146104df576103a2565b366103a2573073ffffffffffffffffffffffffffffffffffffffff16637158da7c6040518163ffffffff1660e01b815260040160206040518083038186803b15801561029457600080fd5b505afa1580156102a8573d6000803e3d6000fd5b505050506040513d60208110156102be57600080fd5b810190808051906020019092919050505073ffffffffffffffffffffffffffffffffffffffff163373ffffffffffffffffffffffffffffffffffffffff1614610352576040517f08c379a000000000000000000000000000000000000000000000000000000000815260040180806020018281038252602c815260200180614207602c913960400191505060405180910390fd5b3373ffffffffffffffffffffffffffffffffffffffff167f88a5966d370b9919b20f3e2c13ff65706f196a4e32cc2c12bf57088f88525874346040518082815260200191505060405180910390a2005b600080fd5b6103af610ed6565b005b3480156103bd57600080fd5b506103c6611094565b6040518080602001828103825283818151815260200191508051906020019080838360005b838110156104065780820151818401526020810190506103eb565b50505050905090810190601f1680156104335780820380516001836020036101000a031916815260200191505b509250505060405180910390f35b34801561044d57600080fd5b5061049a6004803603604081101561046457600080fd5b81019080803573ffffffffffffffffffffffffffffffffffffffff16906020019092919080359060200190929190505050611136565b60405180821515815260200191505060405180910390f35b3480156104be57600080fd5b506104c7611154565b60405180821515815260200191505060405180910390f35b3480156104eb57600080fd5b506104f4611163565b6040518082815260200191505060405180910390f35b34801561051657600080fd5b506105436004803603602081101561052d57600080fd5b810190808035906020019092919050505061116d565b005b34801561055157600080fd5b5061055a611170565b60405180821515815260200191505060405180910390f35b34801561057e57600080fd5b5061058761117f565b6040518082815260200191505060405180910390f35b3480156105a957600080fd5b506105b2611186565b604051808273ffffffffffffffffffffffffffffffffffffffff16815260200191505060405180910390f35b3480156105ea57600080fd5b506105f36111ae565b6040518082815260200191505060405180910390f35b34801561061557600080fd5b506106826004803603606081101561062c57600080fd5b81019080803573ffffffffffffffffffffffffffffffffffffffff169060200190929190803573ffffffffffffffffffffffffffffffffffffffff169060200190929190803590602001909291905050506111b8565b60405180821515815260200191505060405180910390f35b3480156106a657600080fd5b506106af611291565b604051808260ff16815260200191505060405180910390f35b3480156106d457600080fd5b506106dd6112b9565b604051808260ff16815260200191505060405180910390f35b34801561070257600080fd5b5061070b6112d0565b6040518082815260200191505060405180910390f35b34801561072d57600080fd5b5061077a6004803603604081101561074457600080fd5b81019080803573ffffffffffffffffffffffffffffffffffffffff1690602001909291908035906020019092919050505061141e565b60405180821515815260200191505060405180910390f35b34801561079e57600080fd5b506107a76114d1565b6040518082815260200191505060405180910390f35b3480156107c957600080fd5b506107d26114d7565b005b3480156107e057600080fd5b506107e9611655565b60405180821515815260200191505060405180910390f35b34801561080d57600080fd5b50610816611664565b6040518082815260200191505060405180910390f35b34801561083857600080fd5b506108656004803603602081101561084f57600080fd5b810190808035906020019092919050505061168c565b005b34801561087357600080fd5b506108b66004803603602081101561088a57600080fd5b81019080803573ffffffffffffffffffffffffffffffffffffffff169060200190929190505050611814565b6040518082815260200191505060405180910390f35b3480156108d857600080fd5b506108e161185c565b604051808273ffffffffffffffffffffffffffffffffffffffff16815260200191505060405180910390f35b34801561091957600080fd5b50610922611884565b6040518082815260200191505060405180910390f35b34801561094457600080fd5b5061094d61194d565b60405180821515815260200191505060405180910390f35b34801561097157600080fd5b506109be6004803603604081101561098857600080fd5b8101908080359060200190929190803573ffffffffffffffffffffffffffffffffffffffff16906020019092919050505061195c565b005b3480156109cc57600080fd5b50610a0f600480360360208110156109e357600080fd5b81019080803573ffffffffffffffffffffffffffffffffffffffff169060200190929190505050611ab1565b6040518082815260200191505060405180910390f35b348015610a3157600080fd5b50610a3a611ac9565b6040518080602001828103825283818151815260200191508051906020019080838360005b83811015610a7a578082015181840152602081019050610a5f565b50505050905090810190601f168015610aa75780820380516001836020036101000a031916815260200191505b509250505060405180910390f35b348015610ac157600080fd5b50610aca611b6b565b604051808260ff16815260200191505060405180910390f35b348015610aef57600080fd5b50610b1c60048036036020811015610b0657600080fd5b8101908080359060200190929190505050611b93565b6040518082815260200191505060405180910390f35b348015610b3e57600080fd5b50610b8b60048036036040811015610b5557600080fd5b81019080803573ffffffffffffffffffffffffffffffffffffffff16906020019092919080359060200190929190505050611ba5565b60405180821515815260200191505060405180910390f35b348015610baf57600080fd5b50610bfc60048036036040811015610bc657600080fd5b81019080803573ffffffffffffffffffffffffffffffffffffffff16906020019092919080359060200190929190505050611c72565b60405180821515815260200191505060405180910390f35b348015610c2057600080fd5b50610c4d60048036036020811015610c3757600080fd5b8101908080359060200190929190505050611c90565b005b348015610c5b57600080fd5b50610c64611e15565b604051808260ff16815260200191505060405180910390f35b348015610c8957600080fd5b50610c92611e3d565b6040518082815260200191505060405180910390f35b348015610cb457600080fd5b50610cbd611e65565b604051808273ffffffffffffffffffffffffffffffffffffffff16815260200191505060405180910390f35b348015610cf557600080fd5b50610d3860048036036020811015610d0c57600080fd5b81019080803573ffffffffffffffffffffffffffffffffffffffff169060200190929190505050611e89565b6040518082815260200191505060405180910390f35b348015610d5a57600080fd5b50610dbd60048036036040811015610d7157600080fd5b81019080803573ffffffffffffffffffffffffffffffffffffffff169060200190929190803573ffffffffffffffffffffffffffffffffffffffff169060200190929190505050611ea1565b6040518082815260200191505060405180910390f35b348015610ddf57600080fd5b50610e2260048036036020811015610df657600080fd5b81019080803573ffffffffffffffffffffffffffffffffffffffff169060200190929190505050611f28565b604051808381526020018281526020019250505060405180910390f35b348015610e4b57600080fd5b50610e54611fd5565b6040518082815260200191505060405180910390f35b348015610e7657600080fd5b50610e7f61209e565b60405180826001811115610e8f57fe5b815260200191505060405180910390f35b348015610eac57600080fd5b50610eb56120c6565b60405180826001811115610ec557fe5b815260200191505060405180910390f35b610ede612184565b610f33576040517f08c379a00000000000000000000000000000000000000000000000000000000081526004018080602001828103825260218152602001806141a06021913960400191505060405180910390fd5b600034905060008111610f91576040517f08c379a000000000000000000000000000000000000000000000000000000000815260040180806020018281038252602a81526020018061414d602a913960400191505060405180910390fd5b6000610f9c826121a2565b9050610fa8338361225b565b610fb061185c565b73ffffffffffffffffffffffffffffffffffffffff1663d0e30db0346040518263ffffffff1660e01b81526004016000604051808303818588803b158015610ff757600080fd5b505af115801561100b573d6000803e3d6000fd5b5050505050611042338261101d611186565b73ffffffffffffffffffffffffffffffffffffffff1661241f9092919063ffffffff16565b3373ffffffffffffffffffffffffffffffffffffffff167f5a20425ee28c08dfaf53c051ce9fb1fdfedad2949379924d3313a74c2c61a2a5836040518082815260200191505060405180910390a25050565b606060038054600181600116156101000203166002900480601f01602080910402602001604051908101604052809291908181526020018280546001816001161561010002031660029004801561112c5780601f106111015761010080835404028352916020019161112c565b820191906000526020600020905b81548152906001019060200180831161110f57829003601f168201915b5050505050905090565b600061114a6111436124c1565b84846124c9565b6001905092915050565b600061115e612184565b905090565b6000600654905090565b50565b600061117a6126c0565b905090565b6201518081565b60007f0000000000000000000000000000000000000000000000000000000000000000905090565b6000600254905090565b60006111c58484846126cf565b611286846111d16124c1565b6112818560405180606001604052806028815260200161412560289139600160008b73ffffffffffffffffffffffffffffffffffffffff1673ffffffffffffffffffffffffffffffffffffffff16815260200190815260200160002060006112376124c1565b73ffffffffffffffffffffffffffffffffffffffff1673ffffffffffffffffffffffffffffffffffffffff168152602001908152602001600020546129909092919063ffffffff16565b6124c9565b600190509392505050565b60007f0000000000000000000000000000000000000000000000000000000000000000905090565b6000600560009054906101000a900460ff16905090565b6000807f000000000000000000000000000000000000000000000000000000000000000073ffffffffffffffffffffffffffffffffffffffff16635fa5c8ce6040518163ffffffff1660e01b815260040160206040518083038186803b15801561133957600080fd5b505afa15801561134d573d6000803e3d6000fd5b505050506040513d602081101561136357600080fd5b810190808051906020019092919050505090508073ffffffffffffffffffffffffffffffffffffffff1663b3aefb75306040518263ffffffff1660e01b8152600401808273ffffffffffffffffffffffffffffffffffffffff16815260200191505060206040518083038186803b1580156113dd57600080fd5b505afa1580156113f1573d6000803e3d6000fd5b505050506040513d602081101561140757600080fd5b810190808051906020019092919050505091505090565b60006114c761142b6124c1565b846114c2856001600061143c6124c1565b73ffffffffffffffffffffffffffffffffffffffff1673ffffffffffffffffffffffffffffffffffffffff16815260200190815260200160002060008973ffffffffffffffffffffffffffffffffffffffff1673ffffffffffffffffffffffffffffffffffffffff16815260200190815260200160002054612a4a90919063ffffffff16565b6124c9565b6001905092915050565b60095481565b6114df6126c0565b611534576040517f08c379a00000000000000000000000000000000000000000000000000000000081526004018080602001828103825260258152602001806140df6025913960400191505060405180910390fd5b60008061153f612ad2565b915091506115753383611550611186565b73ffffffffffffffffffffffffffffffffffffffff1661241f9092919063ffffffff16565b60008111156115fb5761158661185c565b73ffffffffffffffffffffffffffffffffffffffff16632e1a7d4d826040518263ffffffff1660e01b815260040180828152602001915050600060405180830381600087803b1580156115d857600080fd5b505af11580156115ec573d6000803e3d6000fd5b505050506115fa3382612c2d565b5b3373ffffffffffffffffffffffffffffffffffffffff167ff279e6a1f5e320cca91135676d9cb6e44ca8a08c0b88342bcdb1144f6511b5688383604051808381526020018281526020019250505060405180910390a25050565b600061165f612d67565b905090565b60007f0000000000000000000000000000000000000000000000000000000000000000905090565b611694612d67565b806116a357506116a2612184565b5b611715576040517f08c379a000000000000000000000000000000000000000000000000000000000815260040180806020018281038252601f8152602001807f506f644f7074696f6e3a206e6f7420696e20756e6d696e742077696e646f770081525060200191505060405180910390fd5b6000806117228333612dd6565b915091506000821161177f576040517f08c379a00000000000000000000000000000000000000000000000000000000081526004018080602001828103825260258152602001806142a36025913960400191505060405180910390fd5b6117b1338361178c611186565b73ffffffffffffffffffffffffffffffffffffffff1661241f9092919063ffffffff16565b3373ffffffffffffffffffffffffffffffffffffffff167fe7220e099ba565b4a1b81002e7ef36ec69247fb255ff47f989746f3265762baa84848460405180848152602001838152602001828152602001935050505060405180910390a2505050565b60008060008373ffffffffffffffffffffffffffffffffffffffff1673ffffffffffffffffffffffffffffffffffffffff168152602001908152602001600020549050919050565b60007f0000000000000000000000000000000000000000000000000000000000000000905090565b60007f000000000000000000000000000000000000000000000000000000000000000073ffffffffffffffffffffffffffffffffffffffff166370a08231306040518263ffffffff1660e01b8152600401808273ffffffffffffffffffffffffffffffffffffffff16815260200191505060206040518083038186803b15801561190d57600080fd5b505afa158015611921573d6000803e3d6000fd5b505050506040513d602081101561193757600080fd5b8101908080519060200190929190505050905090565b60006119576132f5565b905090565b611964612d67565b6119b9576040517f08c379a00000000000000000000000000000000000000000000000000000000081526004018080602001828103825260228152602001806142816022913960400191505060405180910390fd5b60008211611a12576040517f08c379a00000000000000000000000000000000000000000000000000000000081526004018080602001828103825260258152602001806140ba6025913960400191505060405180910390fd5b6000611a1d836121a2565b9050611a2a838284613320565b611a5e333083611a38611186565b73ffffffffffffffffffffffffffffffffffffffff16613685909392919063ffffffff16565b8173ffffffffffffffffffffffffffffffffffffffff167f0f6798a560793a54c3bcfe86a93cde1e73087d944c0ea20544137d4121396885846040518082815260200191505060405180910390a2505050565b60086020528060005260406000206000915090505481565b606060048054600181600116156101000203166002900480601f016020809104026020016040519081016040528092919081815260200182805460018160011615610100020316600290048015611b615780601f10611b3657610100808354040283529160200191611b61565b820191906000526020600020905b815481529060010190602001808311611b4457829003601f168201915b5050505050905090565b60007f0000000000000000000000000000000000000000000000000000000000000000905090565b6000611b9e826121a2565b9050919050565b6000611c68611bb26124c1565b84611c63856040518060600160405280602581526020016142c86025913960016000611bdc6124c1565b73ffffffffffffffffffffffffffffffffffffffff1673ffffffffffffffffffffffffffffffffffffffff16815260200190815260200160002060008a73ffffffffffffffffffffffffffffffffffffffff1673ffffffffffffffffffffffffffffffffffffffff168152602001908152602001600020546129909092919063ffffffff16565b6124c9565b6001905092915050565b6000611c86611c7f6124c1565b84846126cf565b6001905092915050565b611c98612184565b611ced576040517f08c379a00000000000000000000000000000000000000000000000000000000081526004018080602001828103825260218152602001806141a06021913960400191505060405180910390fd5b60008111611d46576040517f08c379a00000000000000000000000000000000000000000000000000000000081526004018080602001828103825260298152602001806141776029913960400191505060405180910390fd5b6000611d51826121a2565b9050611d5d338361225b565b611d91333084611d6b61185c565b73ffffffffffffffffffffffffffffffffffffffff16613685909392919063ffffffff16565b611dc33382611d9e611186565b73ffffffffffffffffffffffffffffffffffffffff1661241f9092919063ffffffff16565b3373ffffffffffffffffffffffffffffffffffffffff167f5a20425ee28c08dfaf53c051ce9fb1fdfedad2949379924d3313a74c2c61a2a5836040518082815260200191505060405180910390a25050565b60007f0000000000000000000000000000000000000000000000000000000000000000905090565b60007f0000000000000000000000000000000000000000000000000000000000000000905090565b7f000000000000000000000000000000000000000000000000000000000000000081565b60076020528060005260406000206000915090505481565b6000600160008473ffffffffffffffffffffffffffffffffffffffff1673ffffffffffffffffffffffffffffffffffffffff16815260200190815260200160002060008373ffffffffffffffffffffffffffffffffffffffff1673ffffffffffffffffffffffffffffffffffffffff16815260200190815260200160002054905092915050565b6000806000600760008573ffffffffffffffffffffffffffffffffffffffff1673ffffffffffffffffffffffffffffffffffffffff168152602001908152602001600020549050611f9d600954611f8f611f80611884565b8461374690919063ffffffff16565b6137cc90919063ffffffff16565b9250611fcd600954611fbf611fb0611fd5565b8461374690919063ffffffff16565b6137cc90919063ffffffff16565b915050915091565b60007f000000000000000000000000000000000000000000000000000000000000000073ffffffffffffffffffffffffffffffffffffffff166370a08231306040518263ffffffff1660e01b8152600401808273ffffffffffffffffffffffffffffffffffffffff16815260200191505060206040518083038186803b15801561205e57600080fd5b505afa158015612072573d6000803e3d6000fd5b505050506040513d602081101561208857600080fd5b8101908080519060200190929190505050905090565b60007f0000000000000000000000000000000000000000000000000000000000000000905090565b60007f0000000000000000000000000000000000000000000000000000000000000000905090565b600080823b905060008111915050919050565b600082821115612179576040517f08c379a000000000000000000000000000000000000000000000000000000000815260040180806020018281038252601e8152602001807f536166654d6174683a207375627472616374696f6e206f766572666c6f77000081525060200191505060405180910390fd5b818303905092915050565b600061218e6132f5565b15801561219d57506006544210155b905090565b6000806121f76121b0611b6b565b60ff16600a0a6121e97f00000000000000000000000000000000000000000000000000000000000000008661374690919063ffffffff16565b6137cc90919063ffffffff16565b905060008111612252576040517f08c379a0000000000000000000000000000000000000000000000000000000008152600401808060200182810382526027815260200180613f676027913960400191505060405180910390fd5b80915050919050565b600073ffffffffffffffffffffffffffffffffffffffff168273ffffffffffffffffffffffffffffffffffffffff1614156122e1576040517f08c379a00000000000000000000000000000000000000000000000000000000081526004018080602001828103825260218152602001806141c16021913960400191505060405180910390fd5b6122ed82600083613855565b61235881604051806060016040528060228152602001613f23602291396000808673ffffffffffffffffffffffffffffffffffffffff1673ffffffffffffffffffffffffffffffffffffffff168152602001908152602001600020546129909092919063ffffffff16565b6000808473ffffffffffffffffffffffffffffffffffffffff1673ffffffffffffffffffffffffffffffffffffffff168152602001908152602001600020819055506123af8160025461210190919063ffffffff16565b600281905550600073ffffffffffffffffffffffffffffffffffffffff168273ffffffffffffffffffffffffffffffffffffffff167fddf252ad1be2c89b69c2b068fc378daa952ba7f163c4a11628f55a4df523b3ef836040518082815260200191505060405180910390a35050565b6124bc8363a9059cbb60e01b8484604051602401808373ffffffffffffffffffffffffffffffffffffffff16815260200182815260200192505050604051602081830303815290604052907bffffffffffffffffffffffffffffffffffffffffffffffffffffffff19166020820180517bffffffffffffffffffffffffffffffffffffffffffffffffffffffff838183161783525050505061385a565b505050565b600033905090565b600073ffffffffffffffffffffffffffffffffffffffff168373ffffffffffffffffffffffffffffffffffffffff16141561254f576040517f08c379a00000000000000000000000000000000000000000000000000000000081526004018080602001828103825260248152602001806142336024913960400191505060405180910390fd5b600073ffffffffffffffffffffffffffffffffffffffff168273ffffffffffffffffffffffffffffffffffffffff1614156125d5576040517f08c379a0000000000000000000000000000000000000000000000000000000008152600401808060200182810382526022815260200180613f456022913960400191505060405180910390fd5b80600160008573ffffffffffffffffffffffffffffffffffffffff1673ffffffffffffffffffffffffffffffffffffffff16815260200190815260200160002060008473ffffffffffffffffffffffffffffffffffffffff1673ffffffffffffffffffffffffffffffffffffffff168152602001908152602001600020819055508173ffffffffffffffffffffffffffffffffffffffff168373ffffffffffffffffffffffffffffffffffffffff167f8c5be1e5ebec7d5bd14f71427d1e84f3dd0314c0f7b2291e5b200ac8c7c3b925836040518082815260200191505060405180910390a3505050565b60006126ca6132f5565b905090565b600073ffffffffffffffffffffffffffffffffffffffff168373ffffffffffffffffffffffffffffffffffffffff161415612755576040517f08c379a00000000000000000000000000000000000000000000000000000000081526004018080602001828103825260258152602001806141e26025913960400191505060405180910390fd5b600073ffffffffffffffffffffffffffffffffffffffff168273ffffffffffffffffffffffffffffffffffffffff1614156127db576040517f08c379a0000000000000000000000000000000000000000000000000000000008152600401808060200182810382526023815260200180613f006023913960400191505060405180910390fd5b6127e6838383613855565b61285181604051806060016040528060268152602001613fe7602691396000808773ffffffffffffffffffffffffffffffffffffffff1673ffffffffffffffffffffffffffffffffffffffff168152602001908152602001600020546129909092919063ffffffff16565b6000808573ffffffffffffffffffffffffffffffffffffffff1673ffffffffffffffffffffffffffffffffffffffff168152602001908152602001600020819055506128e4816000808573ffffffffffffffffffffffffffffffffffffffff1673ffffffffffffffffffffffffffffffffffffffff16815260200190815260200160002054612a4a90919063ffffffff16565b6000808473ffffffffffffffffffffffffffffffffffffffff1673ffffffffffffffffffffffffffffffffffffffff168152602001908152602001600020819055508173ffffffffffffffffffffffffffffffffffffffff168373ffffffffffffffffffffffffffffffffffffffff167fddf252ad1be2c89b69c2b068fc378daa952ba7f163c4a11628f55a4df523b3ef836040518082815260200191505060405180910390a3505050565b6000838311158290612a3d576040517f08c379a00000000000000000000000000000000000000000000000000000000081526004018080602001828103825283818151815260200191508051906020019080838360005b83811015612a025780820151818401526020810190506129e7565b50505050905090810190601f168015612a2f5780820380516001836020036101000a031916815260200191505b509250505060405180910390fd5b5082840390509392505050565b600080828401905083811015612ac8576040517f08c379a000000000000000000000000000000000000000000000000000000000815260040180806020018281038252601b8152602001807f536166654d6174683a206164646974696f6e206f766572666c6f77000000000081525060200191505060405180910390fd5b8091505092915050565b6000806000600760003373ffffffffffffffffffffffffffffffffffffffff1673ffffffffffffffffffffffffffffffffffffffff16815260200190815260200160002054905060008111612b72576040517f08c379a000000000000000000000000000000000000000000000000000000000815260040180806020018281038252602e815260200180613f8e602e913960400191505060405180910390fd5b612b7b33611f28565b80935081945050506000600760003373ffffffffffffffffffffffffffffffffffffffff1673ffffffffffffffffffffffffffffffffffffffff168152602001908152602001600020819055506000600860003373ffffffffffffffffffffffffffffffffffffffff1673ffffffffffffffffffffffffffffffffffffffff16815260200190815260200160002081905550612c228160095461210190919063ffffffff16565b600981905550509091565b80471015612ca3576040517f08c379a000000000000000000000000000000000000000000000000000000000815260040180806020018281038252601d8152602001807f416464726573733a20696e73756666696369656e742062616c616e636500000081525060200191505060405180910390fd5b60008273ffffffffffffffffffffffffffffffffffffffff168260405180600001905060006040518083038185875af1925050503d8060008114612d03576040519150601f19603f3d011682016040523d82523d6000602084013e612d08565b606091505b5050905080612d62576040517f08c379a000000000000000000000000000000000000000000000000000000000815260040180806020018281038252603a815260200180614031603a913960400191505060405180910390fd5b505050565b6000612d716132f5565b15612d7f5760009050612dd3565b60006001811115612d8c57fe5b7f00000000000000000000000000000000000000000000000000000000000000006001811115612db857fe5b1415612dce57612dc6612184565b159050612dd3565b600190505b90565b6000806000600760008573ffffffffffffffffffffffffffffffffffffffff1673ffffffffffffffffffffffffffffffffffffffff1681526020019081526020016000205411612e71576040517f08c379a00000000000000000000000000000000000000000000000000000000081526004018080602001828103825260298152602001806140916029913960400191505060405180910390fd5b600860008473ffffffffffffffffffffffffffffffffffffffff1673ffffffffffffffffffffffffffffffffffffffff16815260200190815260200160002054841115612f09576040517f08c379a000000000000000000000000000000000000000000000000000000000815260040180806020018281038252602481526020018061400d6024913960400191505060405180910390fd5b6000612fae600860008673ffffffffffffffffffffffffffffffffffffffff1673ffffffffffffffffffffffffffffffffffffffff16815260200190815260200160002054612fa087600760008973ffffffffffffffffffffffffffffffffffffffff1673ffffffffffffffffffffffffffffffffffffffff1681526020019081526020016000205461374690919063ffffffff16565b6137cc90919063ffffffff16565b905060006001811115612fbd57fe5b7f00000000000000000000000000000000000000000000000000000000000000006001811115612fe957fe5b141561312757600061304a612ffc6112b9565b60ff16600a0a61303c7f000000000000000000000000000000000000000000000000000000000000000061302e6111ae565b61374690919063ffffffff16565b6137cc90919063ffffffff16565b9050600081613057611884565b111561307a5761307782613069611884565b61210190919063ffffffff16565b90505b6131046130a4600954613096868561374690919063ffffffff16565b6137cc90919063ffffffff16565b6130f66130af6112b9565b60ff16600a0a6130e87f00000000000000000000000000000000000000000000000000000000000000008c61374690919063ffffffff16565b6137cc90919063ffffffff16565b612a4a90919063ffffffff16565b945061310e611884565b8511156131205761311d611884565b94505b505061319e565b60006131316111ae565b9050600061313d611fd5565b905060008282111561315f5761315c838361210190919063ffffffff16565b90505b61319861318960095461317b878561374690919063ffffffff16565b6137cc90919063ffffffff16565b89612a4a90919063ffffffff16565b94505050505b6131f081600760008773ffffffffffffffffffffffffffffffffffffffff1673ffffffffffffffffffffffffffffffffffffffff1681526020019081526020016000205461210190919063ffffffff16565b600760008673ffffffffffffffffffffffffffffffffffffffff1673ffffffffffffffffffffffffffffffffffffffff1681526020019081526020016000208190555061328585600860008773ffffffffffffffffffffffffffffffffffffffff1673ffffffffffffffffffffffffffffffffffffffff1681526020019081526020016000205461210190919063ffffffff16565b600860008673ffffffffffffffffffffffffffffffffffffffff1673ffffffffffffffffffffffffffffffffffffffff168152602001908152602001600020819055506132dd8160095461210190919063ffffffff16565b6009819055506132ed848661225b565b509250929050565b60007f0000000000000000000000000000000000000000000000000000000000000000421015905090565b82600061332b6112d0565b9050600081111561343f57806133ca833073ffffffffffffffffffffffffffffffffffffffff166318160ddd6040518163ffffffff1660e01b815260040160206040518083038186803b15801561338157600080fd5b505afa158015613395573d6000803e3d6000fd5b505050506040513d60208110156133ab57600080fd5b8101908080519060200190929190505050612a4a90919063ffffffff16565b111561343e576040517f08c379a000000000000000000000000000000000000000000000000000000000815260040180806020018281038252601f8152602001807f4361707065644f7074696f6e3a20616d6f756e7420657863656564206361700081525060200191505060405180910390fd5b5b600073ffffffffffffffffffffffffffffffffffffffff168373ffffffffffffffffffffffffffffffffffffffff1614156134c5576040517f08c379a000000000000000000000000000000000000000000000000000000000815260040180806020018281038252602b815260200180613fbc602b913960400191505060405180910390fd5b600060095411156135935760006134db85613949565b905061352f81600760008773ffffffffffffffffffffffffffffffffffffffff1673ffffffffffffffffffffffffffffffffffffffff16815260200190815260200160002054612a4a90919063ffffffff16565b600760008673ffffffffffffffffffffffffffffffffffffffff1673ffffffffffffffffffffffffffffffffffffffff1681526020019081526020016000208190555061358781600954612a4a90919063ffffffff16565b600981905550506135df565b83600760008573ffffffffffffffffffffffffffffffffffffffff1673ffffffffffffffffffffffffffffffffffffffff16815260200190815260200160002081905550836009819055505b61363185600860008673ffffffffffffffffffffffffffffffffffffffff1673ffffffffffffffffffffffffffffffffffffffff16815260200190815260200160002054612a4a90919063ffffffff16565b600860008573ffffffffffffffffffffffffffffffffffffffff1673ffffffffffffffffffffffffffffffffffffffff1681526020019081526020016000208190555061367e3386613aab565b5050505050565b613740846323b872dd60e01b858585604051602401808473ffffffffffffffffffffffffffffffffffffffff1681526020018373ffffffffffffffffffffffffffffffffffffffff1681526020018281526020019350505050604051602081830303815290604052907bffffffffffffffffffffffffffffffffffffffffffffffffffffffff19166020820180517bffffffffffffffffffffffffffffffffffffffffffffffffffffffff838183161783525050505061385a565b50505050565b60008083141561375957600090506137c6565b600082840290508284828161376a57fe5b04146137c1576040517f08c379a00000000000000000000000000000000000000000000000000000000081526004018080602001828103825260218152602001806141046021913960400191505060405180910390fd5b809150505b92915050565b6000808211613843576040517f08c379a000000000000000000000000000000000000000000000000000000000815260040180806020018281038252601a8152602001807f536166654d6174683a206469766973696f6e206279207a65726f00000000000081525060200191505060405180910390fd5b81838161384c57fe5b04905092915050565b505050565b60606138bc826040518060400160405280602081526020017f5361666545524332303a206c6f772d6c6576656c2063616c6c206661696c65648152508573ffffffffffffffffffffffffffffffffffffffff16613c729092919063ffffffff16565b9050600081511115613944578080602001905160208110156138dd57600080fd5b8101908080519060200190929190505050613943576040517f08c379a000000000000000000000000000000000000000000000000000000000815260040180806020018281038252602a815260200180614257602a913960400191505060405180910390fd5b5b505050565b600080613954611884565b90506000613960611fd5565b905060006139796009548661374690919063ffffffff16565b9050600080600181111561398957fe5b7f000000000000000000000000000000000000000000000000000000000000000060018111156139b557fe5b1415613a2657613a1f613a106139c9611b6b565b60ff16600a0a613a027f00000000000000000000000000000000000000000000000000000000000000008761374690919063ffffffff16565b6137cc90919063ffffffff16565b85612a4a90919063ffffffff16565b9050613a8d565b613a8a613a7b7f0000000000000000000000000000000000000000000000000000000000000000613a6d613a58611b6b565b60ff16600a0a8861374690919063ffffffff16565b6137cc90919063ffffffff16565b84612a4a90919063ffffffff16565b90505b613aa081836137cc90919063ffffffff16565b945050505050919050565b600073ffffffffffffffffffffffffffffffffffffffff168273ffffffffffffffffffffffffffffffffffffffff161415613b4e576040517f08c379a000000000000000000000000000000000000000000000000000000000815260040180806020018281038252601f8152602001807f45524332303a206d696e7420746f20746865207a65726f20616464726573730081525060200191505060405180910390fd5b613b5a60008383613855565b613b6f81600254612a4a90919063ffffffff16565b600281905550613bc6816000808573ffffffffffffffffffffffffffffffffffffffff1673ffffffffffffffffffffffffffffffffffffffff16815260200190815260200160002054612a4a90919063ffffffff16565b6000808473ffffffffffffffffffffffffffffffffffffffff1673ffffffffffffffffffffffffffffffffffffffff168152602001908152602001600020819055508173ffffffffffffffffffffffffffffffffffffffff16600073ffffffffffffffffffffffffffffffffffffffff167fddf252ad1be2c89b69c2b068fc378daa952ba7f163c4a11628f55a4df523b3ef836040518082815260200191505060405180910390a35050565b6060613c818484600085613c8a565b90509392505050565b606082471015613ce5576040517f08c379a000000000000000000000000000000000000000000000000000000000815260040180806020018281038252602681526020018061406b6026913960400191505060405180910390fd5b613cee856120ee565b613d60576040517f08c379a000000000000000000000000000000000000000000000000000000000815260040180806020018281038252601d8152602001807f416464726573733a2063616c6c20746f206e6f6e2d636f6e747261637400000081525060200191505060405180910390fd5b600060608673ffffffffffffffffffffffffffffffffffffffff1685876040518082805190602001908083835b60208310613db05780518252602082019150602081019050602083039250613d8d565b6001836020036101000a03801982511681845116808217855250505050505090500191505060006040518083038185875af1925050503d8060008114613e12576040519150601f19603f3d011682016040523d82523d6000602084013e613e17565b606091505b5091509150613e27828286613e33565b92505050949350505050565b60608315613e4357829050613ef8565b600083511115613e565782518084602001fd5b816040517f08c379a00000000000000000000000000000000000000000000000000000000081526004018080602001828103825283818151815260200191508051906020019080838360005b83811015613ebd578082015181840152602081019050613ea2565b50505050905090810190601f168015613eea5780820380516001836020036101000a031916815260200191505b509250505060405180910390fd5b939250505056fe45524332303a207472616e7366657220746f20746865207a65726f206164647265737345524332303a206275726e20616d6f756e7420657863656564732062616c616e636545524332303a20617070726f766520746f20746865207a65726f2061646472657373506f644f7074696f6e3a20616d6f756e74206f66206f7074696f6e7320697320746f6f206c6f77506f644f7074696f6e3a20796f7520646f206e6f7420686176652062616c616e636520746f207769746864726177506f644f7074696f6e3a207a65726f20616464726573732063616e6e6f7420626520746865206f776e657245524332303a207472616e7366657220616d6f756e7420657863656564732062616c616e6365506f644f7074696f6e3a206e6f7420656e6f756768206d696e746564206f7074696f6e73416464726573733a20756e61626c6520746f2073656e642076616c75652c20726563697069656e74206d61792068617665207265766572746564416464726573733a20696e73756666696369656e742062616c616e636520666f722063616c6c506f644f7074696f6e3a20796f7520646f206e6f742068617665206d696e746564206f7074696f6e73506f645075743a20796f752063616e206e6f74206d696e74207a65726f206f7074696f6e73506f644f7074696f6e3a206f7074696f6e20686173206e6f74206578706972656420796574536166654d6174683a206d756c7469706c69636174696f6e206f766572666c6f7745524332303a207472616e7366657220616d6f756e74206578636565647320616c6c6f77616e636557506f645075743a20796f752063616e206e6f74206578657263697365207a65726f206f7074696f6e73506f645075743a20796f752063616e206e6f74206578657263697365207a65726f206f7074696f6e73506f644f7074696f6e3a206e6f7420696e2065786572636973652077696e646f7745524332303a206275726e2066726f6d20746865207a65726f206164647265737345524332303a207472616e736665722066726f6d20746865207a65726f206164647265737357506f645075743a204f6e6c79206465706f736974732066726f6d20574554482061726520616c6c6f77656445524332303a20617070726f76652066726f6d20746865207a65726f20616464726573735361666545524332303a204552433230206f7065726174696f6e20646964206e6f742073756363656564506f644f7074696f6e3a2074726164652077696e646f772068617320636c6f73656457506f645075743a20616d6f756e74206f66206f7074696f6e7320697320746f6f206c6f7745524332303a2064656372656173656420616c6c6f77616e63652062656c6f77207a65726fa2646970667358221220fdc25d8fefea3a47b0af772f534c8896bf443be0b53c05a4099c89137b1e2a1b64736f6c634300060c0033506f644f7074696f6e3a20756e6465726c79696e6720617373657420616e6420737472696b65206173736574206d75737420646966666572506f644f7074696f6e3a2065786572636973652077696e646f772073697a65206d75737420626520657175616c20746f207a65726f506f644f7074696f6e3a20737472696b65207072696365206d7573742062652067726561746572207468616e207a65726f506f644f7074696f6e3a2065786572636973652077696e646f77206d7573742062652067726561746572207468616e206f7220657175616c203836343030506f644f7074696f6e3a2065787069726174696f6e2073686f756c6420626520696e20746865206675747572655265717569726564446563696d616c733a20746f6b656e20646563696d616c732073686f756c64206265206c6f776572207468616e203338506f644f7074696f6e3a20756e6465726c79696e67206173736574206973206e6f74206120636f6e7472616374506f644f7074696f6e3a20737472696b65206173736574206973206e6f74206120636f6e74726163745265717569726564446563696d616c733a20726571756972656420646563696d616c73",
  "linkReferences": {},
  "deployedLinkReferences": {}
}