{
  "_format": "hh-sol-artifact-1",
  "contractName": "PodPutMock",
  "sourceName": "contracts/mocks/PodPutMock.sol",
  "abi": [
    {
      "inputs": [
        {
          "internalType": "string",
          "name": "name",
          "type": "string"
        },
        {
          "internalType": "string",
          "name": "symbol",
          "type": "string"
        },
        {
          "internalType": "enum IPodOption.ExerciseType",
          "name": "exerciseType",
          "type": "uint8"
        },
        {
          "internalType": "address",
          "name": "underlyingAsset",
          "type": "address"
        },
        {
          "internalType": "address",
          "name": "strikeAsset",
          "type": "address"
        },
        {
          "internalType": "uint256",
          "name": "strikePrice",
          "type": "uint256"
        },
        {
          "internalType": "uint256",
          "name": "expiration",
          "type": "uint256"
        },
        {
          "internalType": "uint256",
          "name": "exerciseWindowSize",
          "type": "uint256"
        },
        {
          "internalType": "contract IConfigurationManager",
          "name": "configurationManager",
          "type": "address"
        }
      ],
      "stateMutability": "nonpayable",
      "type": "constructor"
    },
    {
      "anonymous": false,
      "inputs": [
        {
          "indexed": true,
          "internalType": "address",
          "name": "owner",
          "type": "address"
        },
        {
          "indexed": true,
          "internalType": "address",
          "name": "spender",
          "type": "address"
        },
        {
          "indexed": false,
          "internalType": "uint256",
          "name": "value",
          "type": "uint256"
        }
      ],
      "name": "Approval",
      "type": "event"
    },
    {
      "anonymous": false,
      "inputs": [
        {
          "indexed": true,
          "internalType": "address",
          "name": "exerciser",
          "type": "address"
        },
        {
          "indexed": false,
          "internalType": "uint256",
          "name": "amount",
          "type": "uint256"
        }
      ],
      "name": "Exercise",
      "type": "event"
    },
    {
      "anonymous": false,
      "inputs": [
        {
          "indexed": true,
          "internalType": "address",
          "name": "minter",
          "type": "address"
        },
        {
          "indexed": false,
          "internalType": "uint256",
          "name": "amount",
          "type": "uint256"
        }
      ],
      "name": "Mint",
      "type": "event"
    },
    {
      "anonymous": false,
      "inputs": [
        {
          "indexed": true,
          "internalType": "address",
          "name": "from",
          "type": "address"
        },
        {
          "indexed": true,
          "internalType": "address",
          "name": "to",
          "type": "address"
        },
        {
          "indexed": false,
          "internalType": "uint256",
          "name": "value",
          "type": "uint256"
        }
      ],
      "name": "Transfer",
      "type": "event"
    },
    {
      "anonymous": false,
      "inputs": [
        {
          "indexed": true,
          "internalType": "address",
          "name": "minter",
          "type": "address"
        },
        {
          "indexed": false,
          "internalType": "uint256",
          "name": "optionAmount",
          "type": "uint256"
        },
        {
          "indexed": false,
          "internalType": "uint256",
          "name": "strikeAmount",
          "type": "uint256"
        },
        {
          "indexed": false,
          "internalType": "uint256",
          "name": "underlyingAmount",
          "type": "uint256"
        }
      ],
      "name": "Unmint",
      "type": "event"
    },
    {
      "anonymous": false,
      "inputs": [
        {
          "indexed": true,
          "internalType": "address",
          "name": "minter",
          "type": "address"
        },
        {
          "indexed": false,
          "internalType": "uint256",
          "name": "strikeAmount",
          "type": "uint256"
        },
        {
          "indexed": false,
          "internalType": "uint256",
          "name": "underlyingAmount",
          "type": "uint256"
        }
      ],
      "name": "Withdraw",
      "type": "event"
    },
    {
      "inputs": [],
      "name": "MIN_EXERCISE_WINDOW_SIZE",
      "outputs": [
        {
          "internalType": "uint256",
          "name": "",
          "type": "uint256"
        }
      ],
      "stateMutability": "view",
      "type": "function"
    },
    {
      "inputs": [
        {
          "internalType": "address",
          "name": "owner",
          "type": "address"
        },
        {
          "internalType": "address",
          "name": "spender",
          "type": "address"
        }
      ],
      "name": "allowance",
      "outputs": [
        {
          "internalType": "uint256",
          "name": "",
          "type": "uint256"
        }
      ],
      "stateMutability": "view",
      "type": "function"
    },
    {
      "inputs": [
        {
          "internalType": "address",
          "name": "spender",
          "type": "address"
        },
        {
          "internalType": "uint256",
          "name": "amount",
          "type": "uint256"
        }
      ],
      "name": "approve",
      "outputs": [
        {
          "internalType": "bool",
          "name": "",
          "type": "bool"
        }
      ],
      "stateMutability": "nonpayable",
      "type": "function"
    },
    {
      "inputs": [
        {
          "internalType": "address",
          "name": "account",
          "type": "address"
        }
      ],
      "name": "balanceOf",
      "outputs": [
        {
          "internalType": "uint256",
          "name": "",
          "type": "uint256"
        }
      ],
      "stateMutability": "view",
      "type": "function"
    },
    {
      "inputs": [],
      "name": "capSize",
      "outputs": [
        {
          "internalType": "uint256",
          "name": "",
          "type": "uint256"
        }
      ],
      "stateMutability": "view",
      "type": "function"
    },
    {
      "inputs": [],
      "name": "configurationManager",
      "outputs": [
        {
          "internalType": "contract IConfigurationManager",
          "name": "",
          "type": "address"
        }
      ],
      "stateMutability": "view",
      "type": "function"
    },
    {
      "inputs": [],
      "name": "decimals",
      "outputs": [
        {
          "internalType": "uint8",
          "name": "",
          "type": "uint8"
        }
      ],
      "stateMutability": "view",
      "type": "function"
    },
    {
      "inputs": [
        {
          "internalType": "address",
          "name": "spender",
          "type": "address"
        },
        {
          "internalType": "uint256",
          "name": "subtractedValue",
          "type": "uint256"
        }
      ],
      "name": "decreaseAllowance",
      "outputs": [
        {
          "internalType": "bool",
          "name": "",
          "type": "bool"
        }
      ],
      "stateMutability": "nonpayable",
      "type": "function"
    },
    {
      "inputs": [
        {
          "internalType": "uint256",
          "name": "amountOfOptions",
          "type": "uint256"
        }
      ],
      "name": "exercise",
      "outputs": [],
      "stateMutability": "nonpayable",
      "type": "function"
    },
    {
      "inputs": [],
      "name": "exerciseType",
      "outputs": [
        {
          "internalType": "enum IPodOption.ExerciseType",
          "name": "",
          "type": "uint8"
        }
      ],
      "stateMutability": "view",
      "type": "function"
    },
    {
      "inputs": [],
      "name": "expiration",
      "outputs": [
        {
          "internalType": "uint256",
          "name": "",
          "type": "uint256"
        }
      ],
      "stateMutability": "view",
      "type": "function"
    },
    {
      "inputs": [
        {
          "internalType": "address",
          "name": "owner",
          "type": "address"
        }
      ],
      "name": "getSellerWithdrawAmounts",
      "outputs": [
        {
          "internalType": "uint256",
          "name": "strikeAmount",
          "type": "uint256"
        },
        {
          "internalType": "uint256",
          "name": "underlyingAmount",
          "type": "uint256"
        }
      ],
      "stateMutability": "view",
      "type": "function"
    },
    {
      "inputs": [],
      "name": "hasExpired",
      "outputs": [
        {
          "internalType": "bool",
          "name": "",
          "type": "bool"
        }
      ],
      "stateMutability": "view",
      "type": "function"
    },
    {
      "inputs": [
        {
          "internalType": "address",
          "name": "spender",
          "type": "address"
        },
        {
          "internalType": "uint256",
          "name": "addedValue",
          "type": "uint256"
        }
      ],
      "name": "increaseAllowance",
      "outputs": [
        {
          "internalType": "bool",
          "name": "",
          "type": "bool"
        }
      ],
      "stateMutability": "nonpayable",
      "type": "function"
    },
    {
      "inputs": [],
      "name": "isExerciseWindow",
      "outputs": [
        {
          "internalType": "bool",
          "name": "",
          "type": "bool"
        }
      ],
      "stateMutability": "view",
      "type": "function"
    },
    {
      "inputs": [],
      "name": "isTradeWindow",
      "outputs": [
        {
          "internalType": "bool",
          "name": "",
          "type": "bool"
        }
      ],
      "stateMutability": "view",
      "type": "function"
    },
    {
      "inputs": [],
      "name": "isWithdrawWindow",
      "outputs": [
        {
          "internalType": "bool",
          "name": "",
          "type": "bool"
        }
      ],
      "stateMutability": "view",
      "type": "function"
    },
    {
      "inputs": [
        {
          "internalType": "uint256",
          "name": "amountOfOptions",
          "type": "uint256"
        },
        {
          "internalType": "address",
          "name": "owner",
          "type": "address"
        }
      ],
      "name": "mint",
      "outputs": [],
      "stateMutability": "nonpayable",
      "type": "function"
    },
    {
      "inputs": [
        {
          "internalType": "address",
          "name": "",
          "type": "address"
        }
      ],
      "name": "mintedOptions",
      "outputs": [
        {
          "internalType": "uint256",
          "name": "",
          "type": "uint256"
        }
      ],
      "stateMutability": "view",
      "type": "function"
    },
    {
      "inputs": [],
      "name": "name",
      "outputs": [
        {
          "internalType": "string",
          "name": "",
          "type": "string"
        }
      ],
      "stateMutability": "view",
      "type": "function"
    },
    {
      "inputs": [],
      "name": "optionType",
      "outputs": [
        {
          "internalType": "enum IPodOption.OptionType",
          "name": "",
          "type": "uint8"
        }
      ],
      "stateMutability": "view",
      "type": "function"
    },
    {
      "inputs": [
        {
          "internalType": "address",
          "name": "",
          "type": "address"
        }
      ],
      "name": "shares",
      "outputs": [
        {
          "internalType": "uint256",
          "name": "",
          "type": "uint256"
        }
      ],
      "stateMutability": "view",
      "type": "function"
    },
    {
      "inputs": [],
      "name": "startOfExerciseWindow",
      "outputs": [
        {
          "internalType": "uint256",
          "name": "",
          "type": "uint256"
        }
      ],
      "stateMutability": "view",
      "type": "function"
    },
    {
      "inputs": [],
      "name": "strikeAsset",
      "outputs": [
        {
          "internalType": "address",
          "name": "",
          "type": "address"
        }
      ],
      "stateMutability": "view",
      "type": "function"
    },
    {
      "inputs": [],
      "name": "strikeAssetDecimals",
      "outputs": [
        {
          "internalType": "uint8",
          "name": "",
          "type": "uint8"
        }
      ],
      "stateMutability": "view",
      "type": "function"
    },
    {
      "inputs": [],
      "name": "strikePrice",
      "outputs": [
        {
          "internalType": "uint256",
          "name": "",
          "type": "uint256"
        }
      ],
      "stateMutability": "view",
      "type": "function"
    },
    {
      "inputs": [],
      "name": "strikePriceDecimals",
      "outputs": [
        {
          "internalType": "uint8",
          "name": "",
          "type": "uint8"
        }
      ],
      "stateMutability": "view",
      "type": "function"
    },
    {
      "inputs": [],
      "name": "strikeReserves",
      "outputs": [
        {
          "internalType": "uint256",
          "name": "",
          "type": "uint256"
        }
      ],
      "stateMutability": "view",
      "type": "function"
    },
    {
      "inputs": [
        {
          "internalType": "uint256",
          "name": "amountOfOptions",
          "type": "uint256"
        }
      ],
      "name": "strikeToTransfer",
      "outputs": [
        {
          "internalType": "uint256",
          "name": "",
          "type": "uint256"
        }
      ],
      "stateMutability": "view",
      "type": "function"
    },
    {
      "inputs": [],
      "name": "symbol",
      "outputs": [
        {
          "internalType": "string",
          "name": "",
          "type": "string"
        }
      ],
      "stateMutability": "view",
      "type": "function"
    },
    {
      "inputs": [],
      "name": "totalShares",
      "outputs": [
        {
          "internalType": "uint256",
          "name": "",
          "type": "uint256"
        }
      ],
      "stateMutability": "view",
      "type": "function"
    },
    {
      "inputs": [],
      "name": "totalSupply",
      "outputs": [
        {
          "internalType": "uint256",
          "name": "",
          "type": "uint256"
        }
      ],
      "stateMutability": "view",
      "type": "function"
    },
    {
      "inputs": [
        {
          "internalType": "address",
          "name": "recipient",
          "type": "address"
        },
        {
          "internalType": "uint256",
          "name": "amount",
          "type": "uint256"
        }
      ],
      "name": "transfer",
      "outputs": [
        {
          "internalType": "bool",
          "name": "",
          "type": "bool"
        }
      ],
      "stateMutability": "nonpayable",
      "type": "function"
    },
    {
      "inputs": [
        {
          "internalType": "address",
          "name": "sender",
          "type": "address"
        },
        {
          "internalType": "address",
          "name": "recipient",
          "type": "address"
        },
        {
          "internalType": "uint256",
          "name": "amount",
          "type": "uint256"
        }
      ],
      "name": "transferFrom",
      "outputs": [
        {
          "internalType": "bool",
          "name": "",
          "type": "bool"
        }
      ],
      "stateMutability": "nonpayable",
      "type": "function"
    },
    {
      "inputs": [],
      "name": "underlyingAsset",
      "outputs": [
        {
          "internalType": "address",
          "name": "",
          "type": "address"
        }
      ],
      "stateMutability": "view",
      "type": "function"
    },
    {
      "inputs": [],
      "name": "underlyingAssetDecimals",
      "outputs": [
        {
          "internalType": "uint8",
          "name": "",
          "type": "uint8"
        }
      ],
      "stateMutability": "view",
      "type": "function"
    },
    {
      "inputs": [],
      "name": "underlyingReserves",
      "outputs": [
        {
          "internalType": "uint256",
          "name": "",
          "type": "uint256"
        }
      ],
      "stateMutability": "view",
      "type": "function"
    },
    {
      "inputs": [
        {
          "internalType": "uint256",
          "name": "amountOfOptions",
          "type": "uint256"
        }
      ],
      "name": "unmint",
      "outputs": [],
      "stateMutability": "nonpayable",
      "type": "function"
    },
    {
      "inputs": [],
      "name": "withdraw",
      "outputs": [],
      "stateMutability": "nonpayable",
      "type": "function"
    }
  ],
  "bytecode": "0x6101c060405260006009553480156200001757600080fd5b50604051620048f4380380620048f483398181016040526101208110156200003e57600080fd5b81019080805160405193929190846401000000008211156200005f57600080fd5b838201915060208201858111156200007657600080fd5b82518660018202830111640100000000821117156200009457600080fd5b8083526020830192505050908051906020019080838360005b83811015620000ca578082015181840152602081019050620000ad565b50505050905090810190601f168015620000f85780820380516001836020036101000a031916815260200191505b50604052602001805160405193929190846401000000008211156200011c57600080fd5b838201915060208201858111156200013357600080fd5b82518660018202830111640100000000821117156200015157600080fd5b8083526020830192505050908051906020019080838360005b83811015620001875780820151818401526020810190506200016a565b50505050905090810190601f168015620001b55780820380516001836020036101000a031916815260200191505b50604052602001805190602001909291908051906020019092919080519060200190929190805190602001909291908051906020019092919080519060200190929190805190602001909291905050508888888888888888888888600089898989898989808a8a81600390805190602001906200023492919062000a27565b5080600490805190602001906200024d92919062000a27565b506012600560006101000a81548160ff021916908360ff16021790555050508073ffffffffffffffffffffffffffffffffffffffff1660808173ffffffffffffffffffffffffffffffffffffffff1660601b8152505050620002ba866200073f60201b62001b3e1760201c565b62000311576040517f08c379a000000000000000000000000000000000000000000000000000000000815260040180806020018281038252602d8152602001806200487b602d913960400191505060405180910390fd5b62000327856200073f60201b62001b3e1760201c565b6200037e576040517f08c379a0000000000000000000000000000000000000000000000000000000008152600401808060200182810382526029815260200180620048a86029913960400191505060405180910390fd5b8473ffffffffffffffffffffffffffffffffffffffff168673ffffffffffffffffffffffffffffffffffffffff16141562000405576040517f08c379a00000000000000000000000000000000000000000000000000000000081526004018080602001828103825260388152602001806200473a6038913960400191505060405180910390fd5b4283116200045f576040517f08c379a000000000000000000000000000000000000000000000000000000000815260040180806020018281038252602d81526020018062004816602d913960400191505060405180910390fd5b60008411620004ba576040517f08c379a0000000000000000000000000000000000000000000000000000000008152600401808060200182810382526031815260200180620047a76031913960400191505060405180910390fd5b60006001811115620004c857fe5b876001811115620004d557fe5b14156200056057620151808210156200053a576040517f08c379a000000000000000000000000000000000000000000000000000000000815260040180806020018281038252603e815260200180620047d8603e913960400191505060405180910390fd5b6200055482846200075260201b62001b511790919060201c565b600681905550620005c3565b60008214620005bb576040517f08c379a0000000000000000000000000000000000000000000000000000000008152600401808060200182810382526035815260200180620047726035913960400191505060405180910390fd5b426006819055505b8073ffffffffffffffffffffffffffffffffffffffff1660e08173ffffffffffffffffffffffffffffffffffffffff1660601b815250508760018111156200060757fe5b60a08160018111156200061657fe5b60f81b815250508660018111156200062a57fe5b60c08160018111156200063957fe5b60f81b81525050826101a081815250508573ffffffffffffffffffffffffffffffffffffffff166101008173ffffffffffffffffffffffffffffffffffffffff1660601b815250508473ffffffffffffffffffffffffffffffffffffffff166101408173ffffffffffffffffffffffffffffffffffffffff1660601b815250506000620006cc87620007d660201b60201c565b90508060ff166101208160ff1660f81b81525050620006f186620007d660201b60201c565b60ff166101608160ff1660f81b815250508461018081815250506200071c8162000a0960201b60201c565b505050505050505050505050505050505050505050505050505050505062000acd565b600080823b905060008111915050919050565b600082821115620007cb576040517f08c379a000000000000000000000000000000000000000000000000000000000815260040180806020018281038252601e8152602001807f536166654d6174683a207375627472616374696f6e206f766572666c6f77000081525060200191505060405180910390fd5b818303905092915050565b600060606040516024016040516020818303038152906040527f313ce567000000000000000000000000000000000000000000000000000000007bffffffffffffffffffffffffffffffffffffffffffffffffffffffff19166020820180517bffffffffffffffffffffffffffffffffffffffffffffffffffffffff83818316178352505050509050600060608473ffffffffffffffffffffffffffffffffffffffff16836040518082805190602001908083835b60208310620008b057805182526020820191506020810190506020830392506200088b565b6001836020036101000a038019825116818451168082178552505050505050905001915050600060405180830381855afa9150503d806000811462000912576040519150601f19603f3d011682016040523d82523d6000602084013e62000917565b606091505b50915091508162000974576040517f08c379a0000000000000000000000000000000000000000000000000000000008152600401808060200182810382526023815260200180620048d16023913960400191505060405180910390fd5b60008180602001905160208110156200098c57600080fd5b8101908080519060200190929190505050905060268160ff1610620009fd576040517f08c379a0000000000000000000000000000000000000000000000000000000008152600401808060200182810382526038815260200180620048436038913960400191505060405180910390fd5b80945050505050919050565b80600560006101000a81548160ff021916908360ff16021790555050565b828054600181600116156101000203166002900490600052602060002090601f016020900481019282601f1062000a6a57805160ff191683800117855562000a9b565b8280016001018555821562000a9b579182015b8281111562000a9a57825182559160200191906001019062000a7d565b5b50905062000aaa919062000aae565b5090565b5b8082111562000ac957600081600090555060010162000aaf565b5090565b60805160601c60a05160f81c60c05160f81c60e05160601c6101005160601c6101205160f81c6101405160601c6101605160f81c610180516101a051613ba762000b93600039806110b8528061299252508061189152806126a0528061275352806129d252806132ea5280613344525080610d2f5280611869525080610c2452806112d85250806115bf5250806112b05280611a295250806118b7525080611af25280612427525080611b1a528061265852806132a1525080610d6f5250613ba76000f3fe608060405234801561001057600080fd5b506004361061023d5760003560e01c80637158da7c1161013b578063b07f0a41116100b8578063dd62ed3e1161007c578063dd62ed3e146109ea578063e1aef23f14610a62578063f18a6b7814610ac1578063f3eb8cab14610adf578063ffd9eedb14610b085761023d565b8063b07f0a41146108f1578063c13256611461091f578063c52987cf14610940578063c9c667e31461095e578063ce7c2ac2146109925761023d565b806395d89b41116100ff57806395d89b41146107435780639a32c207146107c6578063a09263c2146107e7578063a457c2d714610829578063a9059cbb1461088d5761023d565b80637158da7c1461062b57806381af43d21461065f57806390e64d131461067d57806394bf804d1461069d57806394fe157c146106eb5761023d565b80632ad56863116101c95780633ccfd60b1161018d5780633ccfd60b1461055d578063430cf9f7146105675780634665096d1461058757806364e779b1146105a557806370a08231146105d35761023d565b80632ad568631461047b578063313ce5671461049c57806333afff92146104bd57806339509351146104db5780633a98ef391461053f5761023d565b806313af89801161021057806313af89801461036757806313e80f101461038757806317d69bc8146103a557806318160ddd146103d957806323b872dd146103f75761023d565b806306fdde0314610242578063095ea7b3146102c55780630d6cd8aa1461032957806311e0307314610349575b600080fd5b61024a610b31565b6040518080602001828103825283818151815260200191508051906020019080838360005b8381101561028a57808201518184015260208101905061026f565b50505050905090810190601f1680156102b75780820380516001836020036101000a031916815260200191505b509250505060405180910390f35b610311600480360360408110156102db57600080fd5b81019080803573ffffffffffffffffffffffffffffffffffffffff16906020019092919080359060200190929190505050610bd3565b60405180821515815260200191505060405180910390f35b610331610bf1565b60405180821515815260200191505060405180910390f35b610351610c00565b6040518082815260200191505060405180910390f35b61036f610c0a565b60405180821515815260200191505060405180910390f35b61038f610c19565b6040518082815260200191505060405180910390f35b6103ad610c20565b604051808273ffffffffffffffffffffffffffffffffffffffff16815260200191505060405180910390f35b6103e1610c48565b6040518082815260200191505060405180910390f35b6104636004803603606081101561040d57600080fd5b81019080803573ffffffffffffffffffffffffffffffffffffffff169060200190929190803573ffffffffffffffffffffffffffffffffffffffff16906020019092919080359060200190929190505050610c52565b60405180821515815260200191505060405180910390f35b610483610d2b565b604051808260ff16815260200191505060405180910390f35b6104a4610d53565b604051808260ff16815260200191505060405180910390f35b6104c5610d6a565b6040518082815260200191505060405180910390f35b610527600480360360408110156104f157600080fd5b81019080803573ffffffffffffffffffffffffffffffffffffffff16906020019092919080359060200190929190505050610eb8565b60405180821515815260200191505060405180910390f35b610547610f6b565b6040518082815260200191505060405180910390f35b610565610f71565b005b61056f6110a5565b60405180821515815260200191505060405180910390f35b61058f6110b4565b6040518082815260200191505060405180910390f35b6105d1600480360360208110156105bb57600080fd5b81019080803590602001909291905050506110dc565b005b610615600480360360208110156105e957600080fd5b81019080803573ffffffffffffffffffffffffffffffffffffffff169060200190929190505050611264565b6040518082815260200191505060405180910390f35b6106336112ac565b604051808273ffffffffffffffffffffffffffffffffffffffff16815260200191505060405180910390f35b6106676112d4565b6040518082815260200191505060405180910390f35b61068561139d565b60405180821515815260200191505060405180910390f35b6106e9600480360360408110156106b357600080fd5b8101908080359060200190929190803573ffffffffffffffffffffffffffffffffffffffff1690602001909291905050506113ac565b005b61072d6004803603602081101561070157600080fd5b81019080803573ffffffffffffffffffffffffffffffffffffffff169060200190929190505050611501565b6040518082815260200191505060405180910390f35b61074b611519565b6040518080602001828103825283818151815260200191508051906020019080838360005b8381101561078b578082015181840152602081019050610770565b50505050905090810190601f1680156107b85780820380516001836020036101000a031916815260200191505b509250505060405180910390f35b6107ce6115bb565b604051808260ff16815260200191505060405180910390f35b610813600480360360208110156107fd57600080fd5b81019080803590602001909291905050506115e3565b6040518082815260200191505060405180910390f35b6108756004803603604081101561083f57600080fd5b81019080803573ffffffffffffffffffffffffffffffffffffffff169060200190929190803590602001909291905050506115f5565b60405180821515815260200191505060405180910390f35b6108d9600480360360408110156108a357600080fd5b81019080803573ffffffffffffffffffffffffffffffffffffffff169060200190929190803590602001909291905050506116c2565b60405180821515815260200191505060405180910390f35b61091d6004803603602081101561090757600080fd5b81019080803590602001909291905050506116e0565b005b610927611865565b604051808260ff16815260200191505060405180910390f35b61094861188d565b6040518082815260200191505060405180910390f35b6109666118b5565b604051808273ffffffffffffffffffffffffffffffffffffffff16815260200191505060405180910390f35b6109d4600480360360208110156109a857600080fd5b81019080803573ffffffffffffffffffffffffffffffffffffffff1690602001909291905050506118d9565b6040518082815260200191505060405180910390f35b610a4c60048036036040811015610a0057600080fd5b81019080803573ffffffffffffffffffffffffffffffffffffffff169060200190929190803573ffffffffffffffffffffffffffffffffffffffff1690602001909291905050506118f1565b6040518082815260200191505060405180910390f35b610aa460048036036020811015610a7857600080fd5b81019080803573ffffffffffffffffffffffffffffffffffffffff169060200190929190505050611978565b604051808381526020018281526020019250505060405180910390f35b610ac9611a25565b6040518082815260200191505060405180910390f35b610ae7611aee565b60405180826001811115610af757fe5b815260200191505060405180910390f35b610b10611b16565b60405180826001811115610b2057fe5b815260200191505060405180910390f35b606060038054600181600116156101000203166002900480601f016020809104026020016040519081016040528092919081815260200182805460018160011615610100020316600290048015610bc95780601f10610b9e57610100808354040283529160200191610bc9565b820191906000526020600020905b815481529060010190602001808311610bac57829003601f168201915b5050505050905090565b6000610be7610be0611bd4565b8484611bdc565b6001905092915050565b6000610bfb611dd3565b905090565b6000600654905090565b6000610c14611df1565b905090565b6201518081565b60007f0000000000000000000000000000000000000000000000000000000000000000905090565b6000600254905090565b6000610c5f848484611e00565b610d2084610c6b611bd4565b610d1b85604051806060016040528060288152602001613a0160289139600160008b73ffffffffffffffffffffffffffffffffffffffff1673ffffffffffffffffffffffffffffffffffffffff1681526020019081526020016000206000610cd1611bd4565b73ffffffffffffffffffffffffffffffffffffffff1673ffffffffffffffffffffffffffffffffffffffff168152602001908152602001600020546120c19092919063ffffffff16565b611bdc565b600190509392505050565b60007f0000000000000000000000000000000000000000000000000000000000000000905090565b6000600560009054906101000a900460ff16905090565b6000807f000000000000000000000000000000000000000000000000000000000000000073ffffffffffffffffffffffffffffffffffffffff16635fa5c8ce6040518163ffffffff1660e01b815260040160206040518083038186803b158015610dd357600080fd5b505afa158015610de7573d6000803e3d6000fd5b505050506040513d6020811015610dfd57600080fd5b810190808051906020019092919050505090508073ffffffffffffffffffffffffffffffffffffffff1663b3aefb75306040518263ffffffff1660e01b8152600401808273ffffffffffffffffffffffffffffffffffffffff16815260200191505060206040518083038186803b158015610e7757600080fd5b505afa158015610e8b573d6000803e3d6000fd5b505050506040513d6020811015610ea157600080fd5b810190808051906020019092919050505091505090565b6000610f61610ec5611bd4565b84610f5c8560016000610ed6611bd4565b73ffffffffffffffffffffffffffffffffffffffff1673ffffffffffffffffffffffffffffffffffffffff16815260200190815260200160002060008973ffffffffffffffffffffffffffffffffffffffff1673ffffffffffffffffffffffffffffffffffffffff1681526020019081526020016000205461217b90919063ffffffff16565b611bdc565b6001905092915050565b60095481565b610f79611df1565b610fce576040517f08c379a00000000000000000000000000000000000000000000000000000000081526004018080602001828103825260258152602001806139bb6025913960400191505060405180910390fd5b600080610fd9612203565b9150915061100f3383610fea610c20565b73ffffffffffffffffffffffffffffffffffffffff1661235e9092919063ffffffff16565b600081111561104b5761104a33826110256112ac565b73ffffffffffffffffffffffffffffffffffffffff1661235e9092919063ffffffff16565b5b3373ffffffffffffffffffffffffffffffffffffffff167ff279e6a1f5e320cca91135676d9cb6e44ca8a08c0b88342bcdb1144f6511b5688383604051808381526020018281526020019250505060405180910390a25050565b60006110af612400565b905090565b60007f0000000000000000000000000000000000000000000000000000000000000000905090565b6110e4612400565b806110f357506110f2611dd3565b5b611165576040517f08c379a000000000000000000000000000000000000000000000000000000000815260040180806020018281038252601f8152602001807f506f644f7074696f6e3a206e6f7420696e20756e6d696e742077696e646f770081525060200191505060405180910390fd5b600080611172833361246f565b91509150600082116111cf576040517f08c379a0000000000000000000000000000000000000000000000000000000008152600401808060200182810382526024815260200180613a296024913960400191505060405180910390fd5b61120133836111dc610c20565b73ffffffffffffffffffffffffffffffffffffffff1661235e9092919063ffffffff16565b3373ffffffffffffffffffffffffffffffffffffffff167fe7220e099ba565b4a1b81002e7ef36ec69247fb255ff47f989746f3265762baa84848460405180848152602001838152602001828152602001935050505060405180910390a2505050565b60008060008373ffffffffffffffffffffffffffffffffffffffff1673ffffffffffffffffffffffffffffffffffffffff168152602001908152602001600020549050919050565b60007f0000000000000000000000000000000000000000000000000000000000000000905090565b60007f000000000000000000000000000000000000000000000000000000000000000073ffffffffffffffffffffffffffffffffffffffff166370a08231306040518263ffffffff1660e01b8152600401808273ffffffffffffffffffffffffffffffffffffffff16815260200191505060206040518083038186803b15801561135d57600080fd5b505afa158015611371573d6000803e3d6000fd5b505050506040513d602081101561138757600080fd5b8101908080519060200190929190505050905090565b60006113a761298e565b905090565b6113b4612400565b611409576040517f08c379a0000000000000000000000000000000000000000000000000000000008152600401808060200182810382526022815260200180613b2b6022913960400191505060405180910390fd5b60008211611462576040517f08c379a00000000000000000000000000000000000000000000000000000000081526004018080602001828103825260258152602001806139966025913960400191505060405180910390fd5b600061146d836129b9565b905061147a838284612a72565b6114ae333083611488610c20565b73ffffffffffffffffffffffffffffffffffffffff16612dd7909392919063ffffffff16565b8173ffffffffffffffffffffffffffffffffffffffff167f0f6798a560793a54c3bcfe86a93cde1e73087d944c0ea20544137d4121396885846040518082815260200191505060405180910390a2505050565b60086020528060005260406000206000915090505481565b606060048054600181600116156101000203166002900480601f0160208091040260200160405190810160405280929190818152602001828054600181600116156101000203166002900480156115b15780601f10611586576101008083540402835291602001916115b1565b820191906000526020600020905b81548152906001019060200180831161159457829003601f168201915b5050505050905090565b60007f0000000000000000000000000000000000000000000000000000000000000000905090565b60006115ee826129b9565b9050919050565b60006116b8611602611bd4565b846116b385604051806060016040528060258152602001613b4d602591396001600061162c611bd4565b73ffffffffffffffffffffffffffffffffffffffff1673ffffffffffffffffffffffffffffffffffffffff16815260200190815260200160002060008a73ffffffffffffffffffffffffffffffffffffffff1673ffffffffffffffffffffffffffffffffffffffff168152602001908152602001600020546120c19092919063ffffffff16565b611bdc565b6001905092915050565b60006116d66116cf611bd4565b8484611e00565b6001905092915050565b6116e8611dd3565b61173d576040517f08c379a0000000000000000000000000000000000000000000000000000000008152600401808060200182810382526021815260200180613a766021913960400191505060405180910390fd5b60008111611796576040517f08c379a0000000000000000000000000000000000000000000000000000000008152600401808060200182810382526029815260200180613a4d6029913960400191505060405180910390fd5b60006117a1826129b9565b90506117ad3383612e98565b6117e13330846117bb6112ac565b73ffffffffffffffffffffffffffffffffffffffff16612dd7909392919063ffffffff16565b61181333826117ee610c20565b73ffffffffffffffffffffffffffffffffffffffff1661235e9092919063ffffffff16565b3373ffffffffffffffffffffffffffffffffffffffff167f5a20425ee28c08dfaf53c051ce9fb1fdfedad2949379924d3313a74c2c61a2a5836040518082815260200191505060405180910390a25050565b60007f0000000000000000000000000000000000000000000000000000000000000000905090565b60007f0000000000000000000000000000000000000000000000000000000000000000905090565b7f000000000000000000000000000000000000000000000000000000000000000081565b60076020528060005260406000206000915090505481565b6000600160008473ffffffffffffffffffffffffffffffffffffffff1673ffffffffffffffffffffffffffffffffffffffff16815260200190815260200160002060008373ffffffffffffffffffffffffffffffffffffffff1673ffffffffffffffffffffffffffffffffffffffff16815260200190815260200160002054905092915050565b6000806000600760008573ffffffffffffffffffffffffffffffffffffffff1673ffffffffffffffffffffffffffffffffffffffff1681526020019081526020016000205490506119ed6009546119df6119d06112d4565b8461305c90919063ffffffff16565b6130e290919063ffffffff16565b9250611a1d600954611a0f611a00611a25565b8461305c90919063ffffffff16565b6130e290919063ffffffff16565b915050915091565b60007f000000000000000000000000000000000000000000000000000000000000000073ffffffffffffffffffffffffffffffffffffffff166370a08231306040518263ffffffff1660e01b8152600401808273ffffffffffffffffffffffffffffffffffffffff16815260200191505060206040518083038186803b158015611aae57600080fd5b505afa158015611ac2573d6000803e3d6000fd5b505050506040513d6020811015611ad857600080fd5b8101908080519060200190929190505050905090565b60007f0000000000000000000000000000000000000000000000000000000000000000905090565b60007f0000000000000000000000000000000000000000000000000000000000000000905090565b600080823b905060008111915050919050565b600082821115611bc9576040517f08c379a000000000000000000000000000000000000000000000000000000000815260040180806020018281038252601e8152602001807f536166654d6174683a207375627472616374696f6e206f766572666c6f77000081525060200191505060405180910390fd5b818303905092915050565b600033905090565b600073ffffffffffffffffffffffffffffffffffffffff168373ffffffffffffffffffffffffffffffffffffffff161415611c62576040517f08c379a0000000000000000000000000000000000000000000000000000000008152600401808060200182810382526024815260200180613add6024913960400191505060405180910390fd5b600073ffffffffffffffffffffffffffffffffffffffff168273ffffffffffffffffffffffffffffffffffffffff161415611ce8576040517f08c379a000000000000000000000000000000000000000000000000000000000815260040180806020018281038252602281526020018061385b6022913960400191505060405180910390fd5b80600160008573ffffffffffffffffffffffffffffffffffffffff1673ffffffffffffffffffffffffffffffffffffffff16815260200190815260200160002060008473ffffffffffffffffffffffffffffffffffffffff1673ffffffffffffffffffffffffffffffffffffffff168152602001908152602001600020819055508173ffffffffffffffffffffffffffffffffffffffff168373ffffffffffffffffffffffffffffffffffffffff167f8c5be1e5ebec7d5bd14f71427d1e84f3dd0314c0f7b2291e5b200ac8c7c3b925836040518082815260200191505060405180910390a3505050565b6000611ddd61298e565b158015611dec57506006544210155b905090565b6000611dfb61298e565b905090565b600073ffffffffffffffffffffffffffffffffffffffff168373ffffffffffffffffffffffffffffffffffffffff161415611e86576040517f08c379a0000000000000000000000000000000000000000000000000000000008152600401808060200182810382526025815260200180613ab86025913960400191505060405180910390fd5b600073ffffffffffffffffffffffffffffffffffffffff168273ffffffffffffffffffffffffffffffffffffffff161415611f0c576040517f08c379a00000000000000000000000000000000000000000000000000000000081526004018080602001828103825260238152602001806138166023913960400191505060405180910390fd5b611f1783838361316b565b611f82816040518060600160405280602681526020016138fd602691396000808773ffffffffffffffffffffffffffffffffffffffff1673ffffffffffffffffffffffffffffffffffffffff168152602001908152602001600020546120c19092919063ffffffff16565b6000808573ffffffffffffffffffffffffffffffffffffffff1673ffffffffffffffffffffffffffffffffffffffff16815260200190815260200160002081905550612015816000808573ffffffffffffffffffffffffffffffffffffffff1673ffffffffffffffffffffffffffffffffffffffff1681526020019081526020016000205461217b90919063ffffffff16565b6000808473ffffffffffffffffffffffffffffffffffffffff1673ffffffffffffffffffffffffffffffffffffffff168152602001908152602001600020819055508173ffffffffffffffffffffffffffffffffffffffff168373ffffffffffffffffffffffffffffffffffffffff167fddf252ad1be2c89b69c2b068fc378daa952ba7f163c4a11628f55a4df523b3ef836040518082815260200191505060405180910390a3505050565b600083831115829061216e576040517f08c379a00000000000000000000000000000000000000000000000000000000081526004018080602001828103825283818151815260200191508051906020019080838360005b83811015612133578082015181840152602081019050612118565b50505050905090810190601f1680156121605780820380516001836020036101000a031916815260200191505b509250505060405180910390fd5b5082840390509392505050565b6000808284019050838110156121f9576040517f08c379a000000000000000000000000000000000000000000000000000000000815260040180806020018281038252601b8152602001807f536166654d6174683a206164646974696f6e206f766572666c6f77000000000081525060200191505060405180910390fd5b8091505092915050565b6000806000600760003373ffffffffffffffffffffffffffffffffffffffff1673ffffffffffffffffffffffffffffffffffffffff168152602001908152602001600020549050600081116122a3576040517f08c379a000000000000000000000000000000000000000000000000000000000815260040180806020018281038252602e8152602001806138a4602e913960400191505060405180910390fd5b6122ac33611978565b80935081945050506000600760003373ffffffffffffffffffffffffffffffffffffffff1673ffffffffffffffffffffffffffffffffffffffff168152602001908152602001600020819055506000600860003373ffffffffffffffffffffffffffffffffffffffff1673ffffffffffffffffffffffffffffffffffffffff1681526020019081526020016000208190555061235381600954611b5190919063ffffffff16565b600981905550509091565b6123fb8363a9059cbb60e01b8484604051602401808373ffffffffffffffffffffffffffffffffffffffff16815260200182815260200192505050604051602081830303815290604052907bffffffffffffffffffffffffffffffffffffffffffffffffffffffff19166020820180517bffffffffffffffffffffffffffffffffffffffffffffffffffffffff8381831617835250505050613170565b505050565b600061240a61298e565b15612418576000905061246c565b6000600181111561242557fe5b7f0000000000000000000000000000000000000000000000000000000000000000600181111561245157fe5b14156124675761245f611dd3565b15905061246c565b600190505b90565b6000806000600760008573ffffffffffffffffffffffffffffffffffffffff1673ffffffffffffffffffffffffffffffffffffffff168152602001908152602001600020541161250a576040517f08c379a000000000000000000000000000000000000000000000000000000000815260040180806020018281038252602981526020018061396d6029913960400191505060405180910390fd5b600860008473ffffffffffffffffffffffffffffffffffffffff1673ffffffffffffffffffffffffffffffffffffffff168152602001908152602001600020548411156125a2576040517f08c379a00000000000000000000000000000000000000000000000000000000081526004018080602001828103825260248152602001806139236024913960400191505060405180910390fd5b6000612647600860008673ffffffffffffffffffffffffffffffffffffffff1673ffffffffffffffffffffffffffffffffffffffff1681526020019081526020016000205461263987600760008973ffffffffffffffffffffffffffffffffffffffff1673ffffffffffffffffffffffffffffffffffffffff1681526020019081526020016000205461305c90919063ffffffff16565b6130e290919063ffffffff16565b90506000600181111561265657fe5b7f0000000000000000000000000000000000000000000000000000000000000000600181111561268257fe5b14156127c05760006126e3612695610d53565b60ff16600a0a6126d57f00000000000000000000000000000000000000000000000000000000000000006126c7610c48565b61305c90919063ffffffff16565b6130e290919063ffffffff16565b90506000816126f06112d4565b111561271357612710826127026112d4565b611b5190919063ffffffff16565b90505b61279d61273d60095461272f868561305c90919063ffffffff16565b6130e290919063ffffffff16565b61278f612748610d53565b60ff16600a0a6127817f00000000000000000000000000000000000000000000000000000000000000008c61305c90919063ffffffff16565b6130e290919063ffffffff16565b61217b90919063ffffffff16565b94506127a76112d4565b8511156127b9576127b66112d4565b94505b5050612837565b60006127ca610c48565b905060006127d6611a25565b90506000828211156127f8576127f58383611b5190919063ffffffff16565b90505b612831612822600954612814878561305c90919063ffffffff16565b6130e290919063ffffffff16565b8961217b90919063ffffffff16565b94505050505b61288981600760008773ffffffffffffffffffffffffffffffffffffffff1673ffffffffffffffffffffffffffffffffffffffff16815260200190815260200160002054611b5190919063ffffffff16565b600760008673ffffffffffffffffffffffffffffffffffffffff1673ffffffffffffffffffffffffffffffffffffffff1681526020019081526020016000208190555061291e85600860008773ffffffffffffffffffffffffffffffffffffffff1673ffffffffffffffffffffffffffffffffffffffff16815260200190815260200160002054611b5190919063ffffffff16565b600860008673ffffffffffffffffffffffffffffffffffffffff1673ffffffffffffffffffffffffffffffffffffffff1681526020019081526020016000208190555061297681600954611b5190919063ffffffff16565b6009819055506129868486612e98565b509250929050565b60007f0000000000000000000000000000000000000000000000000000000000000000421015905090565b600080612a0e6129c76115bb565b60ff16600a0a612a007f00000000000000000000000000000000000000000000000000000000000000008661305c90919063ffffffff16565b6130e290919063ffffffff16565b905060008111612a69576040517f08c379a000000000000000000000000000000000000000000000000000000000815260040180806020018281038252602781526020018061387d6027913960400191505060405180910390fd5b80915050919050565b826000612a7d610d6a565b90506000811115612b915780612b1c833073ffffffffffffffffffffffffffffffffffffffff166318160ddd6040518163ffffffff1660e01b815260040160206040518083038186803b158015612ad357600080fd5b505afa158015612ae7573d6000803e3d6000fd5b505050506040513d6020811015612afd57600080fd5b810190808051906020019092919050505061217b90919063ffffffff16565b1115612b90576040517f08c379a000000000000000000000000000000000000000000000000000000000815260040180806020018281038252601f8152602001807f4361707065644f7074696f6e3a20616d6f756e7420657863656564206361700081525060200191505060405180910390fd5b5b600073ffffffffffffffffffffffffffffffffffffffff168373ffffffffffffffffffffffffffffffffffffffff161415612c17576040517f08c379a000000000000000000000000000000000000000000000000000000000815260040180806020018281038252602b8152602001806138d2602b913960400191505060405180910390fd5b60006009541115612ce5576000612c2d8561325f565b9050612c8181600760008773ffffffffffffffffffffffffffffffffffffffff1673ffffffffffffffffffffffffffffffffffffffff1681526020019081526020016000205461217b90919063ffffffff16565b600760008673ffffffffffffffffffffffffffffffffffffffff1673ffffffffffffffffffffffffffffffffffffffff16815260200190815260200160002081905550612cd98160095461217b90919063ffffffff16565b60098190555050612d31565b83600760008573ffffffffffffffffffffffffffffffffffffffff1673ffffffffffffffffffffffffffffffffffffffff16815260200190815260200160002081905550836009819055505b612d8385600860008673ffffffffffffffffffffffffffffffffffffffff1673ffffffffffffffffffffffffffffffffffffffff1681526020019081526020016000205461217b90919063ffffffff16565b600860008573ffffffffffffffffffffffffffffffffffffffff1673ffffffffffffffffffffffffffffffffffffffff16815260200190815260200160002081905550612dd033866133c1565b5050505050565b612e92846323b872dd60e01b858585604051602401808473ffffffffffffffffffffffffffffffffffffffff1681526020018373ffffffffffffffffffffffffffffffffffffffff1681526020018281526020019350505050604051602081830303815290604052907bffffffffffffffffffffffffffffffffffffffffffffffffffffffff19166020820180517bffffffffffffffffffffffffffffffffffffffffffffffffffffffff8381831617835250505050613170565b50505050565b600073ffffffffffffffffffffffffffffffffffffffff168273ffffffffffffffffffffffffffffffffffffffff161415612f1e576040517f08c379a0000000000000000000000000000000000000000000000000000000008152600401808060200182810382526021815260200180613a976021913960400191505060405180910390fd5b612f2a8260008361316b565b612f9581604051806060016040528060228152602001613839602291396000808673ffffffffffffffffffffffffffffffffffffffff1673ffffffffffffffffffffffffffffffffffffffff168152602001908152602001600020546120c19092919063ffffffff16565b6000808473ffffffffffffffffffffffffffffffffffffffff1673ffffffffffffffffffffffffffffffffffffffff16815260200190815260200160002081905550612fec81600254611b5190919063ffffffff16565b600281905550600073ffffffffffffffffffffffffffffffffffffffff168273ffffffffffffffffffffffffffffffffffffffff167fddf252ad1be2c89b69c2b068fc378daa952ba7f163c4a11628f55a4df523b3ef836040518082815260200191505060405180910390a35050565b60008083141561306f57600090506130dc565b600082840290508284828161308057fe5b04146130d7576040517f08c379a00000000000000000000000000000000000000000000000000000000081526004018080602001828103825260218152602001806139e06021913960400191505060405180910390fd5b809150505b92915050565b6000808211613159576040517f08c379a000000000000000000000000000000000000000000000000000000000815260040180806020018281038252601a8152602001807f536166654d6174683a206469766973696f6e206279207a65726f00000000000081525060200191505060405180910390fd5b81838161316257fe5b04905092915050565b505050565b60606131d2826040518060400160405280602081526020017f5361666545524332303a206c6f772d6c6576656c2063616c6c206661696c65648152508573ffffffffffffffffffffffffffffffffffffffff166135889092919063ffffffff16565b905060008151111561325a578080602001905160208110156131f357600080fd5b8101908080519060200190929190505050613259576040517f08c379a000000000000000000000000000000000000000000000000000000000815260040180806020018281038252602a815260200180613b01602a913960400191505060405180910390fd5b5b505050565b60008061326a6112d4565b90506000613276611a25565b9050600061328f6009548661305c90919063ffffffff16565b9050600080600181111561329f57fe5b7f000000000000000000000000000000000000000000000000000000000000000060018111156132cb57fe5b141561333c576133356133266132df6115bb565b60ff16600a0a6133187f00000000000000000000000000000000000000000000000000000000000000008761305c90919063ffffffff16565b6130e290919063ffffffff16565b8561217b90919063ffffffff16565b90506133a3565b6133a06133917f000000000000000000000000000000000000000000000000000000000000000061338361336e6115bb565b60ff16600a0a8861305c90919063ffffffff16565b6130e290919063ffffffff16565b8461217b90919063ffffffff16565b90505b6133b681836130e290919063ffffffff16565b945050505050919050565b600073ffffffffffffffffffffffffffffffffffffffff168273ffffffffffffffffffffffffffffffffffffffff161415613464576040517f08c379a000000000000000000000000000000000000000000000000000000000815260040180806020018281038252601f8152602001807f45524332303a206d696e7420746f20746865207a65726f20616464726573730081525060200191505060405180910390fd5b6134706000838361316b565b6134858160025461217b90919063ffffffff16565b6002819055506134dc816000808573ffffffffffffffffffffffffffffffffffffffff1673ffffffffffffffffffffffffffffffffffffffff1681526020019081526020016000205461217b90919063ffffffff16565b6000808473ffffffffffffffffffffffffffffffffffffffff1673ffffffffffffffffffffffffffffffffffffffff168152602001908152602001600020819055508173ffffffffffffffffffffffffffffffffffffffff16600073ffffffffffffffffffffffffffffffffffffffff167fddf252ad1be2c89b69c2b068fc378daa952ba7f163c4a11628f55a4df523b3ef836040518082815260200191505060405180910390a35050565b606061359784846000856135a0565b90509392505050565b6060824710156135fb576040517f08c379a00000000000000000000000000000000000000000000000000000000081526004018080602001828103825260268152602001806139476026913960400191505060405180910390fd5b61360485611b3e565b613676576040517f08c379a000000000000000000000000000000000000000000000000000000000815260040180806020018281038252601d8152602001807f416464726573733a2063616c6c20746f206e6f6e2d636f6e747261637400000081525060200191505060405180910390fd5b600060608673ffffffffffffffffffffffffffffffffffffffff1685876040518082805190602001908083835b602083106136c657805182526020820191506020810190506020830392506136a3565b6001836020036101000a03801982511681845116808217855250505050505090500191505060006040518083038185875af1925050503d8060008114613728576040519150601f19603f3d011682016040523d82523d6000602084013e61372d565b606091505b509150915061373d828286613749565b92505050949350505050565b606083156137595782905061380e565b60008351111561376c5782518084602001fd5b816040517f08c379a00000000000000000000000000000000000000000000000000000000081526004018080602001828103825283818151815260200191508051906020019080838360005b838110156137d35780820151818401526020810190506137b8565b50505050905090810190601f1680156138005780820380516001836020036101000a031916815260200191505b509250505060405180910390fd5b939250505056fe45524332303a207472616e7366657220746f20746865207a65726f206164647265737345524332303a206275726e20616d6f756e7420657863656564732062616c616e636545524332303a20617070726f766520746f20746865207a65726f2061646472657373506f644f7074696f6e3a20616d6f756e74206f66206f7074696f6e7320697320746f6f206c6f77506f644f7074696f6e3a20796f7520646f206e6f7420686176652062616c616e636520746f207769746864726177506f644f7074696f6e3a207a65726f20616464726573732063616e6e6f7420626520746865206f776e657245524332303a207472616e7366657220616d6f756e7420657863656564732062616c616e6365506f644f7074696f6e3a206e6f7420656e6f756768206d696e746564206f7074696f6e73416464726573733a20696e73756666696369656e742062616c616e636520666f722063616c6c506f644f7074696f6e3a20796f7520646f206e6f742068617665206d696e746564206f7074696f6e73506f645075743a20796f752063616e206e6f74206d696e74207a65726f206f7074696f6e73506f644f7074696f6e3a206f7074696f6e20686173206e6f74206578706972656420796574536166654d6174683a206d756c7469706c69636174696f6e206f766572666c6f7745524332303a207472616e7366657220616d6f756e74206578636565647320616c6c6f77616e6365506f645075743a20616d6f756e74206f66206f7074696f6e7320697320746f6f206c6f77506f645075743a20796f752063616e206e6f74206578657263697365207a65726f206f7074696f6e73506f644f7074696f6e3a206e6f7420696e2065786572636973652077696e646f7745524332303a206275726e2066726f6d20746865207a65726f206164647265737345524332303a207472616e736665722066726f6d20746865207a65726f206164647265737345524332303a20617070726f76652066726f6d20746865207a65726f20616464726573735361666545524332303a204552433230206f7065726174696f6e20646964206e6f742073756363656564506f644f7074696f6e3a2074726164652077696e646f772068617320636c6f73656445524332303a2064656372656173656420616c6c6f77616e63652062656c6f77207a65726fa2646970667358221220d26c100cd028061edfe0d53066ecc14769dc81cf19002bb985510c70afd21b6364736f6c634300060c0033506f644f7074696f6e3a20756e6465726c79696e6720617373657420616e6420737472696b65206173736574206d75737420646966666572506f644f7074696f6e3a2065786572636973652077696e646f772073697a65206d75737420626520657175616c20746f207a65726f506f644f7074696f6e3a20737472696b65207072696365206d7573742062652067726561746572207468616e207a65726f506f644f7074696f6e3a2065786572636973652077696e646f77206d7573742062652067726561746572207468616e206f7220657175616c203836343030506f644f7074696f6e3a2065787069726174696f6e2073686f756c6420626520696e20746865206675747572655265717569726564446563696d616c733a20746f6b656e20646563696d616c732073686f756c64206265206c6f776572207468616e203338506f644f7074696f6e3a20756e6465726c79696e67206173736574206973206e6f74206120636f6e7472616374506f644f7074696f6e3a20737472696b65206173736574206973206e6f74206120636f6e74726163745265717569726564446563696d616c733a20726571756972656420646563696d616c73",
  "linkReferences": {},
  "deployedLinkReferences": {}
}