{
  "_format": "hh-sol-artifact-1",
  "contractName": "PodCall",
  "sourceName": "@pods/contracts/contracts/options/PodCall.sol",
  "abi": [
    {
      "inputs": [
        {
          "internalType": "string",
          "name": "name",
          "type": "string"
        },
        {
          "internalType": "string",
          "name": "symbol",
          "type": "string"
        },
        {
          "internalType": "enum IPodOption.ExerciseType",
          "name": "exerciseType",
          "type": "uint8"
        },
        {
          "internalType": "address",
          "name": "underlyingAsset",
          "type": "address"
        },
        {
          "internalType": "address",
          "name": "strikeAsset",
          "type": "address"
        },
        {
          "internalType": "uint256",
          "name": "strikePrice",
          "type": "uint256"
        },
        {
          "internalType": "uint256",
          "name": "expiration",
          "type": "uint256"
        },
        {
          "internalType": "uint256",
          "name": "exerciseWindowSize",
          "type": "uint256"
        },
        {
          "internalType": "contract IConfigurationManager",
          "name": "configurationManager",
          "type": "address"
        }
      ],
      "stateMutability": "nonpayable",
      "type": "constructor"
    },
    {
      "anonymous": false,
      "inputs": [
        {
          "indexed": true,
          "internalType": "address",
          "name": "owner",
          "type": "address"
        },
        {
          "indexed": true,
          "internalType": "address",
          "name": "spender",
          "type": "address"
        },
        {
          "indexed": false,
          "internalType": "uint256",
          "name": "value",
          "type": "uint256"
        }
      ],
      "name": "Approval",
      "type": "event"
    },
    {
      "anonymous": false,
      "inputs": [
        {
          "indexed": true,
          "internalType": "address",
          "name": "exerciser",
          "type": "address"
        },
        {
          "indexed": false,
          "internalType": "uint256",
          "name": "amount",
          "type": "uint256"
        }
      ],
      "name": "Exercise",
      "type": "event"
    },
    {
      "anonymous": false,
      "inputs": [
        {
          "indexed": true,
          "internalType": "address",
          "name": "minter",
          "type": "address"
        },
        {
          "indexed": false,
          "internalType": "uint256",
          "name": "amount",
          "type": "uint256"
        }
      ],
      "name": "Mint",
      "type": "event"
    },
    {
      "anonymous": false,
      "inputs": [
        {
          "indexed": true,
          "internalType": "address",
          "name": "from",
          "type": "address"
        },
        {
          "indexed": true,
          "internalType": "address",
          "name": "to",
          "type": "address"
        },
        {
          "indexed": false,
          "internalType": "uint256",
          "name": "value",
          "type": "uint256"
        }
      ],
      "name": "Transfer",
      "type": "event"
    },
    {
      "anonymous": false,
      "inputs": [
        {
          "indexed": true,
          "internalType": "address",
          "name": "minter",
          "type": "address"
        },
        {
          "indexed": false,
          "internalType": "uint256",
          "name": "optionAmount",
          "type": "uint256"
        },
        {
          "indexed": false,
          "internalType": "uint256",
          "name": "strikeAmount",
          "type": "uint256"
        },
        {
          "indexed": false,
          "internalType": "uint256",
          "name": "underlyingAmount",
          "type": "uint256"
        }
      ],
      "name": "Unmint",
      "type": "event"
    },
    {
      "anonymous": false,
      "inputs": [
        {
          "indexed": true,
          "internalType": "address",
          "name": "minter",
          "type": "address"
        },
        {
          "indexed": false,
          "internalType": "uint256",
          "name": "strikeAmount",
          "type": "uint256"
        },
        {
          "indexed": false,
          "internalType": "uint256",
          "name": "underlyingAmount",
          "type": "uint256"
        }
      ],
      "name": "Withdraw",
      "type": "event"
    },
    {
      "inputs": [],
      "name": "MIN_EXERCISE_WINDOW_SIZE",
      "outputs": [
        {
          "internalType": "uint256",
          "name": "",
          "type": "uint256"
        }
      ],
      "stateMutability": "view",
      "type": "function"
    },
    {
      "inputs": [
        {
          "internalType": "address",
          "name": "owner",
          "type": "address"
        },
        {
          "internalType": "address",
          "name": "spender",
          "type": "address"
        }
      ],
      "name": "allowance",
      "outputs": [
        {
          "internalType": "uint256",
          "name": "",
          "type": "uint256"
        }
      ],
      "stateMutability": "view",
      "type": "function"
    },
    {
      "inputs": [
        {
          "internalType": "address",
          "name": "spender",
          "type": "address"
        },
        {
          "internalType": "uint256",
          "name": "amount",
          "type": "uint256"
        }
      ],
      "name": "approve",
      "outputs": [
        {
          "internalType": "bool",
          "name": "",
          "type": "bool"
        }
      ],
      "stateMutability": "nonpayable",
      "type": "function"
    },
    {
      "inputs": [
        {
          "internalType": "address",
          "name": "account",
          "type": "address"
        }
      ],
      "name": "balanceOf",
      "outputs": [
        {
          "internalType": "uint256",
          "name": "",
          "type": "uint256"
        }
      ],
      "stateMutability": "view",
      "type": "function"
    },
    {
      "inputs": [],
      "name": "capSize",
      "outputs": [
        {
          "internalType": "uint256",
          "name": "",
          "type": "uint256"
        }
      ],
      "stateMutability": "view",
      "type": "function"
    },
    {
      "inputs": [],
      "name": "configurationManager",
      "outputs": [
        {
          "internalType": "contract IConfigurationManager",
          "name": "",
          "type": "address"
        }
      ],
      "stateMutability": "view",
      "type": "function"
    },
    {
      "inputs": [],
      "name": "decimals",
      "outputs": [
        {
          "internalType": "uint8",
          "name": "",
          "type": "uint8"
        }
      ],
      "stateMutability": "view",
      "type": "function"
    },
    {
      "inputs": [
        {
          "internalType": "address",
          "name": "spender",
          "type": "address"
        },
        {
          "internalType": "uint256",
          "name": "subtractedValue",
          "type": "uint256"
        }
      ],
      "name": "decreaseAllowance",
      "outputs": [
        {
          "internalType": "bool",
          "name": "",
          "type": "bool"
        }
      ],
      "stateMutability": "nonpayable",
      "type": "function"
    },
    {
      "inputs": [
        {
          "internalType": "uint256",
          "name": "amountOfOptions",
          "type": "uint256"
        }
      ],
      "name": "exercise",
      "outputs": [],
      "stateMutability": "nonpayable",
      "type": "function"
    },
    {
      "inputs": [],
      "name": "exerciseType",
      "outputs": [
        {
          "internalType": "enum IPodOption.ExerciseType",
          "name": "",
          "type": "uint8"
        }
      ],
      "stateMutability": "view",
      "type": "function"
    },
    {
      "inputs": [],
      "name": "expiration",
      "outputs": [
        {
          "internalType": "uint256",
          "name": "",
          "type": "uint256"
        }
      ],
      "stateMutability": "view",
      "type": "function"
    },
    {
      "inputs": [
        {
          "internalType": "address",
          "name": "owner",
          "type": "address"
        }
      ],
      "name": "getSellerWithdrawAmounts",
      "outputs": [
        {
          "internalType": "uint256",
          "name": "strikeAmount",
          "type": "uint256"
        },
        {
          "internalType": "uint256",
          "name": "underlyingAmount",
          "type": "uint256"
        }
      ],
      "stateMutability": "view",
      "type": "function"
    },
    {
      "inputs": [],
      "name": "hasExpired",
      "outputs": [
        {
          "internalType": "bool",
          "name": "",
          "type": "bool"
        }
      ],
      "stateMutability": "view",
      "type": "function"
    },
    {
      "inputs": [
        {
          "internalType": "address",
          "name": "spender",
          "type": "address"
        },
        {
          "internalType": "uint256",
          "name": "addedValue",
          "type": "uint256"
        }
      ],
      "name": "increaseAllowance",
      "outputs": [
        {
          "internalType": "bool",
          "name": "",
          "type": "bool"
        }
      ],
      "stateMutability": "nonpayable",
      "type": "function"
    },
    {
      "inputs": [],
      "name": "isExerciseWindow",
      "outputs": [
        {
          "internalType": "bool",
          "name": "",
          "type": "bool"
        }
      ],
      "stateMutability": "view",
      "type": "function"
    },
    {
      "inputs": [],
      "name": "isTradeWindow",
      "outputs": [
        {
          "internalType": "bool",
          "name": "",
          "type": "bool"
        }
      ],
      "stateMutability": "view",
      "type": "function"
    },
    {
      "inputs": [],
      "name": "isWithdrawWindow",
      "outputs": [
        {
          "internalType": "bool",
          "name": "",
          "type": "bool"
        }
      ],
      "stateMutability": "view",
      "type": "function"
    },
    {
      "inputs": [
        {
          "internalType": "uint256",
          "name": "amountOfOptions",
          "type": "uint256"
        },
        {
          "internalType": "address",
          "name": "owner",
          "type": "address"
        }
      ],
      "name": "mint",
      "outputs": [],
      "stateMutability": "nonpayable",
      "type": "function"
    },
    {
      "inputs": [
        {
          "internalType": "address",
          "name": "",
          "type": "address"
        }
      ],
      "name": "mintedOptions",
      "outputs": [
        {
          "internalType": "uint256",
          "name": "",
          "type": "uint256"
        }
      ],
      "stateMutability": "view",
      "type": "function"
    },
    {
      "inputs": [],
      "name": "name",
      "outputs": [
        {
          "internalType": "string",
          "name": "",
          "type": "string"
        }
      ],
      "stateMutability": "view",
      "type": "function"
    },
    {
      "inputs": [],
      "name": "optionType",
      "outputs": [
        {
          "internalType": "enum IPodOption.OptionType",
          "name": "",
          "type": "uint8"
        }
      ],
      "stateMutability": "view",
      "type": "function"
    },
    {
      "inputs": [
        {
          "internalType": "address",
          "name": "",
          "type": "address"
        }
      ],
      "name": "shares",
      "outputs": [
        {
          "internalType": "uint256",
          "name": "",
          "type": "uint256"
        }
      ],
      "stateMutability": "view",
      "type": "function"
    },
    {
      "inputs": [],
      "name": "startOfExerciseWindow",
      "outputs": [
        {
          "internalType": "uint256",
          "name": "",
          "type": "uint256"
        }
      ],
      "stateMutability": "view",
      "type": "function"
    },
    {
      "inputs": [],
      "name": "strikeAsset",
      "outputs": [
        {
          "internalType": "address",
          "name": "",
          "type": "address"
        }
      ],
      "stateMutability": "view",
      "type": "function"
    },
    {
      "inputs": [],
      "name": "strikeAssetDecimals",
      "outputs": [
        {
          "internalType": "uint8",
          "name": "",
          "type": "uint8"
        }
      ],
      "stateMutability": "view",
      "type": "function"
    },
    {
      "inputs": [],
      "name": "strikePrice",
      "outputs": [
        {
          "internalType": "uint256",
          "name": "",
          "type": "uint256"
        }
      ],
      "stateMutability": "view",
      "type": "function"
    },
    {
      "inputs": [],
      "name": "strikePriceDecimals",
      "outputs": [
        {
          "internalType": "uint8",
          "name": "",
          "type": "uint8"
        }
      ],
      "stateMutability": "view",
      "type": "function"
    },
    {
      "inputs": [],
      "name": "strikeReserves",
      "outputs": [
        {
          "internalType": "uint256",
          "name": "",
          "type": "uint256"
        }
      ],
      "stateMutability": "view",
      "type": "function"
    },
    {
      "inputs": [
        {
          "internalType": "uint256",
          "name": "amountOfOptions",
          "type": "uint256"
        }
      ],
      "name": "strikeToTransfer",
      "outputs": [
        {
          "internalType": "uint256",
          "name": "",
          "type": "uint256"
        }
      ],
      "stateMutability": "view",
      "type": "function"
    },
    {
      "inputs": [],
      "name": "symbol",
      "outputs": [
        {
          "internalType": "string",
          "name": "",
          "type": "string"
        }
      ],
      "stateMutability": "view",
      "type": "function"
    },
    {
      "inputs": [],
      "name": "totalShares",
      "outputs": [
        {
          "internalType": "uint256",
          "name": "",
          "type": "uint256"
        }
      ],
      "stateMutability": "view",
      "type": "function"
    },
    {
      "inputs": [],
      "name": "totalSupply",
      "outputs": [
        {
          "internalType": "uint256",
          "name": "",
          "type": "uint256"
        }
      ],
      "stateMutability": "view",
      "type": "function"
    },
    {
      "inputs": [
        {
          "internalType": "address",
          "name": "recipient",
          "type": "address"
        },
        {
          "internalType": "uint256",
          "name": "amount",
          "type": "uint256"
        }
      ],
      "name": "transfer",
      "outputs": [
        {
          "internalType": "bool",
          "name": "",
          "type": "bool"
        }
      ],
      "stateMutability": "nonpayable",
      "type": "function"
    },
    {
      "inputs": [
        {
          "internalType": "address",
          "name": "sender",
          "type": "address"
        },
        {
          "internalType": "address",
          "name": "recipient",
          "type": "address"
        },
        {
          "internalType": "uint256",
          "name": "amount",
          "type": "uint256"
        }
      ],
      "name": "transferFrom",
      "outputs": [
        {
          "internalType": "bool",
          "name": "",
          "type": "bool"
        }
      ],
      "stateMutability": "nonpayable",
      "type": "function"
    },
    {
      "inputs": [],
      "name": "underlyingAsset",
      "outputs": [
        {
          "internalType": "address",
          "name": "",
          "type": "address"
        }
      ],
      "stateMutability": "view",
      "type": "function"
    },
    {
      "inputs": [],
      "name": "underlyingAssetDecimals",
      "outputs": [
        {
          "internalType": "uint8",
          "name": "",
          "type": "uint8"
        }
      ],
      "stateMutability": "view",
      "type": "function"
    },
    {
      "inputs": [],
      "name": "underlyingReserves",
      "outputs": [
        {
          "internalType": "uint256",
          "name": "",
          "type": "uint256"
        }
      ],
      "stateMutability": "view",
      "type": "function"
    },
    {
      "inputs": [
        {
          "internalType": "uint256",
          "name": "amountOfOptions",
          "type": "uint256"
        }
      ],
      "name": "unmint",
      "outputs": [],
      "stateMutability": "nonpayable",
      "type": "function"
    },
    {
      "inputs": [],
      "name": "withdraw",
      "outputs": [],
      "stateMutability": "nonpayable",
      "type": "function"
    }
  ],
  "bytecode": "0x6101c060405260006009553480156200001757600080fd5b50604051620048593803806200485983398181016040526101208110156200003e57600080fd5b81019080805160405193929190846401000000008211156200005f57600080fd5b838201915060208201858111156200007657600080fd5b82518660018202830111640100000000821117156200009457600080fd5b8083526020830192505050908051906020019080838360005b83811015620000ca578082015181840152602081019050620000ad565b50505050905090810190601f168015620000f85780820380516001836020036101000a031916815260200191505b50604052602001805160405193929190846401000000008211156200011c57600080fd5b838201915060208201858111156200013357600080fd5b82518660018202830111640100000000821117156200015157600080fd5b8083526020830192505050908051906020019080838360005b83811015620001875780820151818401526020810190506200016a565b50505050905090810190601f168015620001b55780820380516001836020036101000a031916815260200191505b50604052602001805190602001909291908051906020019092919080519060200190929190805190602001909291908051906020019092919080519060200190929190805190602001909291905050508888600189898989898989808a8a81600390805190602001906200022b92919062000a15565b5080600490805190602001906200024492919062000a15565b506012600560006101000a81548160ff021916908360ff16021790555050508073ffffffffffffffffffffffffffffffffffffffff1660808173ffffffffffffffffffffffffffffffffffffffff1660601b8152505050620002b1866200072d60201b62001ad71760201c565b62000308576040517f08c379a000000000000000000000000000000000000000000000000000000000815260040180806020018281038252602d815260200180620047e0602d913960400191505060405180910390fd5b6200031e856200072d60201b62001ad71760201c565b62000375576040517f08c379a00000000000000000000000000000000000000000000000000000000081526004018080602001828103825260298152602001806200480d6029913960400191505060405180910390fd5b8473ffffffffffffffffffffffffffffffffffffffff168673ffffffffffffffffffffffffffffffffffffffff161415620003fc576040517f08c379a00000000000000000000000000000000000000000000000000000000081526004018080602001828103825260388152602001806200469f6038913960400191505060405180910390fd5b42831162000456576040517f08c379a000000000000000000000000000000000000000000000000000000000815260040180806020018281038252602d8152602001806200477b602d913960400191505060405180910390fd5b60008411620004b1576040517f08c379a00000000000000000000000000000000000000000000000000000000081526004018080602001828103825260318152602001806200470c6031913960400191505060405180910390fd5b60006001811115620004bf57fe5b876001811115620004cc57fe5b141562000557576201518082101562000531576040517f08c379a000000000000000000000000000000000000000000000000000000000815260040180806020018281038252603e8152602001806200473d603e913960400191505060405180910390fd5b6200054b82846200074060201b62001aea1790919060201c565b600681905550620005ba565b60008214620005b2576040517f08c379a0000000000000000000000000000000000000000000000000000000008152600401808060200182810382526035815260200180620046d76035913960400191505060405180910390fd5b426006819055505b8073ffffffffffffffffffffffffffffffffffffffff1660e08173ffffffffffffffffffffffffffffffffffffffff1660601b81525050876001811115620005fe57fe5b60a08160018111156200060d57fe5b60f81b815250508660018111156200062157fe5b60c08160018111156200063057fe5b60f81b81525050826101a081815250508573ffffffffffffffffffffffffffffffffffffffff166101008173ffffffffffffffffffffffffffffffffffffffff1660601b815250508473ffffffffffffffffffffffffffffffffffffffff166101408173ffffffffffffffffffffffffffffffffffffffff1660601b815250506000620006c387620007c460201b60201c565b90508060ff166101208160ff1660f81b81525050620006e886620007c460201b60201c565b60ff166101608160ff1660f81b815250508461018081815250506200071381620009f760201b60201c565b505050505050505050505050505050505050505062000abb565b600080823b905060008111915050919050565b600082821115620007b9576040517f08c379a000000000000000000000000000000000000000000000000000000000815260040180806020018281038252601e8152602001807f536166654d6174683a207375627472616374696f6e206f766572666c6f77000081525060200191505060405180910390fd5b818303905092915050565b600060606040516024016040516020818303038152906040527f313ce567000000000000000000000000000000000000000000000000000000007bffffffffffffffffffffffffffffffffffffffffffffffffffffffff19166020820180517bffffffffffffffffffffffffffffffffffffffffffffffffffffffff83818316178352505050509050600060608473ffffffffffffffffffffffffffffffffffffffff16836040518082805190602001908083835b602083106200089e578051825260208201915060208101905060208303925062000879565b6001836020036101000a038019825116818451168082178552505050505050905001915050600060405180830381855afa9150503d806000811462000900576040519150601f19603f3d011682016040523d82523d6000602084013e62000905565b606091505b50915091508162000962576040517f08c379a0000000000000000000000000000000000000000000000000000000008152600401808060200182810382526023815260200180620048366023913960400191505060405180910390fd5b60008180602001905160208110156200097a57600080fd5b8101908080519060200190929190505050905060268160ff1610620009eb576040517f08c379a0000000000000000000000000000000000000000000000000000000008152600401808060200182810382526038815260200180620047a86038913960400191505060405180910390fd5b80945050505050919050565b80600560006101000a81548160ff021916908360ff16021790555050565b828054600181600116156101000203166002900490600052602060002090601f016020900481019282601f1062000a5857805160ff191683800117855562000a89565b8280016001018555821562000a89579182015b8281111562000a8857825182559160200191906001019062000a6b565b5b50905062000a98919062000a9c565b5090565b5b8082111562000ab757600081600090555060010162000a9d565b5090565b60805160601c60a05160f81c60c05160f81c60e05160601c6101005160601c6101205160f81c6101405160601c6101605160f81c610180516101a051613b1e62000b81600039806110b8528061292b52508061182a528061263952806126ec5280612d91528061328352806132dd525080610d2f5280611802525080610c24528061127f52508061155852508061125752806119c2525080611850525080611a8b52806123c0525080611ab352806125f1528061323a525080610d6f5250613b1e6000f3fe608060405234801561001057600080fd5b506004361061023d5760003560e01c80637158da7c1161013b578063b07f0a41116100b8578063dd62ed3e1161007c578063dd62ed3e146109ea578063e1aef23f14610a62578063f18a6b7814610ac1578063f3eb8cab14610adf578063ffd9eedb14610b085761023d565b8063b07f0a41146108f1578063c13256611461091f578063c52987cf14610940578063c9c667e31461095e578063ce7c2ac2146109925761023d565b806395d89b41116100ff57806395d89b41146107435780639a32c207146107c6578063a09263c2146107e7578063a457c2d714610829578063a9059cbb1461088d5761023d565b80637158da7c1461062b57806381af43d21461065f57806390e64d131461067d57806394bf804d1461069d57806394fe157c146106eb5761023d565b80632ad56863116101c95780633ccfd60b1161018d5780633ccfd60b1461055d578063430cf9f7146105675780634665096d1461058757806364e779b1146105a557806370a08231146105d35761023d565b80632ad568631461047b578063313ce5671461049c57806333afff92146104bd57806339509351146104db5780633a98ef391461053f5761023d565b806313af89801161021057806313af89801461036757806313e80f101461038757806317d69bc8146103a557806318160ddd146103d957806323b872dd146103f75761023d565b806306fdde0314610242578063095ea7b3146102c55780630d6cd8aa1461032957806311e0307314610349575b600080fd5b61024a610b31565b6040518080602001828103825283818151815260200191508051906020019080838360005b8381101561028a57808201518184015260208101905061026f565b50505050905090810190601f1680156102b75780820380516001836020036101000a031916815260200191505b509250505060405180910390f35b610311600480360360408110156102db57600080fd5b81019080803573ffffffffffffffffffffffffffffffffffffffff16906020019092919080359060200190929190505050610bd3565b60405180821515815260200191505060405180910390f35b610331610bf1565b60405180821515815260200191505060405180910390f35b610351610c00565b6040518082815260200191505060405180910390f35b61036f610c0a565b60405180821515815260200191505060405180910390f35b61038f610c19565b6040518082815260200191505060405180910390f35b6103ad610c20565b604051808273ffffffffffffffffffffffffffffffffffffffff16815260200191505060405180910390f35b6103e1610c48565b6040518082815260200191505060405180910390f35b6104636004803603606081101561040d57600080fd5b81019080803573ffffffffffffffffffffffffffffffffffffffff169060200190929190803573ffffffffffffffffffffffffffffffffffffffff16906020019092919080359060200190929190505050610c52565b60405180821515815260200191505060405180910390f35b610483610d2b565b604051808260ff16815260200191505060405180910390f35b6104a4610d53565b604051808260ff16815260200191505060405180910390f35b6104c5610d6a565b6040518082815260200191505060405180910390f35b610527600480360360408110156104f157600080fd5b81019080803573ffffffffffffffffffffffffffffffffffffffff16906020019092919080359060200190929190505050610eb8565b60405180821515815260200191505060405180910390f35b610547610f6b565b6040518082815260200191505060405180910390f35b610565610f71565b005b61056f6110a5565b60405180821515815260200191505060405180910390f35b61058f6110b4565b6040518082815260200191505060405180910390f35b6105d1600480360360208110156105bb57600080fd5b81019080803590602001909291905050506110dc565b005b610615600480360360208110156105e957600080fd5b81019080803573ffffffffffffffffffffffffffffffffffffffff16906020019092919050505061120b565b6040518082815260200191505060405180910390f35b610633611253565b604051808273ffffffffffffffffffffffffffffffffffffffff16815260200191505060405180910390f35b61066761127b565b6040518082815260200191505060405180910390f35b610685611344565b60405180821515815260200191505060405180910390f35b6106e9600480360360408110156106b357600080fd5b8101908080359060200190929190803573ffffffffffffffffffffffffffffffffffffffff169060200190929190505050611353565b005b61072d6004803603602081101561070157600080fd5b81019080803573ffffffffffffffffffffffffffffffffffffffff16906020019092919050505061149a565b6040518082815260200191505060405180910390f35b61074b6114b2565b6040518080602001828103825283818151815260200191508051906020019080838360005b8381101561078b578082015181840152602081019050610770565b50505050905090810190601f1680156107b85780820380516001836020036101000a031916815260200191505b509250505060405180910390f35b6107ce611554565b604051808260ff16815260200191505060405180910390f35b610813600480360360208110156107fd57600080fd5b810190808035906020019092919050505061157c565b6040518082815260200191505060405180910390f35b6108756004803603604081101561083f57600080fd5b81019080803573ffffffffffffffffffffffffffffffffffffffff1690602001909291908035906020019092919050505061158e565b60405180821515815260200191505060405180910390f35b6108d9600480360360408110156108a357600080fd5b81019080803573ffffffffffffffffffffffffffffffffffffffff1690602001909291908035906020019092919050505061165b565b60405180821515815260200191505060405180910390f35b61091d6004803603602081101561090757600080fd5b8101908080359060200190929190505050611679565b005b6109276117fe565b604051808260ff16815260200191505060405180910390f35b610948611826565b6040518082815260200191505060405180910390f35b61096661184e565b604051808273ffffffffffffffffffffffffffffffffffffffff16815260200191505060405180910390f35b6109d4600480360360208110156109a857600080fd5b81019080803573ffffffffffffffffffffffffffffffffffffffff169060200190929190505050611872565b6040518082815260200191505060405180910390f35b610a4c60048036036040811015610a0057600080fd5b81019080803573ffffffffffffffffffffffffffffffffffffffff169060200190929190803573ffffffffffffffffffffffffffffffffffffffff16906020019092919050505061188a565b6040518082815260200191505060405180910390f35b610aa460048036036020811015610a7857600080fd5b81019080803573ffffffffffffffffffffffffffffffffffffffff169060200190929190505050611911565b604051808381526020018281526020019250505060405180910390f35b610ac96119be565b6040518082815260200191505060405180910390f35b610ae7611a87565b60405180826001811115610af757fe5b815260200191505060405180910390f35b610b10611aaf565b60405180826001811115610b2057fe5b815260200191505060405180910390f35b606060038054600181600116156101000203166002900480601f016020809104026020016040519081016040528092919081815260200182805460018160011615610100020316600290048015610bc95780601f10610b9e57610100808354040283529160200191610bc9565b820191906000526020600020905b815481529060010190602001808311610bac57829003601f168201915b5050505050905090565b6000610be7610be0611b6d565b8484611b75565b6001905092915050565b6000610bfb611d6c565b905090565b6000600654905090565b6000610c14611d8a565b905090565b6201518081565b60007f0000000000000000000000000000000000000000000000000000000000000000905090565b6000600254905090565b6000610c5f848484611d99565b610d2084610c6b611b6d565b610d1b856040518060600160405280602881526020016139c560289139600160008b73ffffffffffffffffffffffffffffffffffffffff1673ffffffffffffffffffffffffffffffffffffffff1681526020019081526020016000206000610cd1611b6d565b73ffffffffffffffffffffffffffffffffffffffff1673ffffffffffffffffffffffffffffffffffffffff1681526020019081526020016000205461205a9092919063ffffffff16565b611b75565b600190509392505050565b60007f0000000000000000000000000000000000000000000000000000000000000000905090565b6000600560009054906101000a900460ff16905090565b6000807f000000000000000000000000000000000000000000000000000000000000000073ffffffffffffffffffffffffffffffffffffffff16635fa5c8ce6040518163ffffffff1660e01b815260040160206040518083038186803b158015610dd357600080fd5b505afa158015610de7573d6000803e3d6000fd5b505050506040513d6020811015610dfd57600080fd5b810190808051906020019092919050505090508073ffffffffffffffffffffffffffffffffffffffff1663b3aefb75306040518263ffffffff1660e01b8152600401808273ffffffffffffffffffffffffffffffffffffffff16815260200191505060206040518083038186803b158015610e7757600080fd5b505afa158015610e8b573d6000803e3d6000fd5b505050506040513d6020811015610ea157600080fd5b810190808051906020019092919050505091505090565b6000610f61610ec5611b6d565b84610f5c8560016000610ed6611b6d565b73ffffffffffffffffffffffffffffffffffffffff1673ffffffffffffffffffffffffffffffffffffffff16815260200190815260200160002060008973ffffffffffffffffffffffffffffffffffffffff1673ffffffffffffffffffffffffffffffffffffffff1681526020019081526020016000205461211490919063ffffffff16565b611b75565b6001905092915050565b60095481565b610f79611d8a565b610fce576040517f08c379a000000000000000000000000000000000000000000000000000000000815260040180806020018281038252602581526020018061397f6025913960400191505060405180910390fd5b600080610fd961219c565b9150915061100f3382610fea611253565b73ffffffffffffffffffffffffffffffffffffffff166122f79092919063ffffffff16565b600082111561104b5761104a3383611025610c20565b73ffffffffffffffffffffffffffffffffffffffff166122f79092919063ffffffff16565b5b3373ffffffffffffffffffffffffffffffffffffffff167ff279e6a1f5e320cca91135676d9cb6e44ca8a08c0b88342bcdb1144f6511b5688383604051808381526020018281526020019250505060405180910390a25050565b60006110af612399565b905090565b60007f0000000000000000000000000000000000000000000000000000000000000000905090565b6110e4612399565b806110f357506110f2611d6c565b5b611165576040517f08c379a000000000000000000000000000000000000000000000000000000000815260040180806020018281038252601f8152602001807f506f644f7074696f6e3a206e6f7420696e20756e6d696e742077696e646f770081525060200191505060405180910390fd5b6000806111728333612408565b915091506111a83382611183611253565b73ffffffffffffffffffffffffffffffffffffffff166122f79092919063ffffffff16565b3373ffffffffffffffffffffffffffffffffffffffff167fe7220e099ba565b4a1b81002e7ef36ec69247fb255ff47f989746f3265762baa84848460405180848152602001838152602001828152602001935050505060405180910390a2505050565b60008060008373ffffffffffffffffffffffffffffffffffffffff1673ffffffffffffffffffffffffffffffffffffffff168152602001908152602001600020549050919050565b60007f0000000000000000000000000000000000000000000000000000000000000000905090565b60007f000000000000000000000000000000000000000000000000000000000000000073ffffffffffffffffffffffffffffffffffffffff166370a08231306040518263ffffffff1660e01b8152600401808273ffffffffffffffffffffffffffffffffffffffff16815260200191505060206040518083038186803b15801561130457600080fd5b505afa158015611318573d6000803e3d6000fd5b505050506040513d602081101561132e57600080fd5b8101908080519060200190929190505050905090565b600061134e612927565b905090565b61135b612399565b6113b0576040517f08c379a0000000000000000000000000000000000000000000000000000000008152600401808060200182810382526022815260200180613aa26022913960400191505060405180910390fd5b60008211611409576040517f08c379a00000000000000000000000000000000000000000000000000000000081526004018080602001828103825260268152602001806139596026913960400191505060405180910390fd5b611414828383612952565b611448333084611422611253565b73ffffffffffffffffffffffffffffffffffffffff16612cb7909392919063ffffffff16565b8073ffffffffffffffffffffffffffffffffffffffff167f0f6798a560793a54c3bcfe86a93cde1e73087d944c0ea20544137d4121396885836040518082815260200191505060405180910390a25050565b60086020528060005260406000206000915090505481565b606060048054600181600116156101000203166002900480601f01602080910402602001604051908101604052809291908181526020018280546001816001161561010002031660029004801561154a5780601f1061151f5761010080835404028352916020019161154a565b820191906000526020600020905b81548152906001019060200180831161152d57829003601f168201915b5050505050905090565b60007f0000000000000000000000000000000000000000000000000000000000000000905090565b600061158782612d78565b9050919050565b600061165161159b611b6d565b8461164c85604051806060016040528060258152602001613ac460259139600160006115c5611b6d565b73ffffffffffffffffffffffffffffffffffffffff1673ffffffffffffffffffffffffffffffffffffffff16815260200190815260200160002060008a73ffffffffffffffffffffffffffffffffffffffff1673ffffffffffffffffffffffffffffffffffffffff1681526020019081526020016000205461205a9092919063ffffffff16565b611b75565b6001905092915050565b600061166f611668611b6d565b8484611d99565b6001905092915050565b611681611d6c565b6116d6576040517f08c379a00000000000000000000000000000000000000000000000000000000081526004018080602001828103825260218152602001806139ed6021913960400191505060405180910390fd5b6000811161172f576040517f08c379a000000000000000000000000000000000000000000000000000000000815260040180806020018281038252602a8152602001806137af602a913960400191505060405180910390fd5b600061173a82612d78565b90506117463383612e31565b61177a333083611754610c20565b73ffffffffffffffffffffffffffffffffffffffff16612cb7909392919063ffffffff16565b6117ac3383611787611253565b73ffffffffffffffffffffffffffffffffffffffff166122f79092919063ffffffff16565b3373ffffffffffffffffffffffffffffffffffffffff167f5a20425ee28c08dfaf53c051ce9fb1fdfedad2949379924d3313a74c2c61a2a5836040518082815260200191505060405180910390a25050565b60007f0000000000000000000000000000000000000000000000000000000000000000905090565b60007f0000000000000000000000000000000000000000000000000000000000000000905090565b7f000000000000000000000000000000000000000000000000000000000000000081565b60076020528060005260406000206000915090505481565b6000600160008473ffffffffffffffffffffffffffffffffffffffff1673ffffffffffffffffffffffffffffffffffffffff16815260200190815260200160002060008373ffffffffffffffffffffffffffffffffffffffff1673ffffffffffffffffffffffffffffffffffffffff16815260200190815260200160002054905092915050565b6000806000600760008573ffffffffffffffffffffffffffffffffffffffff1673ffffffffffffffffffffffffffffffffffffffff16815260200190815260200160002054905061198660095461197861196961127b565b84612ff590919063ffffffff16565b61307b90919063ffffffff16565b92506119b66009546119a86119996119be565b84612ff590919063ffffffff16565b61307b90919063ffffffff16565b915050915091565b60007f000000000000000000000000000000000000000000000000000000000000000073ffffffffffffffffffffffffffffffffffffffff166370a08231306040518263ffffffff1660e01b8152600401808273ffffffffffffffffffffffffffffffffffffffff16815260200191505060206040518083038186803b158015611a4757600080fd5b505afa158015611a5b573d6000803e3d6000fd5b505050506040513d6020811015611a7157600080fd5b8101908080519060200190929190505050905090565b60007f0000000000000000000000000000000000000000000000000000000000000000905090565b60007f0000000000000000000000000000000000000000000000000000000000000000905090565b600080823b905060008111915050919050565b600082821115611b62576040517f08c379a000000000000000000000000000000000000000000000000000000000815260040180806020018281038252601e8152602001807f536166654d6174683a207375627472616374696f6e206f766572666c6f77000081525060200191505060405180910390fd5b818303905092915050565b600033905090565b600073ffffffffffffffffffffffffffffffffffffffff168373ffffffffffffffffffffffffffffffffffffffff161415611bfb576040517f08c379a0000000000000000000000000000000000000000000000000000000008152600401808060200182810382526024815260200180613a546024913960400191505060405180910390fd5b600073ffffffffffffffffffffffffffffffffffffffff168273ffffffffffffffffffffffffffffffffffffffff161415611c81576040517f08c379a000000000000000000000000000000000000000000000000000000000815260040180806020018281038252602281526020018061381e6022913960400191505060405180910390fd5b80600160008573ffffffffffffffffffffffffffffffffffffffff1673ffffffffffffffffffffffffffffffffffffffff16815260200190815260200160002060008473ffffffffffffffffffffffffffffffffffffffff1673ffffffffffffffffffffffffffffffffffffffff168152602001908152602001600020819055508173ffffffffffffffffffffffffffffffffffffffff168373ffffffffffffffffffffffffffffffffffffffff167f8c5be1e5ebec7d5bd14f71427d1e84f3dd0314c0f7b2291e5b200ac8c7c3b925836040518082815260200191505060405180910390a3505050565b6000611d76612927565b158015611d8557506006544210155b905090565b6000611d94612927565b905090565b600073ffffffffffffffffffffffffffffffffffffffff168373ffffffffffffffffffffffffffffffffffffffff161415611e1f576040517f08c379a0000000000000000000000000000000000000000000000000000000008152600401808060200182810382526025815260200180613a2f6025913960400191505060405180910390fd5b600073ffffffffffffffffffffffffffffffffffffffff168273ffffffffffffffffffffffffffffffffffffffff161415611ea5576040517f08c379a00000000000000000000000000000000000000000000000000000000081526004018080602001828103825260238152602001806137d96023913960400191505060405180910390fd5b611eb0838383613104565b611f1b816040518060600160405280602681526020016138c0602691396000808773ffffffffffffffffffffffffffffffffffffffff1673ffffffffffffffffffffffffffffffffffffffff1681526020019081526020016000205461205a9092919063ffffffff16565b6000808573ffffffffffffffffffffffffffffffffffffffff1673ffffffffffffffffffffffffffffffffffffffff16815260200190815260200160002081905550611fae816000808573ffffffffffffffffffffffffffffffffffffffff1673ffffffffffffffffffffffffffffffffffffffff1681526020019081526020016000205461211490919063ffffffff16565b6000808473ffffffffffffffffffffffffffffffffffffffff1673ffffffffffffffffffffffffffffffffffffffff168152602001908152602001600020819055508173ffffffffffffffffffffffffffffffffffffffff168373ffffffffffffffffffffffffffffffffffffffff167fddf252ad1be2c89b69c2b068fc378daa952ba7f163c4a11628f55a4df523b3ef836040518082815260200191505060405180910390a3505050565b6000838311158290612107576040517f08c379a00000000000000000000000000000000000000000000000000000000081526004018080602001828103825283818151815260200191508051906020019080838360005b838110156120cc5780820151818401526020810190506120b1565b50505050905090810190601f1680156120f95780820380516001836020036101000a031916815260200191505b509250505060405180910390fd5b5082840390509392505050565b600080828401905083811015612192576040517f08c379a000000000000000000000000000000000000000000000000000000000815260040180806020018281038252601b8152602001807f536166654d6174683a206164646974696f6e206f766572666c6f77000000000081525060200191505060405180910390fd5b8091505092915050565b6000806000600760003373ffffffffffffffffffffffffffffffffffffffff1673ffffffffffffffffffffffffffffffffffffffff1681526020019081526020016000205490506000811161223c576040517f08c379a000000000000000000000000000000000000000000000000000000000815260040180806020018281038252602e815260200180613867602e913960400191505060405180910390fd5b61224533611911565b80935081945050506000600760003373ffffffffffffffffffffffffffffffffffffffff1673ffffffffffffffffffffffffffffffffffffffff168152602001908152602001600020819055506000600860003373ffffffffffffffffffffffffffffffffffffffff1673ffffffffffffffffffffffffffffffffffffffff168152602001908152602001600020819055506122ec81600954611aea90919063ffffffff16565b600981905550509091565b6123948363a9059cbb60e01b8484604051602401808373ffffffffffffffffffffffffffffffffffffffff16815260200182815260200192505050604051602081830303815290604052907bffffffffffffffffffffffffffffffffffffffffffffffffffffffff19166020820180517bffffffffffffffffffffffffffffffffffffffffffffffffffffffff8381831617835250505050613109565b505050565b60006123a3612927565b156123b15760009050612405565b600060018111156123be57fe5b7f000000000000000000000000000000000000000000000000000000000000000060018111156123ea57fe5b1415612400576123f8611d6c565b159050612405565b600190505b90565b6000806000600760008573ffffffffffffffffffffffffffffffffffffffff1673ffffffffffffffffffffffffffffffffffffffff16815260200190815260200160002054116124a3576040517f08c379a00000000000000000000000000000000000000000000000000000000081526004018080602001828103825260298152602001806139306029913960400191505060405180910390fd5b600860008473ffffffffffffffffffffffffffffffffffffffff1673ffffffffffffffffffffffffffffffffffffffff1681526020019081526020016000205484111561253b576040517f08c379a00000000000000000000000000000000000000000000000000000000081526004018080602001828103825260248152602001806138e66024913960400191505060405180910390fd5b60006125e0600860008673ffffffffffffffffffffffffffffffffffffffff1673ffffffffffffffffffffffffffffffffffffffff168152602001908152602001600020546125d287600760008973ffffffffffffffffffffffffffffffffffffffff1673ffffffffffffffffffffffffffffffffffffffff16815260200190815260200160002054612ff590919063ffffffff16565b61307b90919063ffffffff16565b9050600060018111156125ef57fe5b7f0000000000000000000000000000000000000000000000000000000000000000600181111561261b57fe5b141561275957600061267c61262e610d53565b60ff16600a0a61266e7f0000000000000000000000000000000000000000000000000000000000000000612660610c48565b612ff590919063ffffffff16565b61307b90919063ffffffff16565b905060008161268961127b565b11156126ac576126a98261269b61127b565b611aea90919063ffffffff16565b90505b6127366126d66009546126c88685612ff590919063ffffffff16565b61307b90919063ffffffff16565b6127286126e1610d53565b60ff16600a0a61271a7f00000000000000000000000000000000000000000000000000000000000000008c612ff590919063ffffffff16565b61307b90919063ffffffff16565b61211490919063ffffffff16565b945061274061127b565b8511156127525761274f61127b565b94505b50506127d0565b6000612763610c48565b9050600061276f6119be565b90506000828211156127915761278e8383611aea90919063ffffffff16565b90505b6127ca6127bb6009546127ad8785612ff590919063ffffffff16565b61307b90919063ffffffff16565b8961211490919063ffffffff16565b94505050505b61282281600760008773ffffffffffffffffffffffffffffffffffffffff1673ffffffffffffffffffffffffffffffffffffffff16815260200190815260200160002054611aea90919063ffffffff16565b600760008673ffffffffffffffffffffffffffffffffffffffff1673ffffffffffffffffffffffffffffffffffffffff168152602001908152602001600020819055506128b785600860008773ffffffffffffffffffffffffffffffffffffffff1673ffffffffffffffffffffffffffffffffffffffff16815260200190815260200160002054611aea90919063ffffffff16565b600860008673ffffffffffffffffffffffffffffffffffffffff1673ffffffffffffffffffffffffffffffffffffffff1681526020019081526020016000208190555061290f81600954611aea90919063ffffffff16565b60098190555061291f8486612e31565b509250929050565b60007f0000000000000000000000000000000000000000000000000000000000000000421015905090565b82600061295d610d6a565b90506000811115612a7157806129fc833073ffffffffffffffffffffffffffffffffffffffff166318160ddd6040518163ffffffff1660e01b815260040160206040518083038186803b1580156129b357600080fd5b505afa1580156129c7573d6000803e3d6000fd5b505050506040513d60208110156129dd57600080fd5b810190808051906020019092919050505061211490919063ffffffff16565b1115612a70576040517f08c379a000000000000000000000000000000000000000000000000000000000815260040180806020018281038252601f8152602001807f4361707065644f7074696f6e3a20616d6f756e7420657863656564206361700081525060200191505060405180910390fd5b5b600073ffffffffffffffffffffffffffffffffffffffff168373ffffffffffffffffffffffffffffffffffffffff161415612af7576040517f08c379a000000000000000000000000000000000000000000000000000000000815260040180806020018281038252602b815260200180613895602b913960400191505060405180910390fd5b60006009541115612bc5576000612b0d856131f8565b9050612b6181600760008773ffffffffffffffffffffffffffffffffffffffff1673ffffffffffffffffffffffffffffffffffffffff1681526020019081526020016000205461211490919063ffffffff16565b600760008673ffffffffffffffffffffffffffffffffffffffff1673ffffffffffffffffffffffffffffffffffffffff16815260200190815260200160002081905550612bb98160095461211490919063ffffffff16565b60098190555050612c11565b83600760008573ffffffffffffffffffffffffffffffffffffffff1673ffffffffffffffffffffffffffffffffffffffff16815260200190815260200160002081905550836009819055505b612c6385600860008673ffffffffffffffffffffffffffffffffffffffff1673ffffffffffffffffffffffffffffffffffffffff1681526020019081526020016000205461211490919063ffffffff16565b600860008573ffffffffffffffffffffffffffffffffffffffff1673ffffffffffffffffffffffffffffffffffffffff16815260200190815260200160002081905550612cb0338661335a565b5050505050565b612d72846323b872dd60e01b858585604051602401808473ffffffffffffffffffffffffffffffffffffffff1681526020018373ffffffffffffffffffffffffffffffffffffffff1681526020018281526020019350505050604051602081830303815290604052907bffffffffffffffffffffffffffffffffffffffffffffffffffffffff19166020820180517bffffffffffffffffffffffffffffffffffffffffffffffffffffffff8381831617835250505050613109565b50505050565b600080612dcd612d86611554565b60ff16600a0a612dbf7f000000000000000000000000000000000000000000000000000000000000000086612ff590919063ffffffff16565b61307b90919063ffffffff16565b905060008111612e28576040517f08c379a00000000000000000000000000000000000000000000000000000000081526004018080602001828103825260278152602001806138406027913960400191505060405180910390fd5b80915050919050565b600073ffffffffffffffffffffffffffffffffffffffff168273ffffffffffffffffffffffffffffffffffffffff161415612eb7576040517f08c379a0000000000000000000000000000000000000000000000000000000008152600401808060200182810382526021815260200180613a0e6021913960400191505060405180910390fd5b612ec382600083613104565b612f2e816040518060600160405280602281526020016137fc602291396000808673ffffffffffffffffffffffffffffffffffffffff1673ffffffffffffffffffffffffffffffffffffffff1681526020019081526020016000205461205a9092919063ffffffff16565b6000808473ffffffffffffffffffffffffffffffffffffffff1673ffffffffffffffffffffffffffffffffffffffff16815260200190815260200160002081905550612f8581600254611aea90919063ffffffff16565b600281905550600073ffffffffffffffffffffffffffffffffffffffff168273ffffffffffffffffffffffffffffffffffffffff167fddf252ad1be2c89b69c2b068fc378daa952ba7f163c4a11628f55a4df523b3ef836040518082815260200191505060405180910390a35050565b6000808314156130085760009050613075565b600082840290508284828161301957fe5b0414613070576040517f08c379a00000000000000000000000000000000000000000000000000000000081526004018080602001828103825260218152602001806139a46021913960400191505060405180910390fd5b809150505b92915050565b60008082116130f2576040517f08c379a000000000000000000000000000000000000000000000000000000000815260040180806020018281038252601a8152602001807f536166654d6174683a206469766973696f6e206279207a65726f00000000000081525060200191505060405180910390fd5b8183816130fb57fe5b04905092915050565b505050565b606061316b826040518060400160405280602081526020017f5361666545524332303a206c6f772d6c6576656c2063616c6c206661696c65648152508573ffffffffffffffffffffffffffffffffffffffff166135219092919063ffffffff16565b90506000815111156131f35780806020019051602081101561318c57600080fd5b81019080805190602001909291905050506131f2576040517f08c379a000000000000000000000000000000000000000000000000000000000815260040180806020018281038252602a815260200180613a78602a913960400191505060405180910390fd5b5b505050565b60008061320361127b565b9050600061320f6119be565b9050600061322860095486612ff590919063ffffffff16565b9050600080600181111561323857fe5b7f0000000000000000000000000000000000000000000000000000000000000000600181111561326457fe5b14156132d5576132ce6132bf613278611554565b60ff16600a0a6132b17f000000000000000000000000000000000000000000000000000000000000000087612ff590919063ffffffff16565b61307b90919063ffffffff16565b8561211490919063ffffffff16565b905061333c565b61333961332a7f000000000000000000000000000000000000000000000000000000000000000061331c613307611554565b60ff16600a0a88612ff590919063ffffffff16565b61307b90919063ffffffff16565b8461211490919063ffffffff16565b90505b61334f818361307b90919063ffffffff16565b945050505050919050565b600073ffffffffffffffffffffffffffffffffffffffff168273ffffffffffffffffffffffffffffffffffffffff1614156133fd576040517f08c379a000000000000000000000000000000000000000000000000000000000815260040180806020018281038252601f8152602001807f45524332303a206d696e7420746f20746865207a65726f20616464726573730081525060200191505060405180910390fd5b61340960008383613104565b61341e8160025461211490919063ffffffff16565b600281905550613475816000808573ffffffffffffffffffffffffffffffffffffffff1673ffffffffffffffffffffffffffffffffffffffff1681526020019081526020016000205461211490919063ffffffff16565b6000808473ffffffffffffffffffffffffffffffffffffffff1673ffffffffffffffffffffffffffffffffffffffff168152602001908152602001600020819055508173ffffffffffffffffffffffffffffffffffffffff16600073ffffffffffffffffffffffffffffffffffffffff167fddf252ad1be2c89b69c2b068fc378daa952ba7f163c4a11628f55a4df523b3ef836040518082815260200191505060405180910390a35050565b60606135308484600085613539565b90509392505050565b606082471015613594576040517f08c379a000000000000000000000000000000000000000000000000000000000815260040180806020018281038252602681526020018061390a6026913960400191505060405180910390fd5b61359d85611ad7565b61360f576040517f08c379a000000000000000000000000000000000000000000000000000000000815260040180806020018281038252601d8152602001807f416464726573733a2063616c6c20746f206e6f6e2d636f6e747261637400000081525060200191505060405180910390fd5b600060608673ffffffffffffffffffffffffffffffffffffffff1685876040518082805190602001908083835b6020831061365f578051825260208201915060208101905060208303925061363c565b6001836020036101000a03801982511681845116808217855250505050505090500191505060006040518083038185875af1925050503d80600081146136c1576040519150601f19603f3d011682016040523d82523d6000602084013e6136c6565b606091505b50915091506136d68282866136e2565b92505050949350505050565b606083156136f2578290506137a7565b6000835111156137055782518084602001fd5b816040517f08c379a00000000000000000000000000000000000000000000000000000000081526004018080602001828103825283818151815260200191508051906020019080838360005b8381101561376c578082015181840152602081019050613751565b50505050905090810190601f1680156137995780820380516001836020036101000a031916815260200191505b509250505060405180910390fd5b939250505056fe506f6443616c6c3a20796f752063616e206e6f74206578657263697365207a65726f206f7074696f6e7345524332303a207472616e7366657220746f20746865207a65726f206164647265737345524332303a206275726e20616d6f756e7420657863656564732062616c616e636545524332303a20617070726f766520746f20746865207a65726f2061646472657373506f644f7074696f6e3a20616d6f756e74206f66206f7074696f6e7320697320746f6f206c6f77506f644f7074696f6e3a20796f7520646f206e6f7420686176652062616c616e636520746f207769746864726177506f644f7074696f6e3a207a65726f20616464726573732063616e6e6f7420626520746865206f776e657245524332303a207472616e7366657220616d6f756e7420657863656564732062616c616e6365506f644f7074696f6e3a206e6f7420656e6f756768206d696e746564206f7074696f6e73416464726573733a20696e73756666696369656e742062616c616e636520666f722063616c6c506f644f7074696f6e3a20796f7520646f206e6f742068617665206d696e746564206f7074696f6e73506f6443616c6c3a20796f752063616e206e6f74206d696e74207a65726f206f7074696f6e73506f644f7074696f6e3a206f7074696f6e20686173206e6f74206578706972656420796574536166654d6174683a206d756c7469706c69636174696f6e206f766572666c6f7745524332303a207472616e7366657220616d6f756e74206578636565647320616c6c6f77616e6365506f644f7074696f6e3a206e6f7420696e2065786572636973652077696e646f7745524332303a206275726e2066726f6d20746865207a65726f206164647265737345524332303a207472616e736665722066726f6d20746865207a65726f206164647265737345524332303a20617070726f76652066726f6d20746865207a65726f20616464726573735361666545524332303a204552433230206f7065726174696f6e20646964206e6f742073756363656564506f644f7074696f6e3a2074726164652077696e646f772068617320636c6f73656445524332303a2064656372656173656420616c6c6f77616e63652062656c6f77207a65726fa26469706673582212202faf5d09dc3a6f4075cace4864a8adc3ca19b57f2b50e1492e6258b908a3e9c464736f6c634300060c0033506f644f7074696f6e3a20756e6465726c79696e6720617373657420616e6420737472696b65206173736574206d75737420646966666572506f644f7074696f6e3a2065786572636973652077696e646f772073697a65206d75737420626520657175616c20746f207a65726f506f644f7074696f6e3a20737472696b65207072696365206d7573742062652067726561746572207468616e207a65726f506f644f7074696f6e3a2065786572636973652077696e646f77206d7573742062652067726561746572207468616e206f7220657175616c203836343030506f644f7074696f6e3a2065787069726174696f6e2073686f756c6420626520696e20746865206675747572655265717569726564446563696d616c733a20746f6b656e20646563696d616c732073686f756c64206265206c6f776572207468616e203338506f644f7074696f6e3a20756e6465726c79696e67206173736574206973206e6f74206120636f6e7472616374506f644f7074696f6e3a20737472696b65206173736574206973206e6f74206120636f6e74726163745265717569726564446563696d616c733a20726571756972656420646563696d616c73",
  "linkReferences": {},
  "deployedLinkReferences": {}
}