{
  "_format": "hh-sol-artifact-1",
  "contractName": "UniswapV2Library",
  "sourceName": "contracts/libraries/UniswapV2Library.sol",
  "abi": [
    {
      "inputs": [
        {
          "internalType": "bytes32",
          "name": "c__0x67ae70a3",
          "type": "bytes32"
        }
      ],
      "name": "c_0x67ae70a3",
      "outputs": [],
      "stateMutability": "pure",
      "type": "function"
    }
  ],
  "bytecode": "0x609c610024600b82828239805160001a607314601757fe5b30600052607381538281f3fe730000000000000000000000000000000000000000301460806040526004361060335760003560e01c80638285311d146038575b600080fd5b606160048036036020811015604c57600080fd5b81019080803590602001909291905050506063565b005b5056fea26469706673582212209b5061b1068a1be9b81e689523c5739c964c0d797e389ed0f32d33918b746f9f64736f6c634300060c0033",
  "linkReferences": {},
  "deployedLinkReferences": {}
}