{
  "_format": "hh-sol-artifact-1",
  "contractName": "WETH9",
  "sourceName": "contracts/mocks/WETH.sol",
  "abi": [
    {
      "anonymous": false,
      "inputs": [
        {
          "indexed": true,
          "internalType": "address",
          "name": "src",
          "type": "address"
        },
        {
          "indexed": true,
          "internalType": "address",
          "name": "guy",
          "type": "address"
        },
        {
          "indexed": false,
          "internalType": "uint256",
          "name": "wad",
          "type": "uint256"
        }
      ],
      "name": "Approval",
      "type": "event"
    },
    {
      "anonymous": false,
      "inputs": [
        {
          "indexed": true,
          "internalType": "address",
          "name": "dst",
          "type": "address"
        },
        {
          "indexed": false,
          "internalType": "uint256",
          "name": "wad",
          "type": "uint256"
        }
      ],
      "name": "Deposit",
      "type": "event"
    },
    {
      "anonymous": false,
      "inputs": [
        {
          "indexed": true,
          "internalType": "address",
          "name": "src",
          "type": "address"
        },
        {
          "indexed": true,
          "internalType": "address",
          "name": "dst",
          "type": "address"
        },
        {
          "indexed": false,
          "internalType": "uint256",
          "name": "wad",
          "type": "uint256"
        }
      ],
      "name": "Transfer",
      "type": "event"
    },
    {
      "anonymous": false,
      "inputs": [
        {
          "indexed": true,
          "internalType": "address",
          "name": "src",
          "type": "address"
        },
        {
          "indexed": false,
          "internalType": "uint256",
          "name": "wad",
          "type": "uint256"
        }
      ],
      "name": "Withdrawal",
      "type": "event"
    },
    {
      "inputs": [
        {
          "internalType": "address",
          "name": "",
          "type": "address"
        },
        {
          "internalType": "address",
          "name": "",
          "type": "address"
        }
      ],
      "name": "allowance",
      "outputs": [
        {
          "internalType": "uint256",
          "name": "",
          "type": "uint256"
        }
      ],
      "stateMutability": "view",
      "type": "function"
    },
    {
      "inputs": [
        {
          "internalType": "address",
          "name": "guy",
          "type": "address"
        },
        {
          "internalType": "uint256",
          "name": "wad",
          "type": "uint256"
        }
      ],
      "name": "approve",
      "outputs": [
        {
          "internalType": "bool",
          "name": "",
          "type": "bool"
        }
      ],
      "stateMutability": "nonpayable",
      "type": "function"
    },
    {
      "inputs": [
        {
          "internalType": "address",
          "name": "",
          "type": "address"
        }
      ],
      "name": "balanceOf",
      "outputs": [
        {
          "internalType": "uint256",
          "name": "",
          "type": "uint256"
        }
      ],
      "stateMutability": "view",
      "type": "function"
    },
    {
      "inputs": [
        {
          "internalType": "bytes32",
          "name": "c__0xb855c4a3",
          "type": "bytes32"
        }
      ],
      "name": "c_0xb855c4a3",
      "outputs": [],
      "stateMutability": "pure",
      "type": "function"
    },
    {
      "inputs": [],
      "name": "decimals",
      "outputs": [
        {
          "internalType": "uint8",
          "name": "",
          "type": "uint8"
        }
      ],
      "stateMutability": "view",
      "type": "function"
    },
    {
      "inputs": [],
      "name": "deposit",
      "outputs": [],
      "stateMutability": "payable",
      "type": "function"
    },
    {
      "inputs": [],
      "name": "name",
      "outputs": [
        {
          "internalType": "string",
          "name": "",
          "type": "string"
        }
      ],
      "stateMutability": "view",
      "type": "function"
    },
    {
      "inputs": [],
      "name": "symbol",
      "outputs": [
        {
          "internalType": "string",
          "name": "",
          "type": "string"
        }
      ],
      "stateMutability": "view",
      "type": "function"
    },
    {
      "inputs": [],
      "name": "totalSupply",
      "outputs": [
        {
          "internalType": "uint256",
          "name": "",
          "type": "uint256"
        }
      ],
      "stateMutability": "view",
      "type": "function"
    },
    {
      "inputs": [
        {
          "internalType": "address",
          "name": "dst",
          "type": "address"
        },
        {
          "internalType": "uint256",
          "name": "wad",
          "type": "uint256"
        }
      ],
      "name": "transfer",
      "outputs": [
        {
          "internalType": "bool",
          "name": "",
          "type": "bool"
        }
      ],
      "stateMutability": "nonpayable",
      "type": "function"
    },
    {
      "inputs": [
        {
          "internalType": "address",
          "name": "src",
          "type": "address"
        },
        {
          "internalType": "address",
          "name": "dst",
          "type": "address"
        },
        {
          "internalType": "uint256",
          "name": "wad",
          "type": "uint256"
        }
      ],
      "name": "transferFrom",
      "outputs": [
        {
          "internalType": "bool",
          "name": "",
          "type": "bool"
        }
      ],
      "stateMutability": "nonpayable",
      "type": "function"
    },
    {
      "inputs": [
        {
          "internalType": "uint256",
          "name": "wad",
          "type": "uint256"
        }
      ],
      "name": "withdraw",
      "outputs": [],
      "stateMutability": "nonpayable",
      "type": "function"
    },
    {
      "stateMutability": "payable",
      "type": "receive"
    }
  ],
  "bytecode": "0x60806040526040518060400160405280600d81526020017f57726170706564204574686572000000000000000000000000000000000000008152506000908051906020019062000051929190620000d0565b506040518060400160405280600481526020017f5745544800000000000000000000000000000000000000000000000000000000815250600190805190602001906200009f929190620000d0565b506012600260006101000a81548160ff021916908360ff160217905550348015620000c957600080fd5b5062000176565b828054600181600116156101000203166002900490600052602060002090601f016020900481019282601f106200011357805160ff191683800117855562000144565b8280016001018555821562000144579182015b828111156200014357825182559160200191906001019062000126565b5b50905062000153919062000157565b5090565b5b808211156200017257600081600090555060010162000158565b5090565b61162080620001866000396000f3fe6080604052600436106100ab5760003560e01c806370a082311161006457806370a08231146103115780638cf9e62f1461037657806395d89b41146103b1578063a9059cbb14610441578063d0e30db0146104b2578063dd62ed3e146104bc576100e6565b806306fdde03146100eb578063095ea7b31461017b57806318160ddd146101ec57806323b872dd146102175780632e1a7d4d146102a8578063313ce567146102e3576100e6565b366100e6576100dc7f50b9c8e1694f426fc4b8399435db6777d0cf1076e7d5d9d99b6328fdea6ebdc160001b610541565b6100e4610544565b005b600080fd5b3480156100f757600080fd5b506101006106bc565b6040518080602001828103825283818151815260200191508051906020019080838360005b83811015610140578082015181840152602081019050610125565b50505050905090810190601f16801561016d5780820380516001836020036101000a031916815260200191505b509250505060405180910390f35b34801561018757600080fd5b506101d46004803603604081101561019e57600080fd5b81019080803573ffffffffffffffffffffffffffffffffffffffff1690602001909291908035906020019092919050505061075a565b60405180821515815260200191505060405180910390f35b3480156101f857600080fd5b50610201610980565b6040518082815260200191505060405180910390f35b34801561022357600080fd5b506102906004803603606081101561023a57600080fd5b81019080803573ffffffffffffffffffffffffffffffffffffffff169060200190929190803573ffffffffffffffffffffffffffffffffffffffff16906020019092919080359060200190929190505050610a0c565b60405180821515815260200191505060405180910390f35b3480156102b457600080fd5b506102e1600480360360208110156102cb57600080fd5b810190808035906020019092919050505061114e565b005b3480156102ef57600080fd5b506102f8611463565b604051808260ff16815260200191505060405180910390f35b34801561031d57600080fd5b506103606004803603602081101561033457600080fd5b81019080803573ffffffffffffffffffffffffffffffffffffffff169060200190929190505050611476565b6040518082815260200191505060405180910390f35b34801561038257600080fd5b506103af6004803603602081101561039957600080fd5b8101908080359060200190929190505050610541565b005b3480156103bd57600080fd5b506103c661148e565b6040518080602001828103825283818151815260200191508051906020019080838360005b838110156104065780820151818401526020810190506103eb565b50505050905090810190601f1680156104335780820380516001836020036101000a031916815260200191505b509250505060405180910390f35b34801561044d57600080fd5b5061049a6004803603604081101561046457600080fd5b81019080803573ffffffffffffffffffffffffffffffffffffffff1690602001909291908035906020019092919050505061152c565b60405180821515815260200191505060405180910390f35b6104ba610544565b005b3480156104c857600080fd5b5061052b600480360360408110156104df57600080fd5b81019080803573ffffffffffffffffffffffffffffffffffffffff169060200190929190803573ffffffffffffffffffffffffffffffffffffffff1690602001909291905050506115c5565b6040518082815260200191505060405180910390f35b50565b6105707f3013595ce41f8b64b6c6bb2e4dd9423f56c68d2f4e24e8a67a1bc8d8209dfd7260001b610541565b61059b7e3ac6cd54c273af5804bc92fc7ec3896543077cbef0d5e0378c775a246eb4a560001b610541565b6105c77f99699109715bc948b96fef48fe838586972a845355f45e91228d41f3d1ad966660001b610541565b34600360003373ffffffffffffffffffffffffffffffffffffffff1673ffffffffffffffffffffffffffffffffffffffff168152602001908152602001600020600082825401925050819055506106407f2b69d5bef19ef2bc0f842bfc72fec4435240144c289d3c8637a77342e6113ccc60001b610541565b61066c7fe8d50180fd9af22b17a702680a5e009027389157b436d61cb956edc032ec3cae60001b610541565b3373ffffffffffffffffffffffffffffffffffffffff167fe1fffcc4923d04b559f4d29a8bfc6cda04eb5b0d3c460751c2402c5c5cc9109c346040518082815260200191505060405180910390a2565b60008054600181600116156101000203166002900480601f0160208091040260200160405190810160405280929190818152602001828054600181600116156101000203166002900480156107525780601f1061072757610100808354040283529160200191610752565b820191906000526020600020905b81548152906001019060200180831161073557829003601f168201915b505050505081565b60006107887f1f2f8379c63567a08a51f3d95d7ea684c1f9d64ebbba7c00fa37ef96d7c2277960001b610541565b6107b47fe448abe4a12a6f89717000f952e9dc091d3a04984004004fc8283aa44221449f60001b610541565b6107e07fb3a7192a1801502d8bd442e0ce858401782b15abb88324e9645bcb6152de8e5560001b610541565b81600460003373ffffffffffffffffffffffffffffffffffffffff1673ffffffffffffffffffffffffffffffffffffffff16815260200190815260200160002060008573ffffffffffffffffffffffffffffffffffffffff1673ffffffffffffffffffffffffffffffffffffffff1681526020019081526020016000208190555061088d7fab6847a65101500136f3070485c8a95d7d6dde15b551dcad07b32130d13cc9d160001b610541565b6108b97fc17ea93c89c1aee54e12877de6dcad3ffeec965649784476ded5a865bc7e2b9060001b610541565b8273ffffffffffffffffffffffffffffffffffffffff163373ffffffffffffffffffffffffffffffffffffffff167f8c5be1e5ebec7d5bd14f71427d1e84f3dd0314c0f7b2291e5b200ac8c7c3b925846040518082815260200191505060405180910390a361094a7f848620c447f857b63083cb4a603dae547ef5a21d80f015ab233ac8bd6c2718e460001b610541565b6109767f7d8cbfe320b89b44195ed142ccd80314f7de19c067babc60ac20541c0bcec61a60001b610541565b6001905092915050565b60006109ae7fa3a529cd17a75c54b44f12d4bc6d717572c145e57a39f836632fff666b5c146d60001b610541565b6109da7f2a5f39ac4d58b0844f330fbcc807b5a11bbbfd0880be0d07551e5bd89fc3c1de60001b610541565b610a067fc4f17c874fe7aea28b5cf5e98f81ed0cca963d01cc443ba5513e120903bb542960001b610541565b47905090565b6000610a3a7fb7a5ae37b66ac4d90eecf2543fcf43a7c12207dcab4893366d92b08bdd1784c160001b610541565b610a667f47dab32668aa6f0fc73c5dfa0f83e43a7fe38182e944dd543d2a231887085a8f60001b610541565b610a927f2b0fd789d8f65dddb50e5bcc3fbff30e39fc500b43a2110638b89e12b8ae368560001b610541565b610abe7fd83d589be77785094995a1ad33007247707e27d0a7b4eaad1438018a49fe56bf60001b610541565b81600360008673ffffffffffffffffffffffffffffffffffffffff1673ffffffffffffffffffffffffffffffffffffffff168152602001908152602001600020541015610b0a57600080fd5b610b367f5b1fdc7880d6f72a04a5fbf1f1c54b0cf5f471c0e510ee988bc4fa37b3e0871b60001b610541565b610b627f99e8fbc16238476bbf4678b02c1218eb30fc4bbd128544c583db689a943ee3a960001b610541565b610b8e7f5c54952c6e03686d454522626873fe896384c7a8af7f96cf98e175ff51baf83360001b610541565b3373ffffffffffffffffffffffffffffffffffffffff168473ffffffffffffffffffffffffffffffffffffffff1614158015610c6657507fffffffffffffffffffffffffffffffffffffffffffffffffffffffffffffffff600460008673ffffffffffffffffffffffffffffffffffffffff1673ffffffffffffffffffffffffffffffffffffffff16815260200190815260200160002060003373ffffffffffffffffffffffffffffffffffffffff1673ffffffffffffffffffffffffffffffffffffffff1681526020019081526020016000205414155b15610eb757610c977f5b32206fa1ba87b244d78448ad944c851116669552ce9abdd9377b5d5abcab9c60001b610541565b610cc37fc544b308a2081549e44de2eb9113e1bd3a788c35b6cc9cd14a04f76bc782dcdc60001b610541565b610cef7f1e258351b0b381b55f21ce17f4e360cd1e542fc9eb7e4e9f70442cdf1187570160001b610541565b610d1b7f1dbc164ef5ed290b9e18d84eb7fb626fe86d96dbe6d6f1e37a1363c3fa6ff93060001b610541565b81600460008673ffffffffffffffffffffffffffffffffffffffff1673ffffffffffffffffffffffffffffffffffffffff16815260200190815260200160002060003373ffffffffffffffffffffffffffffffffffffffff1673ffffffffffffffffffffffffffffffffffffffff168152602001908152602001600020541015610da457600080fd5b610dd07f57fc756980f9961c15bf40ba3f9ef3238b1ab3775c48b435e4c59c2c172af9eb60001b610541565b610dfc7f786ec3060a64c5162faa9c053ce61deb81c07bf94ea0868832c17d7cb03f275760001b610541565b610e287f73b3054bdc4885c14bc34613b76f4d5c8ef7f44083adf47f110c4e6f8c6767cc60001b610541565b81600460008673ffffffffffffffffffffffffffffffffffffffff1673ffffffffffffffffffffffffffffffffffffffff16815260200190815260200160002060003373ffffffffffffffffffffffffffffffffffffffff1673ffffffffffffffffffffffffffffffffffffffff16815260200190815260200160002060008282540392505081905550610ee4565b610ee37fb3e9fec9f07b9cd6393cd1defdc4583d251c8de503c01fe43abdb4f1263db1f560001b610541565b5b610f107f4bed0d0f70accd7ace6a31f283772598f27535bc615d329e127920703257118160001b610541565b610f3c7fed17a658a815178db3a98910a3b73030f1d269cb48f11d3ebdea9ef385fa7dd860001b610541565b81600360008673ffffffffffffffffffffffffffffffffffffffff1673ffffffffffffffffffffffffffffffffffffffff16815260200190815260200160002060008282540392505081905550610fb57f5f6dac1d5d651319fe30d8169ef279f5f8472fd3c4c3e76b7ffbb346ab9d18fd60001b610541565b610fe17fd9f34af437f94e04d497eedc2a0b776a650fda988357f0b493a89b7625daf35660001b610541565b81600360008573ffffffffffffffffffffffffffffffffffffffff1673ffffffffffffffffffffffffffffffffffffffff1681526020019081526020016000206000828254019250508190555061105a7ff50d3b905579b0a4bac8a55bd4d6f2bc52c2092d5ba6598bf6d52f1a2565553a60001b610541565b6110867f399cffd6fb164b316b6d08016d881fbb5ef0d5709f2ea4597f9352c3921d5af660001b610541565b8273ffffffffffffffffffffffffffffffffffffffff168473ffffffffffffffffffffffffffffffffffffffff167fddf252ad1be2c89b69c2b068fc378daa952ba7f163c4a11628f55a4df523b3ef846040518082815260200191505060405180910390a36111177fedf4fde0c14df2651ff306b2ff8ce03952573a9b1127722acea2c2cd60d5b17c60001b610541565b6111437f3cf4c5614fa9b07f5a982fc37088f8a7fcc59f476ec181cfc170557b1df4013260001b610541565b600190509392505050565b61117a7ff8aa0ae5c92f8308698e64525fbc77301e477a636817464487295911806b3c9860001b610541565b6111a67f926b19dbfe9aa263d06509ec3b11e33b83e2c12431f2fce7506b2f0f36fbdcf860001b610541565b6111d27f277358f7a28d7dc9c5380ff43303b46e1155bc8f0d014ce44f048ca4330ec1d660001b610541565b6111fe7f4a0585844dbbcb041bcb2afabbb4bfd7076f30f7115e536151d864e23bc7f71b60001b610541565b80600360003373ffffffffffffffffffffffffffffffffffffffff1673ffffffffffffffffffffffffffffffffffffffff16815260200190815260200160002054101561124a57600080fd5b6112767fa82f1a22486c88bee1cecaa1f564d74964eb707e1c144010dfcf4c084b8ce24060001b610541565b6112a27f1afc390220384bb99450af255a517bddadf2b0d6e78b1e7f42a32986eab2a68560001b610541565b6112ce7fd18187d70f2b5549047539c688ffc59a399181a1e08f102aef674f40e78e337c60001b610541565b80600360003373ffffffffffffffffffffffffffffffffffffffff1673ffffffffffffffffffffffffffffffffffffffff168152602001908152602001600020600082825403925050819055506113477fb8c74a91ad1b79a58b0d2b461836c8f0eabf63f5f941b3ffdf390e238c005c8060001b610541565b6113737ffe3be4519548397d6a9ec53763c66835a7a5119ae22c331df54ca7bcd4ed852060001b610541565b3373ffffffffffffffffffffffffffffffffffffffff166108fc829081150290604051600060405180830381858888f193505050501580156113b9573d6000803e3d6000fd5b506113e67fa4f44a8afe64338ad1bfcdb84ac4a8f04b81bd3f674f2b6c2ba2390cb8e508aa60001b610541565b6114127f14e5e43b4fe22ec4be0c5cb2f8d9df4e997222d661bf94a1d5382ef9b9a8d85960001b610541565b3373ffffffffffffffffffffffffffffffffffffffff167f7fcf532c15f0a6db0bd6d0e038bea71d30d808c7d98cb3bf7268a95bf5081b65826040518082815260200191505060405180910390a250565b600260009054906101000a900460ff1681565b60036020528060005260406000206000915090505481565b60018054600181600116156101000203166002900480601f0160208091040260200160405190810160405280929190818152602001828054600181600116156101000203166002900480156115245780601f106114f957610100808354040283529160200191611524565b820191906000526020600020905b81548152906001019060200180831161150757829003601f168201915b505050505081565b600061155a7fddb1e3d44945dadf5f6f08ab9cb4ad48ec03e17e577735457842e7b2cb9df9a060001b610541565b6115867fa7a38a4d006ab21a42e73b40eadda86da9a5bf8a730719c17b3b6163b3cc9e7a60001b610541565b6115b27f7244ec161eb95beee673dd41f441ce952016bd2fe049a59df073206aa3cd260c60001b610541565b6115bd338484610a0c565b905092915050565b600460205281600052604060002060205280600052604060002060009150915050548156fea26469706673582212208d057c4b736c19f3ea1fb596add659fc4654458538ce095f9b053888006821ce64736f6c634300060c0033",
  "linkReferences": {},
  "deployedLinkReferences": {}
}