{
  "_format": "hh-sol-artifact-1",
  "contractName": "WPodCallMock",
  "sourceName": "contracts/mocks/WPodCallMock.sol",
  "abi": [
    {
      "inputs": [
        {
          "internalType": "string",
          "name": "name",
          "type": "string"
        },
        {
          "internalType": "string",
          "name": "symbol",
          "type": "string"
        },
        {
          "internalType": "enum IPodOption.ExerciseType",
          "name": "exerciseType",
          "type": "uint8"
        },
        {
          "internalType": "address",
          "name": "strikeAsset",
          "type": "address"
        },
        {
          "internalType": "uint256",
          "name": "strikePrice",
          "type": "uint256"
        },
        {
          "internalType": "uint256",
          "name": "expiration",
          "type": "uint256"
        },
        {
          "internalType": "uint256",
          "name": "exerciseWindowSize",
          "type": "uint256"
        },
        {
          "internalType": "contract IConfigurationManager",
          "name": "configurationManager",
          "type": "address"
        }
      ],
      "stateMutability": "nonpayable",
      "type": "constructor"
    },
    {
      "anonymous": false,
      "inputs": [
        {
          "indexed": true,
          "internalType": "address",
          "name": "owner",
          "type": "address"
        },
        {
          "indexed": true,
          "internalType": "address",
          "name": "spender",
          "type": "address"
        },
        {
          "indexed": false,
          "internalType": "uint256",
          "name": "value",
          "type": "uint256"
        }
      ],
      "name": "Approval",
      "type": "event"
    },
    {
      "anonymous": false,
      "inputs": [
        {
          "indexed": true,
          "internalType": "address",
          "name": "exerciser",
          "type": "address"
        },
        {
          "indexed": false,
          "internalType": "uint256",
          "name": "amount",
          "type": "uint256"
        }
      ],
      "name": "Exercise",
      "type": "event"
    },
    {
      "anonymous": false,
      "inputs": [
        {
          "indexed": true,
          "internalType": "address",
          "name": "minter",
          "type": "address"
        },
        {
          "indexed": false,
          "internalType": "uint256",
          "name": "amount",
          "type": "uint256"
        }
      ],
      "name": "Mint",
      "type": "event"
    },
    {
      "anonymous": false,
      "inputs": [
        {
          "indexed": true,
          "internalType": "address",
          "name": "sender",
          "type": "address"
        },
        {
          "indexed": false,
          "internalType": "uint256",
          "name": "value",
          "type": "uint256"
        }
      ],
      "name": "Received",
      "type": "event"
    },
    {
      "anonymous": false,
      "inputs": [
        {
          "indexed": true,
          "internalType": "address",
          "name": "from",
          "type": "address"
        },
        {
          "indexed": true,
          "internalType": "address",
          "name": "to",
          "type": "address"
        },
        {
          "indexed": false,
          "internalType": "uint256",
          "name": "value",
          "type": "uint256"
        }
      ],
      "name": "Transfer",
      "type": "event"
    },
    {
      "anonymous": false,
      "inputs": [
        {
          "indexed": true,
          "internalType": "address",
          "name": "minter",
          "type": "address"
        },
        {
          "indexed": false,
          "internalType": "uint256",
          "name": "optionAmount",
          "type": "uint256"
        },
        {
          "indexed": false,
          "internalType": "uint256",
          "name": "strikeAmount",
          "type": "uint256"
        },
        {
          "indexed": false,
          "internalType": "uint256",
          "name": "underlyingAmount",
          "type": "uint256"
        }
      ],
      "name": "Unmint",
      "type": "event"
    },
    {
      "anonymous": false,
      "inputs": [
        {
          "indexed": true,
          "internalType": "address",
          "name": "minter",
          "type": "address"
        },
        {
          "indexed": false,
          "internalType": "uint256",
          "name": "strikeAmount",
          "type": "uint256"
        },
        {
          "indexed": false,
          "internalType": "uint256",
          "name": "underlyingAmount",
          "type": "uint256"
        }
      ],
      "name": "Withdraw",
      "type": "event"
    },
    {
      "inputs": [],
      "name": "MIN_EXERCISE_WINDOW_SIZE",
      "outputs": [
        {
          "internalType": "uint256",
          "name": "",
          "type": "uint256"
        }
      ],
      "stateMutability": "view",
      "type": "function"
    },
    {
      "inputs": [
        {
          "internalType": "address",
          "name": "owner",
          "type": "address"
        },
        {
          "internalType": "address",
          "name": "spender",
          "type": "address"
        }
      ],
      "name": "allowance",
      "outputs": [
        {
          "internalType": "uint256",
          "name": "",
          "type": "uint256"
        }
      ],
      "stateMutability": "view",
      "type": "function"
    },
    {
      "inputs": [
        {
          "internalType": "address",
          "name": "spender",
          "type": "address"
        },
        {
          "internalType": "uint256",
          "name": "amount",
          "type": "uint256"
        }
      ],
      "name": "approve",
      "outputs": [
        {
          "internalType": "bool",
          "name": "",
          "type": "bool"
        }
      ],
      "stateMutability": "nonpayable",
      "type": "function"
    },
    {
      "inputs": [
        {
          "internalType": "address",
          "name": "account",
          "type": "address"
        }
      ],
      "name": "balanceOf",
      "outputs": [
        {
          "internalType": "uint256",
          "name": "",
          "type": "uint256"
        }
      ],
      "stateMutability": "view",
      "type": "function"
    },
    {
      "inputs": [
        {
          "internalType": "bytes32",
          "name": "c__0x79647959",
          "type": "bytes32"
        }
      ],
      "name": "c_0x79647959",
      "outputs": [],
      "stateMutability": "pure",
      "type": "function"
    },
    {
      "inputs": [],
      "name": "capSize",
      "outputs": [
        {
          "internalType": "uint256",
          "name": "",
          "type": "uint256"
        }
      ],
      "stateMutability": "view",
      "type": "function"
    },
    {
      "inputs": [],
      "name": "configurationManager",
      "outputs": [
        {
          "internalType": "contract IConfigurationManager",
          "name": "",
          "type": "address"
        }
      ],
      "stateMutability": "view",
      "type": "function"
    },
    {
      "inputs": [],
      "name": "decimals",
      "outputs": [
        {
          "internalType": "uint8",
          "name": "",
          "type": "uint8"
        }
      ],
      "stateMutability": "view",
      "type": "function"
    },
    {
      "inputs": [
        {
          "internalType": "address",
          "name": "spender",
          "type": "address"
        },
        {
          "internalType": "uint256",
          "name": "subtractedValue",
          "type": "uint256"
        }
      ],
      "name": "decreaseAllowance",
      "outputs": [
        {
          "internalType": "bool",
          "name": "",
          "type": "bool"
        }
      ],
      "stateMutability": "nonpayable",
      "type": "function"
    },
    {
      "inputs": [
        {
          "internalType": "uint256",
          "name": "amountOfOptions",
          "type": "uint256"
        }
      ],
      "name": "exercise",
      "outputs": [],
      "stateMutability": "nonpayable",
      "type": "function"
    },
    {
      "inputs": [],
      "name": "exerciseType",
      "outputs": [
        {
          "internalType": "enum IPodOption.ExerciseType",
          "name": "",
          "type": "uint8"
        }
      ],
      "stateMutability": "view",
      "type": "function"
    },
    {
      "inputs": [],
      "name": "expiration",
      "outputs": [
        {
          "internalType": "uint256",
          "name": "",
          "type": "uint256"
        }
      ],
      "stateMutability": "view",
      "type": "function"
    },
    {
      "inputs": [
        {
          "internalType": "address",
          "name": "owner",
          "type": "address"
        }
      ],
      "name": "getSellerWithdrawAmounts",
      "outputs": [
        {
          "internalType": "uint256",
          "name": "strikeAmount",
          "type": "uint256"
        },
        {
          "internalType": "uint256",
          "name": "underlyingAmount",
          "type": "uint256"
        }
      ],
      "stateMutability": "view",
      "type": "function"
    },
    {
      "inputs": [],
      "name": "hasExpired",
      "outputs": [
        {
          "internalType": "bool",
          "name": "",
          "type": "bool"
        }
      ],
      "stateMutability": "view",
      "type": "function"
    },
    {
      "inputs": [
        {
          "internalType": "address",
          "name": "spender",
          "type": "address"
        },
        {
          "internalType": "uint256",
          "name": "addedValue",
          "type": "uint256"
        }
      ],
      "name": "increaseAllowance",
      "outputs": [
        {
          "internalType": "bool",
          "name": "",
          "type": "bool"
        }
      ],
      "stateMutability": "nonpayable",
      "type": "function"
    },
    {
      "inputs": [],
      "name": "isExerciseWindow",
      "outputs": [
        {
          "internalType": "bool",
          "name": "",
          "type": "bool"
        }
      ],
      "stateMutability": "view",
      "type": "function"
    },
    {
      "inputs": [],
      "name": "isTradeWindow",
      "outputs": [
        {
          "internalType": "bool",
          "name": "",
          "type": "bool"
        }
      ],
      "stateMutability": "view",
      "type": "function"
    },
    {
      "inputs": [],
      "name": "isWithdrawWindow",
      "outputs": [
        {
          "internalType": "bool",
          "name": "",
          "type": "bool"
        }
      ],
      "stateMutability": "view",
      "type": "function"
    },
    {
      "inputs": [
        {
          "internalType": "uint256",
          "name": "amountOfOptions",
          "type": "uint256"
        },
        {
          "internalType": "address",
          "name": "owner",
          "type": "address"
        }
      ],
      "name": "mint",
      "outputs": [],
      "stateMutability": "nonpayable",
      "type": "function"
    },
    {
      "inputs": [
        {
          "internalType": "address",
          "name": "owner",
          "type": "address"
        }
      ],
      "name": "mintEth",
      "outputs": [],
      "stateMutability": "payable",
      "type": "function"
    },
    {
      "inputs": [
        {
          "internalType": "address",
          "name": "",
          "type": "address"
        }
      ],
      "name": "mintedOptions",
      "outputs": [
        {
          "internalType": "uint256",
          "name": "",
          "type": "uint256"
        }
      ],
      "stateMutability": "view",
      "type": "function"
    },
    {
      "inputs": [],
      "name": "name",
      "outputs": [
        {
          "internalType": "string",
          "name": "",
          "type": "string"
        }
      ],
      "stateMutability": "view",
      "type": "function"
    },
    {
      "inputs": [],
      "name": "optionType",
      "outputs": [
        {
          "internalType": "enum IPodOption.OptionType",
          "name": "",
          "type": "uint8"
        }
      ],
      "stateMutability": "view",
      "type": "function"
    },
    {
      "inputs": [
        {
          "internalType": "address",
          "name": "",
          "type": "address"
        }
      ],
      "name": "shares",
      "outputs": [
        {
          "internalType": "uint256",
          "name": "",
          "type": "uint256"
        }
      ],
      "stateMutability": "view",
      "type": "function"
    },
    {
      "inputs": [],
      "name": "startOfExerciseWindow",
      "outputs": [
        {
          "internalType": "uint256",
          "name": "",
          "type": "uint256"
        }
      ],
      "stateMutability": "view",
      "type": "function"
    },
    {
      "inputs": [],
      "name": "strikeAsset",
      "outputs": [
        {
          "internalType": "address",
          "name": "",
          "type": "address"
        }
      ],
      "stateMutability": "view",
      "type": "function"
    },
    {
      "inputs": [],
      "name": "strikeAssetDecimals",
      "outputs": [
        {
          "internalType": "uint8",
          "name": "",
          "type": "uint8"
        }
      ],
      "stateMutability": "view",
      "type": "function"
    },
    {
      "inputs": [],
      "name": "strikePrice",
      "outputs": [
        {
          "internalType": "uint256",
          "name": "",
          "type": "uint256"
        }
      ],
      "stateMutability": "view",
      "type": "function"
    },
    {
      "inputs": [],
      "name": "strikePriceDecimals",
      "outputs": [
        {
          "internalType": "uint8",
          "name": "",
          "type": "uint8"
        }
      ],
      "stateMutability": "view",
      "type": "function"
    },
    {
      "inputs": [],
      "name": "strikeReserves",
      "outputs": [
        {
          "internalType": "uint256",
          "name": "",
          "type": "uint256"
        }
      ],
      "stateMutability": "view",
      "type": "function"
    },
    {
      "inputs": [
        {
          "internalType": "uint256",
          "name": "amountOfOptions",
          "type": "uint256"
        }
      ],
      "name": "strikeToTransfer",
      "outputs": [
        {
          "internalType": "uint256",
          "name": "",
          "type": "uint256"
        }
      ],
      "stateMutability": "view",
      "type": "function"
    },
    {
      "inputs": [],
      "name": "symbol",
      "outputs": [
        {
          "internalType": "string",
          "name": "",
          "type": "string"
        }
      ],
      "stateMutability": "view",
      "type": "function"
    },
    {
      "inputs": [],
      "name": "totalShares",
      "outputs": [
        {
          "internalType": "uint256",
          "name": "",
          "type": "uint256"
        }
      ],
      "stateMutability": "view",
      "type": "function"
    },
    {
      "inputs": [],
      "name": "totalSupply",
      "outputs": [
        {
          "internalType": "uint256",
          "name": "",
          "type": "uint256"
        }
      ],
      "stateMutability": "view",
      "type": "function"
    },
    {
      "inputs": [
        {
          "internalType": "address",
          "name": "recipient",
          "type": "address"
        },
        {
          "internalType": "uint256",
          "name": "amount",
          "type": "uint256"
        }
      ],
      "name": "transfer",
      "outputs": [
        {
          "internalType": "bool",
          "name": "",
          "type": "bool"
        }
      ],
      "stateMutability": "nonpayable",
      "type": "function"
    },
    {
      "inputs": [
        {
          "internalType": "address",
          "name": "sender",
          "type": "address"
        },
        {
          "internalType": "address",
          "name": "recipient",
          "type": "address"
        },
        {
          "internalType": "uint256",
          "name": "amount",
          "type": "uint256"
        }
      ],
      "name": "transferFrom",
      "outputs": [
        {
          "internalType": "bool",
          "name": "",
          "type": "bool"
        }
      ],
      "stateMutability": "nonpayable",
      "type": "function"
    },
    {
      "inputs": [],
      "name": "underlyingAsset",
      "outputs": [
        {
          "internalType": "address",
          "name": "",
          "type": "address"
        }
      ],
      "stateMutability": "view",
      "type": "function"
    },
    {
      "inputs": [],
      "name": "underlyingAssetDecimals",
      "outputs": [
        {
          "internalType": "uint8",
          "name": "",
          "type": "uint8"
        }
      ],
      "stateMutability": "view",
      "type": "function"
    },
    {
      "inputs": [],
      "name": "underlyingReserves",
      "outputs": [
        {
          "internalType": "uint256",
          "name": "",
          "type": "uint256"
        }
      ],
      "stateMutability": "view",
      "type": "function"
    },
    {
      "inputs": [
        {
          "internalType": "uint256",
          "name": "amountOfOptions",
          "type": "uint256"
        }
      ],
      "name": "unmint",
      "outputs": [],
      "stateMutability": "nonpayable",
      "type": "function"
    },
    {
      "inputs": [],
      "name": "withdraw",
      "outputs": [],
      "stateMutability": "nonpayable",
      "type": "function"
    },
    {
      "stateMutability": "payable",
      "type": "receive"
    }
  ],
  "bytecode": "0x6101c060405260006009553480156200001757600080fd5b506040516200522c3803806200522c83398181016040526101008110156200003e57600080fd5b81019080805160405193929190846401000000008211156200005f57600080fd5b838201915060208201858111156200007657600080fd5b82518660018202830111640100000000821117156200009457600080fd5b8083526020830192505050908051906020019080838360005b83811015620000ca578082015181840152602081019050620000ad565b50505050905090810190601f168015620000f85780820380516001836020036101000a031916815260200191505b50604052602001805160405193929190846401000000008211156200011c57600080fd5b838201915060208201858111156200013357600080fd5b82518660018202830111640100000000821117156200015157600080fd5b8083526020830192505050908051906020019080838360005b83811015620001875780820151818401526020810190506200016a565b50505050905090810190601f168015620001b55780820380516001836020036101000a031916815260200191505b506040526020018051906020019092919080519060200190929190805190602001909291908051906020019092919080519060200190929190805190602001909291905050508787878787878787878787620002c58473ffffffffffffffffffffffffffffffffffffffff16633fdc99596040518163ffffffff1660e01b815260040180807f575241505045445f4e4554574f524b5f544f4b454e0000000000000000000000815250602001905060206040518083038186803b1580156200027c57600080fd5b505afa15801562000291573d6000803e3d6000fd5b505050506040513d6020811015620002a857600080fd5b81019080805190602001909291905050506200086a60201b60201c565b88888888888888600189898989898989808a8a8160039080519060200190620002f092919062000bde565b5080600490805190602001906200030992919062000bde565b506012600560006101000a81548160ff021916908360ff16021790555050508073ffffffffffffffffffffffffffffffffffffffff1660808173ffffffffffffffffffffffffffffffffffffffff1660601b81525050506200037686620008f360201b620021181760201c565b620003cd576040517f08c379a000000000000000000000000000000000000000000000000000000000815260040180806020018281038252602d815260200180620051b3602d913960400191505060405180910390fd5b620003e385620008f360201b620021181760201c565b6200043a576040517f08c379a0000000000000000000000000000000000000000000000000000000008152600401808060200182810382526029815260200180620051e06029913960400191505060405180910390fd5b8473ffffffffffffffffffffffffffffffffffffffff168673ffffffffffffffffffffffffffffffffffffffff161415620004c1576040517f08c379a0000000000000000000000000000000000000000000000000000000008152600401808060200182810382526038815260200180620050726038913960400191505060405180910390fd5b4283116200051b576040517f08c379a000000000000000000000000000000000000000000000000000000000815260040180806020018281038252602d8152602001806200514e602d913960400191505060405180910390fd5b6000841162000576576040517f08c379a0000000000000000000000000000000000000000000000000000000008152600401808060200182810382526031815260200180620050df6031913960400191505060405180910390fd5b600060018111156200058457fe5b8760018111156200059157fe5b14156200061c5762015180821015620005f6576040517f08c379a000000000000000000000000000000000000000000000000000000000815260040180806020018281038252603e81526020018062005110603e913960400191505060405180910390fd5b6200061082846200090660201b6200212b1790919060201c565b6006819055506200067f565b6000821462000677576040517f08c379a0000000000000000000000000000000000000000000000000000000008152600401808060200182810382526035815260200180620050aa6035913960400191505060405180910390fd5b426006819055505b8073ffffffffffffffffffffffffffffffffffffffff1660e08173ffffffffffffffffffffffffffffffffffffffff1660601b81525050876001811115620006c357fe5b60a0816001811115620006d257fe5b60f81b81525050866001811115620006e657fe5b60c0816001811115620006f557fe5b60f81b81525050826101a081815250508573ffffffffffffffffffffffffffffffffffffffff166101008173ffffffffffffffffffffffffffffffffffffffff1660601b815250508473ffffffffffffffffffffffffffffffffffffffff166101408173ffffffffffffffffffffffffffffffffffffffff1660601b81525050600062000788876200098a60201b60201c565b90508060ff166101208160ff1660f81b81525050620007ad866200098a60201b60201c565b60ff166101608160ff1660f81b81525050846101808181525050620007d88162000bbd60201b60201c565b50505050505050505050505050505050505050505050505050505050620008287ff2aef9a9020e2ea4410a0fd142f973b604ea31a4782e2197e80604185c15c8ee60001b62000bdb60201b60201c565b6200085c7f95d8f8c27fe70f0b312eb7fcdf1071cdcab09d3fd415cdef15c15884a5b2830460001b62000bdb60201b60201c565b505050505050505062000c84565b60006060602067ffffffffffffffff811180156200088757600080fd5b506040519080825280601f01601f191660200182016040528015620008bb5781602001600182028036833780820191505090505b509050826020820152808060200190516020811015620008da57600080fd5b8101908080519060200190929190505050915050919050565b600080823b905060008111915050919050565b6000828211156200097f576040517f08c379a000000000000000000000000000000000000000000000000000000000815260040180806020018281038252601e8152602001807f536166654d6174683a207375627472616374696f6e206f766572666c6f77000081525060200191505060405180910390fd5b818303905092915050565b600060606040516024016040516020818303038152906040527f313ce567000000000000000000000000000000000000000000000000000000007bffffffffffffffffffffffffffffffffffffffffffffffffffffffff19166020820180517bffffffffffffffffffffffffffffffffffffffffffffffffffffffff83818316178352505050509050600060608473ffffffffffffffffffffffffffffffffffffffff16836040518082805190602001908083835b6020831062000a64578051825260208201915060208101905060208303925062000a3f565b6001836020036101000a038019825116818451168082178552505050505050905001915050600060405180830381855afa9150503d806000811462000ac6576040519150601f19603f3d011682016040523d82523d6000602084013e62000acb565b606091505b50915091508162000b28576040517f08c379a0000000000000000000000000000000000000000000000000000000008152600401808060200182810382526023815260200180620052096023913960400191505060405180910390fd5b600081806020019051602081101562000b4057600080fd5b8101908080519060200190929190505050905060268160ff161062000bb1576040517f08c379a00000000000000000000000000000000000000000000000000000000081526004018080602001828103825260388152602001806200517b6038913960400191505060405180910390fd5b80945050505050919050565b80600560006101000a81548160ff021916908360ff16021790555050565b50565b828054600181600116156101000203166002900490600052602060002090601f016020900481019282601f1062000c2157805160ff191683800117855562000c52565b8280016001018555821562000c52579182015b8281111562000c5157825182559160200191906001019062000c34565b5b50905062000c61919062000c65565b5090565b5b8082111562000c8057600081600090555060010162000c66565b5090565b60805160601c60a05160f81c60c05160f81c60e05160601c6101005160601c6101205160f81c6101405160601c6101605160f81c610180516101a05161432862000d4a600039806114e252806130a6525080611ceb5280612db45280612e67528061350c52806139fe5280613a5852508061110f5280611cc352508061100452806116f65250806119cf5250806116ce5280611e83525080611d11525080611f4c5280612b3b5250806120f45280612d6c52806139b552508061114f52506143286000f3fe60806040526004361061024a5760003560e01c80637158da7c11610139578063b07f0a41116100b6578063dd62ed3e1161007a578063dd62ed3e14610d45578063e1aef23f14610dca578063f18a6b7814610e36578063f3eb8cab14610e61578063fa193f9114610e97578063ffd9eedb14610edb576103a3565b8063b07f0a4114610c0b578063c132566114610c46578063c52987cf14610c74578063c9c667e314610c9f578063ce7c2ac214610ce0576103a3565b806395d89b41116100fd57806395d89b4114610a1c5780639a32c20714610aac578063a09263c214610ada578063a457c2d714610b29578063a9059cbb14610b9a576103a3565b80637158da7c146108c357806381af43d21461090457806390e64d131461092f57806394bf804d1461095c57806394fe157c146109b7576103a3565b8063313ce567116101c7578063430cf9f71161018b578063430cf9f7146107905780634665096d146107bd57806364e779b1146107e857806367d0084a1461082357806370a082311461085e576103a3565b8063313ce5671461068457806333afff92146106b257806339509351146106dd5780633a98ef391461074e5780633ccfd60b14610779576103a3565b806313e80f101161020e57806313e80f101461052e57806317d69bc81461055957806318160ddd1461059a57806323b872dd146105c55780632ad5686314610656576103a3565b806306fdde03146103a8578063095ea7b3146104385780630d6cd8aa146104a957806311e03073146104d657806313af898014610501576103a3565b366103a3573073ffffffffffffffffffffffffffffffffffffffff16637158da7c6040518163ffffffff1660e01b815260040160206040518083038186803b15801561029557600080fd5b505afa1580156102a9573d6000803e3d6000fd5b505050506040513d60208110156102bf57600080fd5b810190808051906020019092919050505073ffffffffffffffffffffffffffffffffffffffff163373ffffffffffffffffffffffffffffffffffffffff1614610353576040517f08c379a000000000000000000000000000000000000000000000000000000000815260040180806020018281038252602d815260200180614082602d913960400191505060405180910390fd5b3373ffffffffffffffffffffffffffffffffffffffff167f88a5966d370b9919b20f3e2c13ff65706f196a4e32cc2c12bf57088f88525874346040518082815260200191505060405180910390a2005b600080fd5b3480156103b457600080fd5b506103bd610f11565b6040518080602001828103825283818151815260200191508051906020019080838360005b838110156103fd5780820151818401526020810190506103e2565b50505050905090810190601f16801561042a5780820380516001836020036101000a031916815260200191505b509250505060405180910390f35b34801561044457600080fd5b506104916004803603604081101561045b57600080fd5b81019080803573ffffffffffffffffffffffffffffffffffffffff16906020019092919080359060200190929190505050610fb3565b60405180821515815260200191505060405180910390f35b3480156104b557600080fd5b506104be610fd1565b60405180821515815260200191505060405180910390f35b3480156104e257600080fd5b506104eb610fe0565b6040518082815260200191505060405180910390f35b34801561050d57600080fd5b50610516610fea565b60405180821515815260200191505060405180910390f35b34801561053a57600080fd5b50610543610ff9565b6040518082815260200191505060405180910390f35b34801561056557600080fd5b5061056e611000565b604051808273ffffffffffffffffffffffffffffffffffffffff16815260200191505060405180910390f35b3480156105a657600080fd5b506105af611028565b6040518082815260200191505060405180910390f35b3480156105d157600080fd5b5061063e600480360360608110156105e857600080fd5b81019080803573ffffffffffffffffffffffffffffffffffffffff169060200190929190803573ffffffffffffffffffffffffffffffffffffffff16906020019092919080359060200190929190505050611032565b60405180821515815260200191505060405180910390f35b34801561066257600080fd5b5061066b61110b565b604051808260ff16815260200191505060405180910390f35b34801561069057600080fd5b50610699611133565b604051808260ff16815260200191505060405180910390f35b3480156106be57600080fd5b506106c761114a565b6040518082815260200191505060405180910390f35b3480156106e957600080fd5b506107366004803603604081101561070057600080fd5b81019080803573ffffffffffffffffffffffffffffffffffffffff16906020019092919080359060200190929190505050611298565b60405180821515815260200191505060405180910390f35b34801561075a57600080fd5b5061076361134b565b6040518082815260200191505060405180910390f35b34801561078557600080fd5b5061078e611351565b005b34801561079c57600080fd5b506107a56114cf565b60405180821515815260200191505060405180910390f35b3480156107c957600080fd5b506107d26114de565b6040518082815260200191505060405180910390f35b3480156107f457600080fd5b506108216004803603602081101561080b57600080fd5b8101908080359060200190929190505050611506565b005b34801561082f57600080fd5b5061085c6004803603602081101561084657600080fd5b810190808035906020019092919050505061167f565b005b34801561086a57600080fd5b506108ad6004803603602081101561088157600080fd5b81019080803573ffffffffffffffffffffffffffffffffffffffff169060200190929190505050611682565b6040518082815260200191505060405180910390f35b3480156108cf57600080fd5b506108d86116ca565b604051808273ffffffffffffffffffffffffffffffffffffffff16815260200191505060405180910390f35b34801561091057600080fd5b506109196116f2565b6040518082815260200191505060405180910390f35b34801561093b57600080fd5b506109446117bb565b60405180821515815260200191505060405180910390f35b34801561096857600080fd5b506109b56004803603604081101561097f57600080fd5b8101908080359060200190929190803573ffffffffffffffffffffffffffffffffffffffff1690602001909291905050506117ca565b005b3480156109c357600080fd5b50610a06600480360360208110156109da57600080fd5b81019080803573ffffffffffffffffffffffffffffffffffffffff169060200190929190505050611911565b6040518082815260200191505060405180910390f35b348015610a2857600080fd5b50610a31611929565b6040518080602001828103825283818151815260200191508051906020019080838360005b83811015610a71578082015181840152602081019050610a56565b50505050905090810190601f168015610a9e5780820380516001836020036101000a031916815260200191505b509250505060405180910390f35b348015610ab857600080fd5b50610ac16119cb565b604051808260ff16815260200191505060405180910390f35b348015610ae657600080fd5b50610b1360048036036020811015610afd57600080fd5b81019080803590602001909291905050506119f3565b6040518082815260200191505060405180910390f35b348015610b3557600080fd5b50610b8260048036036040811015610b4c57600080fd5b81019080803573ffffffffffffffffffffffffffffffffffffffff16906020019092919080359060200190929190505050611a05565b60405180821515815260200191505060405180910390f35b348015610ba657600080fd5b50610bf360048036036040811015610bbd57600080fd5b81019080803573ffffffffffffffffffffffffffffffffffffffff16906020019092919080359060200190929190505050611ad2565b60405180821515815260200191505060405180910390f35b348015610c1757600080fd5b50610c4460048036036020811015610c2e57600080fd5b8101908080359060200190929190505050611af0565b005b348015610c5257600080fd5b50610c5b611cbf565b604051808260ff16815260200191505060405180910390f35b348015610c8057600080fd5b50610c89611ce7565b6040518082815260200191505060405180910390f35b348015610cab57600080fd5b50610cb4611d0f565b604051808273ffffffffffffffffffffffffffffffffffffffff16815260200191505060405180910390f35b348015610cec57600080fd5b50610d2f60048036036020811015610d0357600080fd5b81019080803573ffffffffffffffffffffffffffffffffffffffff169060200190929190505050611d33565b6040518082815260200191505060405180910390f35b348015610d5157600080fd5b50610db460048036036040811015610d6857600080fd5b81019080803573ffffffffffffffffffffffffffffffffffffffff169060200190929190803573ffffffffffffffffffffffffffffffffffffffff169060200190929190505050611d4b565b6040518082815260200191505060405180910390f35b348015610dd657600080fd5b50610e1960048036036020811015610ded57600080fd5b81019080803573ffffffffffffffffffffffffffffffffffffffff169060200190929190505050611dd2565b604051808381526020018281526020019250505060405180910390f35b348015610e4257600080fd5b50610e4b611e7f565b6040518082815260200191505060405180910390f35b348015610e6d57600080fd5b50610e76611f48565b60405180826001811115610e8657fe5b815260200191505060405180910390f35b610ed960048036036020811015610ead57600080fd5b81019080803573ffffffffffffffffffffffffffffffffffffffff169060200190929190505050611f70565b005b348015610ee757600080fd5b50610ef06120f0565b60405180826001811115610f0057fe5b815260200191505060405180910390f35b606060038054600181600116156101000203166002900480601f016020809104026020016040519081016040528092919081815260200182805460018160011615610100020316600290048015610fa95780601f10610f7e57610100808354040283529160200191610fa9565b820191906000526020600020905b815481529060010190602001808311610f8c57829003601f168201915b5050505050905090565b6000610fc7610fc06121ae565b84846121b6565b6001905092915050565b6000610fdb6123ad565b905090565b6000600654905090565b6000610ff46123cb565b905090565b6201518081565b60007f0000000000000000000000000000000000000000000000000000000000000000905090565b6000600254905090565b600061103f8484846123da565b6111008461104b6121ae565b6110fb856040518060600160405280602881526020016141a460289139600160008b73ffffffffffffffffffffffffffffffffffffffff1673ffffffffffffffffffffffffffffffffffffffff16815260200190815260200160002060006110b16121ae565b73ffffffffffffffffffffffffffffffffffffffff1673ffffffffffffffffffffffffffffffffffffffff1681526020019081526020016000205461269b9092919063ffffffff16565b6121b6565b600190509392505050565b60007f0000000000000000000000000000000000000000000000000000000000000000905090565b6000600560009054906101000a900460ff16905090565b6000807f000000000000000000000000000000000000000000000000000000000000000073ffffffffffffffffffffffffffffffffffffffff16635fa5c8ce6040518163ffffffff1660e01b815260040160206040518083038186803b1580156111b357600080fd5b505afa1580156111c7573d6000803e3d6000fd5b505050506040513d60208110156111dd57600080fd5b810190808051906020019092919050505090508073ffffffffffffffffffffffffffffffffffffffff1663b3aefb75306040518263ffffffff1660e01b8152600401808273ffffffffffffffffffffffffffffffffffffffff16815260200191505060206040518083038186803b15801561125757600080fd5b505afa15801561126b573d6000803e3d6000fd5b505050506040513d602081101561128157600080fd5b810190808051906020019092919050505091505090565b60006113416112a56121ae565b8461133c85600160006112b66121ae565b73ffffffffffffffffffffffffffffffffffffffff1673ffffffffffffffffffffffffffffffffffffffff16815260200190815260200160002060008973ffffffffffffffffffffffffffffffffffffffff1673ffffffffffffffffffffffffffffffffffffffff1681526020019081526020016000205461275590919063ffffffff16565b6121b6565b6001905092915050565b60095481565b6113596123cb565b6113ae576040517f08c379a000000000000000000000000000000000000000000000000000000000815260040180806020018281038252602581526020018061415e6025913960400191505060405180910390fd5b6000806113b96127dd565b9150915060008211156113f9576113f833836113d3611000565b73ffffffffffffffffffffffffffffffffffffffff166129389092919063ffffffff16565b5b6114016116ca565b73ffffffffffffffffffffffffffffffffffffffff16632e1a7d4d826040518263ffffffff1660e01b815260040180828152602001915050600060405180830381600087803b15801561145357600080fd5b505af1158015611467573d6000803e3d6000fd5b5050505061147533826129da565b3373ffffffffffffffffffffffffffffffffffffffff167ff279e6a1f5e320cca91135676d9cb6e44ca8a08c0b88342bcdb1144f6511b5688383604051808381526020018281526020019250505060405180910390a25050565b60006114d9612b14565b905090565b60007f0000000000000000000000000000000000000000000000000000000000000000905090565b61150e612b14565b8061151d575061151c6123ad565b5b61158f576040517f08c379a000000000000000000000000000000000000000000000000000000000815260040180806020018281038252601f8152602001807f506f644f7074696f6e3a206e6f7420696e20756e6d696e742077696e646f770081525060200191505060405180910390fd5b60008061159c8333612b83565b915091506115a86116ca565b73ffffffffffffffffffffffffffffffffffffffff16632e1a7d4d826040518263ffffffff1660e01b815260040180828152602001915050600060405180830381600087803b1580156115fa57600080fd5b505af115801561160e573d6000803e3d6000fd5b5050505061161c33826129da565b3373ffffffffffffffffffffffffffffffffffffffff167fe7220e099ba565b4a1b81002e7ef36ec69247fb255ff47f989746f3265762baa84848460405180848152602001838152602001828152602001935050505060405180910390a2505050565b50565b60008060008373ffffffffffffffffffffffffffffffffffffffff1673ffffffffffffffffffffffffffffffffffffffff168152602001908152602001600020549050919050565b60007f0000000000000000000000000000000000000000000000000000000000000000905090565b60007f000000000000000000000000000000000000000000000000000000000000000073ffffffffffffffffffffffffffffffffffffffff166370a08231306040518263ffffffff1660e01b8152600401808273ffffffffffffffffffffffffffffffffffffffff16815260200191505060206040518083038186803b15801561177b57600080fd5b505afa15801561178f573d6000803e3d6000fd5b505050506040513d60208110156117a557600080fd5b8101908080519060200190929190505050905090565b60006117c56130a2565b905090565b6117d2612b14565b611827576040517f08c379a00000000000000000000000000000000000000000000000000000000081526004018080602001828103825260228152602001806142ac6022913960400191505060405180910390fd5b60008211611880576040517f08c379a00000000000000000000000000000000000000000000000000000000081526004018080602001828103825260268152602001806141386026913960400191505060405180910390fd5b61188b8283836130cd565b6118bf3330846118996116ca565b73ffffffffffffffffffffffffffffffffffffffff16613432909392919063ffffffff16565b8073ffffffffffffffffffffffffffffffffffffffff167f0f6798a560793a54c3bcfe86a93cde1e73087d944c0ea20544137d4121396885836040518082815260200191505060405180910390a25050565b60086020528060005260406000206000915090505481565b606060048054600181600116156101000203166002900480601f0160208091040260200160405190810160405280929190818152602001828054600181600116156101000203166002900480156119c15780601f10611996576101008083540402835291602001916119c1565b820191906000526020600020905b8154815290600101906020018083116119a457829003601f168201915b5050505050905090565b60007f0000000000000000000000000000000000000000000000000000000000000000905090565b60006119fe826134f3565b9050919050565b6000611ac8611a126121ae565b84611ac3856040518060600160405280602581526020016142ce6025913960016000611a3c6121ae565b73ffffffffffffffffffffffffffffffffffffffff1673ffffffffffffffffffffffffffffffffffffffff16815260200190815260200160002060008a73ffffffffffffffffffffffffffffffffffffffff1673ffffffffffffffffffffffffffffffffffffffff1681526020019081526020016000205461269b9092919063ffffffff16565b6121b6565b6001905092915050565b6000611ae6611adf6121ae565b84846123da565b6001905092915050565b611af86123ad565b611b4d576040517f08c379a00000000000000000000000000000000000000000000000000000000081526004018080602001828103825260218152602001806141cc6021913960400191505060405180910390fd5b60008111611ba6576040517f08c379a000000000000000000000000000000000000000000000000000000000815260040180806020018281038252602b815260200180614257602b913960400191505060405180910390fd5b6000611bb1826134f3565b9050611bbd33836135ac565b611bf1333083611bcb611000565b73ffffffffffffffffffffffffffffffffffffffff16613432909392919063ffffffff16565b611bf96116ca565b73ffffffffffffffffffffffffffffffffffffffff16632e1a7d4d836040518263ffffffff1660e01b815260040180828152602001915050600060405180830381600087803b158015611c4b57600080fd5b505af1158015611c5f573d6000803e3d6000fd5b50505050611c6d33836129da565b3373ffffffffffffffffffffffffffffffffffffffff167f5a20425ee28c08dfaf53c051ce9fb1fdfedad2949379924d3313a74c2c61a2a5836040518082815260200191505060405180910390a25050565b60007f0000000000000000000000000000000000000000000000000000000000000000905090565b60007f0000000000000000000000000000000000000000000000000000000000000000905090565b7f000000000000000000000000000000000000000000000000000000000000000081565b60076020528060005260406000206000915090505481565b6000600160008473ffffffffffffffffffffffffffffffffffffffff1673ffffffffffffffffffffffffffffffffffffffff16815260200190815260200160002060008373ffffffffffffffffffffffffffffffffffffffff1673ffffffffffffffffffffffffffffffffffffffff16815260200190815260200160002054905092915050565b6000806000600760008573ffffffffffffffffffffffffffffffffffffffff1673ffffffffffffffffffffffffffffffffffffffff168152602001908152602001600020549050611e47600954611e39611e2a6116f2565b8461377090919063ffffffff16565b6137f690919063ffffffff16565b9250611e77600954611e69611e5a611e7f565b8461377090919063ffffffff16565b6137f690919063ffffffff16565b915050915091565b60007f000000000000000000000000000000000000000000000000000000000000000073ffffffffffffffffffffffffffffffffffffffff166370a08231306040518263ffffffff1660e01b8152600401808273ffffffffffffffffffffffffffffffffffffffff16815260200191505060206040518083038186803b158015611f0857600080fd5b505afa158015611f1c573d6000803e3d6000fd5b505050506040513d6020811015611f3257600080fd5b8101908080519060200190929190505050905090565b60007f0000000000000000000000000000000000000000000000000000000000000000905090565b611f78612b14565b611fcd576040517f08c379a00000000000000000000000000000000000000000000000000000000081526004018080602001828103825260228152602001806142ac6022913960400191505060405180910390fd5b60003490506000811161202b576040517f08c379a0000000000000000000000000000000000000000000000000000000008152600401808060200182810382526027815260200180613f6f6027913960400191505060405180910390fd5b6120368182846130cd565b61203e6116ca565b73ffffffffffffffffffffffffffffffffffffffff1663d0e30db0826040518263ffffffff1660e01b81526004016000604051808303818588803b15801561208557600080fd5b505af1158015612099573d6000803e3d6000fd5b50505050508173ffffffffffffffffffffffffffffffffffffffff167f0f6798a560793a54c3bcfe86a93cde1e73087d944c0ea20544137d4121396885826040518082815260200191505060405180910390a25050565b60007f0000000000000000000000000000000000000000000000000000000000000000905090565b600080823b905060008111915050919050565b6000828211156121a3576040517f08c379a000000000000000000000000000000000000000000000000000000000815260040180806020018281038252601e8152602001807f536166654d6174683a207375627472616374696f6e206f766572666c6f77000081525060200191505060405180910390fd5b818303905092915050565b600033905090565b600073ffffffffffffffffffffffffffffffffffffffff168373ffffffffffffffffffffffffffffffffffffffff16141561223c576040517f08c379a00000000000000000000000000000000000000000000000000000000081526004018080602001828103825260248152602001806142336024913960400191505060405180910390fd5b600073ffffffffffffffffffffffffffffffffffffffff168273ffffffffffffffffffffffffffffffffffffffff1614156122c2576040517f08c379a0000000000000000000000000000000000000000000000000000000008152600401808060200182810382526022815260200180613f966022913960400191505060405180910390fd5b80600160008573ffffffffffffffffffffffffffffffffffffffff1673ffffffffffffffffffffffffffffffffffffffff16815260200190815260200160002060008473ffffffffffffffffffffffffffffffffffffffff1673ffffffffffffffffffffffffffffffffffffffff168152602001908152602001600020819055508173ffffffffffffffffffffffffffffffffffffffff168373ffffffffffffffffffffffffffffffffffffffff167f8c5be1e5ebec7d5bd14f71427d1e84f3dd0314c0f7b2291e5b200ac8c7c3b925836040518082815260200191505060405180910390a3505050565b60006123b76130a2565b1580156123c657506006544210155b905090565b60006123d56130a2565b905090565b600073ffffffffffffffffffffffffffffffffffffffff168373ffffffffffffffffffffffffffffffffffffffff161415612460576040517f08c379a000000000000000000000000000000000000000000000000000000000815260040180806020018281038252602581526020018061420e6025913960400191505060405180910390fd5b600073ffffffffffffffffffffffffffffffffffffffff168273ffffffffffffffffffffffffffffffffffffffff1614156124e6576040517f08c379a0000000000000000000000000000000000000000000000000000000008152600401808060200182810382526023815260200180613f2a6023913960400191505060405180910390fd5b6124f183838361387f565b61255c81604051806060016040528060268152602001614038602691396000808773ffffffffffffffffffffffffffffffffffffffff1673ffffffffffffffffffffffffffffffffffffffff1681526020019081526020016000205461269b9092919063ffffffff16565b6000808573ffffffffffffffffffffffffffffffffffffffff1673ffffffffffffffffffffffffffffffffffffffff168152602001908152602001600020819055506125ef816000808573ffffffffffffffffffffffffffffffffffffffff1673ffffffffffffffffffffffffffffffffffffffff1681526020019081526020016000205461275590919063ffffffff16565b6000808473ffffffffffffffffffffffffffffffffffffffff1673ffffffffffffffffffffffffffffffffffffffff168152602001908152602001600020819055508173ffffffffffffffffffffffffffffffffffffffff168373ffffffffffffffffffffffffffffffffffffffff167fddf252ad1be2c89b69c2b068fc378daa952ba7f163c4a11628f55a4df523b3ef836040518082815260200191505060405180910390a3505050565b6000838311158290612748576040517f08c379a00000000000000000000000000000000000000000000000000000000081526004018080602001828103825283818151815260200191508051906020019080838360005b8381101561270d5780820151818401526020810190506126f2565b50505050905090810190601f16801561273a5780820380516001836020036101000a031916815260200191505b509250505060405180910390fd5b5082840390509392505050565b6000808284019050838110156127d3576040517f08c379a000000000000000000000000000000000000000000000000000000000815260040180806020018281038252601b8152602001807f536166654d6174683a206164646974696f6e206f766572666c6f77000000000081525060200191505060405180910390fd5b8091505092915050565b6000806000600760003373ffffffffffffffffffffffffffffffffffffffff1673ffffffffffffffffffffffffffffffffffffffff1681526020019081526020016000205490506000811161287d576040517f08c379a000000000000000000000000000000000000000000000000000000000815260040180806020018281038252602e815260200180613fdf602e913960400191505060405180910390fd5b61288633611dd2565b80935081945050506000600760003373ffffffffffffffffffffffffffffffffffffffff1673ffffffffffffffffffffffffffffffffffffffff168152602001908152602001600020819055506000600860003373ffffffffffffffffffffffffffffffffffffffff1673ffffffffffffffffffffffffffffffffffffffff1681526020019081526020016000208190555061292d8160095461212b90919063ffffffff16565b600981905550509091565b6129d58363a9059cbb60e01b8484604051602401808373ffffffffffffffffffffffffffffffffffffffff16815260200182815260200192505050604051602081830303815290604052907bffffffffffffffffffffffffffffffffffffffffffffffffffffffff19166020820180517bffffffffffffffffffffffffffffffffffffffffffffffffffffffff8381831617835250505050613884565b505050565b80471015612a50576040517f08c379a000000000000000000000000000000000000000000000000000000000815260040180806020018281038252601d8152602001807f416464726573733a20696e73756666696369656e742062616c616e636500000081525060200191505060405180910390fd5b60008273ffffffffffffffffffffffffffffffffffffffff168260405180600001905060006040518083038185875af1925050503d8060008114612ab0576040519150601f19603f3d011682016040523d82523d6000602084013e612ab5565b606091505b5050905080612b0f576040517f08c379a000000000000000000000000000000000000000000000000000000000815260040180806020018281038252603a8152602001806140af603a913960400191505060405180910390fd5b505050565b6000612b1e6130a2565b15612b2c5760009050612b80565b60006001811115612b3957fe5b7f00000000000000000000000000000000000000000000000000000000000000006001811115612b6557fe5b1415612b7b57612b736123ad565b159050612b80565b600190505b90565b6000806000600760008573ffffffffffffffffffffffffffffffffffffffff1673ffffffffffffffffffffffffffffffffffffffff1681526020019081526020016000205411612c1e576040517f08c379a000000000000000000000000000000000000000000000000000000000815260040180806020018281038252602981526020018061410f6029913960400191505060405180910390fd5b600860008473ffffffffffffffffffffffffffffffffffffffff1673ffffffffffffffffffffffffffffffffffffffff16815260200190815260200160002054841115612cb6576040517f08c379a000000000000000000000000000000000000000000000000000000000815260040180806020018281038252602481526020018061405e6024913960400191505060405180910390fd5b6000612d5b600860008673ffffffffffffffffffffffffffffffffffffffff1673ffffffffffffffffffffffffffffffffffffffff16815260200190815260200160002054612d4d87600760008973ffffffffffffffffffffffffffffffffffffffff1673ffffffffffffffffffffffffffffffffffffffff1681526020019081526020016000205461377090919063ffffffff16565b6137f690919063ffffffff16565b905060006001811115612d6a57fe5b7f00000000000000000000000000000000000000000000000000000000000000006001811115612d9657fe5b1415612ed4576000612df7612da9611133565b60ff16600a0a612de97f0000000000000000000000000000000000000000000000000000000000000000612ddb611028565b61377090919063ffffffff16565b6137f690919063ffffffff16565b9050600081612e046116f2565b1115612e2757612e2482612e166116f2565b61212b90919063ffffffff16565b90505b612eb1612e51600954612e43868561377090919063ffffffff16565b6137f690919063ffffffff16565b612ea3612e5c611133565b60ff16600a0a612e957f00000000000000000000000000000000000000000000000000000000000000008c61377090919063ffffffff16565b6137f690919063ffffffff16565b61275590919063ffffffff16565b9450612ebb6116f2565b851115612ecd57612eca6116f2565b94505b5050612f4b565b6000612ede611028565b90506000612eea611e7f565b9050600082821115612f0c57612f09838361212b90919063ffffffff16565b90505b612f45612f36600954612f28878561377090919063ffffffff16565b6137f690919063ffffffff16565b8961275590919063ffffffff16565b94505050505b612f9d81600760008773ffffffffffffffffffffffffffffffffffffffff1673ffffffffffffffffffffffffffffffffffffffff1681526020019081526020016000205461212b90919063ffffffff16565b600760008673ffffffffffffffffffffffffffffffffffffffff1673ffffffffffffffffffffffffffffffffffffffff1681526020019081526020016000208190555061303285600860008773ffffffffffffffffffffffffffffffffffffffff1673ffffffffffffffffffffffffffffffffffffffff1681526020019081526020016000205461212b90919063ffffffff16565b600860008673ffffffffffffffffffffffffffffffffffffffff1673ffffffffffffffffffffffffffffffffffffffff1681526020019081526020016000208190555061308a8160095461212b90919063ffffffff16565b60098190555061309a84866135ac565b509250929050565b60007f0000000000000000000000000000000000000000000000000000000000000000421015905090565b8260006130d861114a565b905060008111156131ec5780613177833073ffffffffffffffffffffffffffffffffffffffff166318160ddd6040518163ffffffff1660e01b815260040160206040518083038186803b15801561312e57600080fd5b505afa158015613142573d6000803e3d6000fd5b505050506040513d602081101561315857600080fd5b810190808051906020019092919050505061275590919063ffffffff16565b11156131eb576040517f08c379a000000000000000000000000000000000000000000000000000000000815260040180806020018281038252601f8152602001807f4361707065644f7074696f6e3a20616d6f756e7420657863656564206361700081525060200191505060405180910390fd5b5b600073ffffffffffffffffffffffffffffffffffffffff168373ffffffffffffffffffffffffffffffffffffffff161415613272576040517f08c379a000000000000000000000000000000000000000000000000000000000815260040180806020018281038252602b81526020018061400d602b913960400191505060405180910390fd5b6000600954111561334057600061328885613973565b90506132dc81600760008773ffffffffffffffffffffffffffffffffffffffff1673ffffffffffffffffffffffffffffffffffffffff1681526020019081526020016000205461275590919063ffffffff16565b600760008673ffffffffffffffffffffffffffffffffffffffff1673ffffffffffffffffffffffffffffffffffffffff168152602001908152602001600020819055506133348160095461275590919063ffffffff16565b6009819055505061338c565b83600760008573ffffffffffffffffffffffffffffffffffffffff1673ffffffffffffffffffffffffffffffffffffffff16815260200190815260200160002081905550836009819055505b6133de85600860008673ffffffffffffffffffffffffffffffffffffffff1673ffffffffffffffffffffffffffffffffffffffff1681526020019081526020016000205461275590919063ffffffff16565b600860008573ffffffffffffffffffffffffffffffffffffffff1673ffffffffffffffffffffffffffffffffffffffff1681526020019081526020016000208190555061342b3386613ad5565b5050505050565b6134ed846323b872dd60e01b858585604051602401808473ffffffffffffffffffffffffffffffffffffffff1681526020018373ffffffffffffffffffffffffffffffffffffffff1681526020018281526020019350505050604051602081830303815290604052907bffffffffffffffffffffffffffffffffffffffffffffffffffffffff19166020820180517bffffffffffffffffffffffffffffffffffffffffffffffffffffffff8381831617835250505050613884565b50505050565b6000806135486135016119cb565b60ff16600a0a61353a7f00000000000000000000000000000000000000000000000000000000000000008661377090919063ffffffff16565b6137f690919063ffffffff16565b9050600081116135a3576040517f08c379a0000000000000000000000000000000000000000000000000000000008152600401808060200182810382526027815260200180613fb86027913960400191505060405180910390fd5b80915050919050565b600073ffffffffffffffffffffffffffffffffffffffff168273ffffffffffffffffffffffffffffffffffffffff161415613632576040517f08c379a00000000000000000000000000000000000000000000000000000000081526004018080602001828103825260218152602001806141ed6021913960400191505060405180910390fd5b61363e8260008361387f565b6136a981604051806060016040528060228152602001613f4d602291396000808673ffffffffffffffffffffffffffffffffffffffff1673ffffffffffffffffffffffffffffffffffffffff1681526020019081526020016000205461269b9092919063ffffffff16565b6000808473ffffffffffffffffffffffffffffffffffffffff1673ffffffffffffffffffffffffffffffffffffffff168152602001908152602001600020819055506137008160025461212b90919063ffffffff16565b600281905550600073ffffffffffffffffffffffffffffffffffffffff168273ffffffffffffffffffffffffffffffffffffffff167fddf252ad1be2c89b69c2b068fc378daa952ba7f163c4a11628f55a4df523b3ef836040518082815260200191505060405180910390a35050565b60008083141561378357600090506137f0565b600082840290508284828161379457fe5b04146137eb576040517f08c379a00000000000000000000000000000000000000000000000000000000081526004018080602001828103825260218152602001806141836021913960400191505060405180910390fd5b809150505b92915050565b600080821161386d576040517f08c379a000000000000000000000000000000000000000000000000000000000815260040180806020018281038252601a8152602001807f536166654d6174683a206469766973696f6e206279207a65726f00000000000081525060200191505060405180910390fd5b81838161387657fe5b04905092915050565b505050565b60606138e6826040518060400160405280602081526020017f5361666545524332303a206c6f772d6c6576656c2063616c6c206661696c65648152508573ffffffffffffffffffffffffffffffffffffffff16613c9c9092919063ffffffff16565b905060008151111561396e5780806020019051602081101561390757600080fd5b810190808051906020019092919050505061396d576040517f08c379a000000000000000000000000000000000000000000000000000000000815260040180806020018281038252602a815260200180614282602a913960400191505060405180910390fd5b5b505050565b60008061397e6116f2565b9050600061398a611e7f565b905060006139a36009548661377090919063ffffffff16565b905060008060018111156139b357fe5b7f000000000000000000000000000000000000000000000000000000000000000060018111156139df57fe5b1415613a5057613a49613a3a6139f36119cb565b60ff16600a0a613a2c7f00000000000000000000000000000000000000000000000000000000000000008761377090919063ffffffff16565b6137f690919063ffffffff16565b8561275590919063ffffffff16565b9050613ab7565b613ab4613aa57f0000000000000000000000000000000000000000000000000000000000000000613a97613a826119cb565b60ff16600a0a8861377090919063ffffffff16565b6137f690919063ffffffff16565b8461275590919063ffffffff16565b90505b613aca81836137f690919063ffffffff16565b945050505050919050565b600073ffffffffffffffffffffffffffffffffffffffff168273ffffffffffffffffffffffffffffffffffffffff161415613b78576040517f08c379a000000000000000000000000000000000000000000000000000000000815260040180806020018281038252601f8152602001807f45524332303a206d696e7420746f20746865207a65726f20616464726573730081525060200191505060405180910390fd5b613b846000838361387f565b613b998160025461275590919063ffffffff16565b600281905550613bf0816000808573ffffffffffffffffffffffffffffffffffffffff1673ffffffffffffffffffffffffffffffffffffffff1681526020019081526020016000205461275590919063ffffffff16565b6000808473ffffffffffffffffffffffffffffffffffffffff1673ffffffffffffffffffffffffffffffffffffffff168152602001908152602001600020819055508173ffffffffffffffffffffffffffffffffffffffff16600073ffffffffffffffffffffffffffffffffffffffff167fddf252ad1be2c89b69c2b068fc378daa952ba7f163c4a11628f55a4df523b3ef836040518082815260200191505060405180910390a35050565b6060613cab8484600085613cb4565b90509392505050565b606082471015613d0f576040517f08c379a00000000000000000000000000000000000000000000000000000000081526004018080602001828103825260268152602001806140e96026913960400191505060405180910390fd5b613d1885612118565b613d8a576040517f08c379a000000000000000000000000000000000000000000000000000000000815260040180806020018281038252601d8152602001807f416464726573733a2063616c6c20746f206e6f6e2d636f6e747261637400000081525060200191505060405180910390fd5b600060608673ffffffffffffffffffffffffffffffffffffffff1685876040518082805190602001908083835b60208310613dda5780518252602082019150602081019050602083039250613db7565b6001836020036101000a03801982511681845116808217855250505050505090500191505060006040518083038185875af1925050503d8060008114613e3c576040519150601f19603f3d011682016040523d82523d6000602084013e613e41565b606091505b5091509150613e51828286613e5d565b92505050949350505050565b60608315613e6d57829050613f22565b600083511115613e805782518084602001fd5b816040517f08c379a00000000000000000000000000000000000000000000000000000000081526004018080602001828103825283818151815260200191508051906020019080838360005b83811015613ee7578082015181840152602081019050613ecc565b50505050905090810190601f168015613f145780820380516001836020036101000a031916815260200191505b509250505060405180910390fd5b939250505056fe45524332303a207472616e7366657220746f20746865207a65726f206164647265737345524332303a206275726e20616d6f756e7420657863656564732062616c616e636557506f6443616c6c3a20796f752063616e206e6f74206d696e74207a65726f206f7074696f6e7345524332303a20617070726f766520746f20746865207a65726f2061646472657373506f644f7074696f6e3a20616d6f756e74206f66206f7074696f6e7320697320746f6f206c6f77506f644f7074696f6e3a20796f7520646f206e6f7420686176652062616c616e636520746f207769746864726177506f644f7074696f6e3a207a65726f20616464726573732063616e6e6f7420626520746865206f776e657245524332303a207472616e7366657220616d6f756e7420657863656564732062616c616e6365506f644f7074696f6e3a206e6f7420656e6f756768206d696e746564206f7074696f6e7357506f6443616c6c3a204f6e6c79206465706f736974732066726f6d20574554482061726520616c6c6f776564416464726573733a20756e61626c6520746f2073656e642076616c75652c20726563697069656e74206d61792068617665207265766572746564416464726573733a20696e73756666696369656e742062616c616e636520666f722063616c6c506f644f7074696f6e3a20796f7520646f206e6f742068617665206d696e746564206f7074696f6e73506f6443616c6c3a20796f752063616e206e6f74206d696e74207a65726f206f7074696f6e73506f644f7074696f6e3a206f7074696f6e20686173206e6f74206578706972656420796574536166654d6174683a206d756c7469706c69636174696f6e206f766572666c6f7745524332303a207472616e7366657220616d6f756e74206578636565647320616c6c6f77616e6365506f644f7074696f6e3a206e6f7420696e2065786572636973652077696e646f7745524332303a206275726e2066726f6d20746865207a65726f206164647265737345524332303a207472616e736665722066726f6d20746865207a65726f206164647265737345524332303a20617070726f76652066726f6d20746865207a65726f206164647265737357506f6443616c6c3a20796f752063616e206e6f74206578657263697365207a65726f206f7074696f6e735361666545524332303a204552433230206f7065726174696f6e20646964206e6f742073756363656564506f644f7074696f6e3a2074726164652077696e646f772068617320636c6f73656445524332303a2064656372656173656420616c6c6f77616e63652062656c6f77207a65726fa2646970667358221220e3cc8f57e49d2407727cbeaf71de0d84fb0f8ebd0ec9bf95bf8818533fb73c3a64736f6c634300060c0033506f644f7074696f6e3a20756e6465726c79696e6720617373657420616e6420737472696b65206173736574206d75737420646966666572506f644f7074696f6e3a2065786572636973652077696e646f772073697a65206d75737420626520657175616c20746f207a65726f506f644f7074696f6e3a20737472696b65207072696365206d7573742062652067726561746572207468616e207a65726f506f644f7074696f6e3a2065786572636973652077696e646f77206d7573742062652067726561746572207468616e206f7220657175616c203836343030506f644f7074696f6e3a2065787069726174696f6e2073686f756c6420626520696e20746865206675747572655265717569726564446563696d616c733a20746f6b656e20646563696d616c732073686f756c64206265206c6f776572207468616e203338506f644f7074696f6e3a20756e6465726c79696e67206173736574206973206e6f74206120636f6e7472616374506f644f7074696f6e3a20737472696b65206173736574206973206e6f74206120636f6e74726163745265717569726564446563696d616c733a20726571756972656420646563696d616c73",
  "linkReferences": {},
  "deployedLinkReferences": {}
}