{
  "_format": "hh-sol-artifact-1",
  "contractName": "SafeMathUniswap",
  "sourceName": "contracts/libraries/SafeMath.sol",
  "abi": [
    {
      "inputs": [
        {
          "internalType": "bytes32",
          "name": "c__0x286217cc",
          "type": "bytes32"
        }
      ],
      "name": "c_0x286217cc",
      "outputs": [],
      "stateMutability": "pure",
      "type": "function"
    }
  ],
  "bytecode": "0x609c610024600b82828239805160001a607314601757fe5b30600052607381538281f3fe730000000000000000000000000000000000000000301460806040526004361060335760003560e01c806372670963146038575b600080fd5b606160048036036020811015604c57600080fd5b81019080803590602001909291905050506063565b005b5056fea264697066735822122012552b67d2b22e15509db6c4caee97a625017dd82a0c0cce4534338df3a5e19864736f6c634300060c0033",
  "linkReferences": {},
  "deployedLinkReferences": {}
}