{
  "_format": "hh-sol-artifact-1",
  "contractName": "ConfigurationManagerMock",
  "sourceName": "contracts/mocks/ConfigurationManagerMock.sol",
  "abi": [
    {
      "anonymous": false,
      "inputs": [
        {
          "indexed": true,
          "internalType": "bytes32",
          "name": "name",
          "type": "bytes32"
        },
        {
          "indexed": true,
          "internalType": "address",
          "name": "newAddress",
          "type": "address"
        }
      ],
      "name": "ModuleSet",
      "type": "event"
    },
    {
      "anonymous": false,
      "inputs": [
        {
          "indexed": true,
          "internalType": "address",
          "name": "previousOwner",
          "type": "address"
        },
        {
          "indexed": true,
          "internalType": "address",
          "name": "newOwner",
          "type": "address"
        }
      ],
      "name": "OwnershipTransferred",
      "type": "event"
    },
    {
      "anonymous": false,
      "inputs": [
        {
          "indexed": false,
          "internalType": "bytes32",
          "name": "name",
          "type": "bytes32"
        },
        {
          "indexed": false,
          "internalType": "uint256",
          "name": "value",
          "type": "uint256"
        }
      ],
      "name": "ParameterSet",
      "type": "event"
    },
    {
      "inputs": [
        {
          "internalType": "bytes32",
          "name": "c__0x443e9ed5",
          "type": "bytes32"
        }
      ],
      "name": "c_0x443e9ed5",
      "outputs": [],
      "stateMutability": "pure",
      "type": "function"
    },
    {
      "inputs": [],
      "name": "getAMMFactory",
      "outputs": [
        {
          "internalType": "address",
          "name": "",
          "type": "address"
        }
      ],
      "stateMutability": "view",
      "type": "function"
    },
    {
      "inputs": [],
      "name": "getCapProvider",
      "outputs": [
        {
          "internalType": "address",
          "name": "",
          "type": "address"
        }
      ],
      "stateMutability": "view",
      "type": "function"
    },
    {
      "inputs": [],
      "name": "getEmergencyStop",
      "outputs": [
        {
          "internalType": "address",
          "name": "",
          "type": "address"
        }
      ],
      "stateMutability": "view",
      "type": "function"
    },
    {
      "inputs": [],
      "name": "getIVGuesser",
      "outputs": [
        {
          "internalType": "address",
          "name": "",
          "type": "address"
        }
      ],
      "stateMutability": "view",
      "type": "function"
    },
    {
      "inputs": [],
      "name": "getIVProvider",
      "outputs": [
        {
          "internalType": "address",
          "name": "",
          "type": "address"
        }
      ],
      "stateMutability": "view",
      "type": "function"
    },
    {
      "inputs": [
        {
          "internalType": "bytes32",
          "name": "name",
          "type": "bytes32"
        }
      ],
      "name": "getModule",
      "outputs": [
        {
          "internalType": "address",
          "name": "",
          "type": "address"
        }
      ],
      "stateMutability": "view",
      "type": "function"
    },
    {
      "inputs": [],
      "name": "getOptionFactory",
      "outputs": [
        {
          "internalType": "address",
          "name": "",
          "type": "address"
        }
      ],
      "stateMutability": "view",
      "type": "function"
    },
    {
      "inputs": [],
      "name": "getOptionHelper",
      "outputs": [
        {
          "internalType": "address",
          "name": "",
          "type": "address"
        }
      ],
      "stateMutability": "view",
      "type": "function"
    },
    {
      "inputs": [],
      "name": "getOptionPoolRegistry",
      "outputs": [
        {
          "internalType": "address",
          "name": "",
          "type": "address"
        }
      ],
      "stateMutability": "view",
      "type": "function"
    },
    {
      "inputs": [
        {
          "internalType": "bytes32",
          "name": "name",
          "type": "bytes32"
        }
      ],
      "name": "getParameter",
      "outputs": [
        {
          "internalType": "uint256",
          "name": "",
          "type": "uint256"
        }
      ],
      "stateMutability": "view",
      "type": "function"
    },
    {
      "inputs": [],
      "name": "getPriceProvider",
      "outputs": [
        {
          "internalType": "address",
          "name": "",
          "type": "address"
        }
      ],
      "stateMutability": "view",
      "type": "function"
    },
    {
      "inputs": [],
      "name": "getPricingMethod",
      "outputs": [
        {
          "internalType": "address",
          "name": "",
          "type": "address"
        }
      ],
      "stateMutability": "view",
      "type": "function"
    },
    {
      "inputs": [],
      "name": "owner",
      "outputs": [
        {
          "internalType": "address",
          "name": "",
          "type": "address"
        }
      ],
      "stateMutability": "view",
      "type": "function"
    },
    {
      "inputs": [],
      "name": "renounceOwnership",
      "outputs": [],
      "stateMutability": "nonpayable",
      "type": "function"
    },
    {
      "inputs": [
        {
          "internalType": "address",
          "name": "ammFactory",
          "type": "address"
        }
      ],
      "name": "setAMMFactory",
      "outputs": [],
      "stateMutability": "nonpayable",
      "type": "function"
    },
    {
      "inputs": [
        {
          "internalType": "address",
          "name": "capProvider",
          "type": "address"
        }
      ],
      "name": "setCapProvider",
      "outputs": [],
      "stateMutability": "nonpayable",
      "type": "function"
    },
    {
      "inputs": [
        {
          "internalType": "address",
          "name": "emergencyStop",
          "type": "address"
        }
      ],
      "name": "setEmergencyStop",
      "outputs": [],
      "stateMutability": "nonpayable",
      "type": "function"
    },
    {
      "inputs": [
        {
          "internalType": "address",
          "name": "ivGuesser",
          "type": "address"
        }
      ],
      "name": "setIVGuesser",
      "outputs": [],
      "stateMutability": "nonpayable",
      "type": "function"
    },
    {
      "inputs": [
        {
          "internalType": "address",
          "name": "ivProvider",
          "type": "address"
        }
      ],
      "name": "setIVProvider",
      "outputs": [],
      "stateMutability": "nonpayable",
      "type": "function"
    },
    {
      "inputs": [
        {
          "internalType": "address",
          "name": "optionFactory",
          "type": "address"
        }
      ],
      "name": "setOptionFactory",
      "outputs": [],
      "stateMutability": "nonpayable",
      "type": "function"
    },
    {
      "inputs": [
        {
          "internalType": "address",
          "name": "optionHelper",
          "type": "address"
        }
      ],
      "name": "setOptionHelper",
      "outputs": [],
      "stateMutability": "nonpayable",
      "type": "function"
    },
    {
      "inputs": [
        {
          "internalType": "address",
          "name": "optionPoolRegistry",
          "type": "address"
        }
      ],
      "name": "setOptionPoolRegistry",
      "outputs": [],
      "stateMutability": "nonpayable",
      "type": "function"
    },
    {
      "inputs": [
        {
          "internalType": "bytes32",
          "name": "name",
          "type": "bytes32"
        },
        {
          "internalType": "uint256",
          "name": "value",
          "type": "uint256"
        }
      ],
      "name": "setParameter",
      "outputs": [],
      "stateMutability": "nonpayable",
      "type": "function"
    },
    {
      "inputs": [
        {
          "internalType": "address",
          "name": "priceProvider",
          "type": "address"
        }
      ],
      "name": "setPriceProvider",
      "outputs": [],
      "stateMutability": "nonpayable",
      "type": "function"
    },
    {
      "inputs": [
        {
          "internalType": "address",
          "name": "pricingMethod",
          "type": "address"
        }
      ],
      "name": "setPricingMethod",
      "outputs": [],
      "stateMutability": "nonpayable",
      "type": "function"
    },
    {
      "inputs": [
        {
          "internalType": "address",
          "name": "newOwner",
          "type": "address"
        }
      ],
      "name": "transferOwnership",
      "outputs": [],
      "stateMutability": "nonpayable",
      "type": "function"
    }
  ],
  "bytecode": "0x608060405234801561001057600080fd5b50600061002161013860201b60201c565b905080600160006101000a81548173ffffffffffffffffffffffffffffffffffffffff021916908373ffffffffffffffffffffffffffffffffffffffff1602179055508073ffffffffffffffffffffffffffffffffffffffff16600073ffffffffffffffffffffffffffffffffffffffff167f8be0079c531659141344cd1fd0a4f28419497f9722a3daafe3b4186f6b6457e060405160405180910390a350612b5c600260007f4d494e5f5550444154455f494e54455256414c00000000000000000000000000815260200190815260200160002081905550600a600260007f475545535345525f41434345505441424c455f52414e47450000000000000000815260200190815260200160002081905550610140565b600033905090565b6118fc8061014f6000396000f3fe608060405234801561001057600080fd5b50600436106101a95760003560e01c8063723507be116100f9578063e34dc6c411610097578063f2fde38b11610071578063f2fde38b146106f0578063f30e2b7014610734578063fbbeab4d14610768578063fed2122d1461079c576101a9565b8063e34dc6c414610644578063ebf2295914610688578063ef6f1495146106bc576101a9565b8063aaf15bb5116100d3578063aaf15bb514610544578063af964e1914610588578063ba48a6f2146105cc578063c5a19f2b14610600576101a9565b8063723507be1461048057806385acd641146104b85780638da5cb5b14610510576101a9565b8063372aa224116101665780635fa5c8ce116101405780635fa5c8ce146103ca57806367b50eaa146103fe5780636b45a55614610442578063715018a614610476576101a9565b8063372aa224146103005780633fdc99591461034457806359dbaa5414610386576101a9565b80630502f1a1146101ae5780630a065fb6146101e25780631c2236f1146102165780631f27e8921461025a5780632be621401461029e5780633614966d146102d2575b600080fd5b6101b66107e0565b604051808273ffffffffffffffffffffffffffffffffffffffff16815260200191505060405180910390f35b6101ea610810565b604051808273ffffffffffffffffffffffffffffffffffffffff16815260200191505060405180910390f35b6102586004803603602081101561022c57600080fd5b81019080803573ffffffffffffffffffffffffffffffffffffffff169060200190929190505050610840565b005b61029c6004803603602081101561027057600080fd5b81019080803573ffffffffffffffffffffffffffffffffffffffff16906020019092919050505061091c565b005b6102a66109f8565b604051808273ffffffffffffffffffffffffffffffffffffffff16815260200191505060405180910390f35b6102fe600480360360208110156102e857600080fd5b8101908080359060200190929190505050610a28565b005b6103426004803603602081101561031657600080fd5b81019080803573ffffffffffffffffffffffffffffffffffffffff169060200190929190505050610a2b565b005b6103706004803603602081101561035a57600080fd5b8101908080359060200190929190505050610b07565b6040518082815260200191505060405180910390f35b6103c86004803603602081101561039c57600080fd5b81019080803573ffffffffffffffffffffffffffffffffffffffff169060200190929190505050610b24565b005b6103d2610c00565b604051808273ffffffffffffffffffffffffffffffffffffffff16815260200191505060405180910390f35b6104406004803603602081101561041457600080fd5b81019080803573ffffffffffffffffffffffffffffffffffffffff169060200190929190505050610c30565b005b61044a610d0c565b604051808273ffffffffffffffffffffffffffffffffffffffff16815260200191505060405180910390f35b61047e610d3c565b005b6104b66004803603604081101561049657600080fd5b810190808035906020019092919080359060200190929190505050610eac565b005b6104e4600480360360208110156104ce57600080fd5b8101908080359060200190929190505050610fb6565b604051808273ffffffffffffffffffffffffffffffffffffffff16815260200191505060405180910390f35b610518610ff2565b604051808273ffffffffffffffffffffffffffffffffffffffff16815260200191505060405180910390f35b6105866004803603602081101561055a57600080fd5b81019080803573ffffffffffffffffffffffffffffffffffffffff169060200190929190505050611001565b005b6105ca6004803603602081101561059e57600080fd5b81019080803573ffffffffffffffffffffffffffffffffffffffff1690602001909291905050506110dd565b005b6105d46111b9565b604051808273ffffffffffffffffffffffffffffffffffffffff16815260200191505060405180910390f35b6106426004803603602081101561061657600080fd5b81019080803573ffffffffffffffffffffffffffffffffffffffff1690602001909291905050506111e9565b005b6106866004803603602081101561065a57600080fd5b81019080803573ffffffffffffffffffffffffffffffffffffffff1690602001909291905050506112c5565b005b6106906113a1565b604051808273ffffffffffffffffffffffffffffffffffffffff16815260200191505060405180910390f35b6106c46113d1565b604051808273ffffffffffffffffffffffffffffffffffffffff16815260200191505060405180910390f35b6107326004803603602081101561070657600080fd5b81019080803573ffffffffffffffffffffffffffffffffffffffff169060200190929190505050611401565b005b61073c6115f6565b604051808273ffffffffffffffffffffffffffffffffffffffff16815260200191505060405180910390f35b610770611626565b604051808273ffffffffffffffffffffffffffffffffffffffff16815260200191505060405180910390f35b6107de600480360360208110156107b257600080fd5b81019080803573ffffffffffffffffffffffffffffffffffffffff169060200190929190505050611656565b005b600061080b7f454d455247454e43595f53544f50000000000000000000000000000000000000610fb6565b905090565b600061083b7f50524943455f50524f5649444552000000000000000000000000000000000000610fb6565b905090565b610848611732565b73ffffffffffffffffffffffffffffffffffffffff16610866610ff2565b73ffffffffffffffffffffffffffffffffffffffff16146108ef576040517f08c379a00000000000000000000000000000000000000000000000000000000081526004018080602001828103825260208152602001807f4f776e61626c653a2063616c6c6572206973206e6f7420746865206f776e657281525060200191505060405180910390fd5b6109197f414d4d5f464143544f52590000000000000000000000000000000000000000008261173a565b50565b610924611732565b73ffffffffffffffffffffffffffffffffffffffff16610942610ff2565b73ffffffffffffffffffffffffffffffffffffffff16146109cb576040517f08c379a00000000000000000000000000000000000000000000000000000000081526004018080602001828103825260208152602001807f4f776e61626c653a2063616c6c6572206973206e6f7420746865206f776e657281525060200191505060405180910390fd5b6109f57f49565f47554553534552000000000000000000000000000000000000000000008261173a565b50565b6000610a237f49565f4755455353455200000000000000000000000000000000000000000000610fb6565b905090565b50565b610a33611732565b73ffffffffffffffffffffffffffffffffffffffff16610a51610ff2565b73ffffffffffffffffffffffffffffffffffffffff1614610ada576040517f08c379a00000000000000000000000000000000000000000000000000000000081526004018080602001828103825260208152602001807f4f776e61626c653a2063616c6c6572206973206e6f7420746865206f776e657281525060200191505060405180910390fd5b610b047f50524943455f50524f56494445520000000000000000000000000000000000008261173a565b50565b600060026000838152602001908152602001600020549050919050565b610b2c611732565b73ffffffffffffffffffffffffffffffffffffffff16610b4a610ff2565b73ffffffffffffffffffffffffffffffffffffffff1614610bd3576040517f08c379a00000000000000000000000000000000000000000000000000000000081526004018080602001828103825260208152602001807f4f776e61626c653a2063616c6c6572206973206e6f7420746865206f776e657281525060200191505060405180910390fd5b610bfd7f4f5054494f4e5f48454c504552000000000000000000000000000000000000008261173a565b50565b6000610c2b7f4341505f50524f56494445520000000000000000000000000000000000000000610fb6565b905090565b610c38611732565b73ffffffffffffffffffffffffffffffffffffffff16610c56610ff2565b73ffffffffffffffffffffffffffffffffffffffff1614610cdf576040517f08c379a00000000000000000000000000000000000000000000000000000000081526004018080602001828103825260208152602001807f4f776e61626c653a2063616c6c6572206973206e6f7420746865206f776e657281525060200191505060405180910390fd5b610d097f49565f50524f56494445520000000000000000000000000000000000000000008261173a565b50565b6000610d377f49565f50524f5649444552000000000000000000000000000000000000000000610fb6565b905090565b610d44611732565b73ffffffffffffffffffffffffffffffffffffffff16610d62610ff2565b73ffffffffffffffffffffffffffffffffffffffff1614610deb576040517f08c379a00000000000000000000000000000000000000000000000000000000081526004018080602001828103825260208152602001807f4f776e61626c653a2063616c6c6572206973206e6f7420746865206f776e657281525060200191505060405180910390fd5b600073ffffffffffffffffffffffffffffffffffffffff16600160009054906101000a900473ffffffffffffffffffffffffffffffffffffffff1673ffffffffffffffffffffffffffffffffffffffff167f8be0079c531659141344cd1fd0a4f28419497f9722a3daafe3b4186f6b6457e060405160405180910390a36000600160006101000a81548173ffffffffffffffffffffffffffffffffffffffff021916908373ffffffffffffffffffffffffffffffffffffffff160217905550565b610eb4611732565b73ffffffffffffffffffffffffffffffffffffffff16610ed2610ff2565b73ffffffffffffffffffffffffffffffffffffffff1614610f5b576040517f08c379a00000000000000000000000000000000000000000000000000000000081526004018080602001828103825260208152602001807f4f776e61626c653a2063616c6c6572206973206e6f7420746865206f776e657281525060200191505060405180910390fd5b8060026000848152602001908152602001600020819055507ff93fd9b81abd6664e36978db24904a722ea8d841c0cc3563aec5e28ce6165a418282604051808381526020018281526020019250505060405180910390a15050565b600080600083815260200190815260200160002060009054906101000a900473ffffffffffffffffffffffffffffffffffffffff169050919050565b6000610ffc611876565b905090565b611009611732565b73ffffffffffffffffffffffffffffffffffffffff16611027610ff2565b73ffffffffffffffffffffffffffffffffffffffff16146110b0576040517f08c379a00000000000000000000000000000000000000000000000000000000081526004018080602001828103825260208152602001807f4f776e61626c653a2063616c6c6572206973206e6f7420746865206f776e657281525060200191505060405180910390fd5b6110da7f4f5054494f4e5f464143544f52590000000000000000000000000000000000008261173a565b50565b6110e5611732565b73ffffffffffffffffffffffffffffffffffffffff16611103610ff2565b73ffffffffffffffffffffffffffffffffffffffff161461118c576040517f08c379a00000000000000000000000000000000000000000000000000000000081526004018080602001828103825260208152602001807f4f776e61626c653a2063616c6c6572206973206e6f7420746865206f776e657281525060200191505060405180910390fd5b6111b67f454d455247454e43595f53544f500000000000000000000000000000000000008261173a565b50565b60006111e47f414d4d5f464143544f5259000000000000000000000000000000000000000000610fb6565b905090565b6111f1611732565b73ffffffffffffffffffffffffffffffffffffffff1661120f610ff2565b73ffffffffffffffffffffffffffffffffffffffff1614611298576040517f08c379a00000000000000000000000000000000000000000000000000000000081526004018080602001828103825260208152602001807f4f776e61626c653a2063616c6c6572206973206e6f7420746865206f776e657281525060200191505060405180910390fd5b6112c27f50524943494e475f4d4554484f440000000000000000000000000000000000008261173a565b50565b6112cd611732565b73ffffffffffffffffffffffffffffffffffffffff166112eb610ff2565b73ffffffffffffffffffffffffffffffffffffffff1614611374576040517f08c379a00000000000000000000000000000000000000000000000000000000081526004018080602001828103825260208152602001807f4f776e61626c653a2063616c6c6572206973206e6f7420746865206f776e657281525060200191505060405180910390fd5b61139e7f4341505f50524f564944455200000000000000000000000000000000000000008261173a565b50565b60006113cc7f50524943494e475f4d4554484f44000000000000000000000000000000000000610fb6565b905090565b60006113fc7f4f5054494f4e5f464143544f5259000000000000000000000000000000000000610fb6565b905090565b611409611732565b73ffffffffffffffffffffffffffffffffffffffff16611427610ff2565b73ffffffffffffffffffffffffffffffffffffffff16146114b0576040517f08c379a00000000000000000000000000000000000000000000000000000000081526004018080602001828103825260208152602001807f4f776e61626c653a2063616c6c6572206973206e6f7420746865206f776e657281525060200191505060405180910390fd5b600073ffffffffffffffffffffffffffffffffffffffff168173ffffffffffffffffffffffffffffffffffffffff161415611536576040517f08c379a00000000000000000000000000000000000000000000000000000000081526004018080602001828103825260268152602001806118a16026913960400191505060405180910390fd5b8073ffffffffffffffffffffffffffffffffffffffff16600160009054906101000a900473ffffffffffffffffffffffffffffffffffffffff1673ffffffffffffffffffffffffffffffffffffffff167f8be0079c531659141344cd1fd0a4f28419497f9722a3daafe3b4186f6b6457e060405160405180910390a380600160006101000a81548173ffffffffffffffffffffffffffffffffffffffff021916908373ffffffffffffffffffffffffffffffffffffffff16021790555050565b60006116217f4f5054494f4e5f48454c50455200000000000000000000000000000000000000610fb6565b905090565b60006116517f4f5054494f4e5f504f4f4c5f5245474953545259000000000000000000000000610fb6565b905090565b61165e611732565b73ffffffffffffffffffffffffffffffffffffffff1661167c610ff2565b73ffffffffffffffffffffffffffffffffffffffff1614611705576040517f08c379a00000000000000000000000000000000000000000000000000000000081526004018080602001828103825260208152602001807f4f776e61626c653a2063616c6c6572206973206e6f7420746865206f776e657281525060200191505060405180910390fd5b61172f7f4f5054494f4e5f504f4f4c5f52454749535452590000000000000000000000008261173a565b50565b600033905090565b600073ffffffffffffffffffffffffffffffffffffffff168173ffffffffffffffffffffffffffffffffffffffff1614156117dd576040517f08c379a000000000000000000000000000000000000000000000000000000000815260040180806020018281038252601d8152602001807f4d6f64756c6553746f726167653a20496e76616c6964206d6f64756c6500000081525060200191505060405180910390fd5b8060008084815260200190815260200160002060006101000a81548173ffffffffffffffffffffffffffffffffffffffff021916908373ffffffffffffffffffffffffffffffffffffffff1602179055508073ffffffffffffffffffffffffffffffffffffffff16827f0669329f751b07de4aa82f60514a409d0dfaef266e791a4a65a95b07b1c4c32460405160405180910390a35050565b6000600160009054906101000a900473ffffffffffffffffffffffffffffffffffffffff1690509056fe4f776e61626c653a206e6577206f776e657220697320746865207a65726f2061646472657373a26469706673582212208bfa9b5420ecc97c773987e962738d41721070d1b109e2505068bf403d7369dd64736f6c634300060c0033",
  "linkReferences": {},
  "deployedLinkReferences": {}
}